:100000000C945E000C9486000C9486000C94860080
:100010000C9486000C9486000C9486000C94860048
:100020000C9486000C9486000C9486000C94860038
:100030000C9486000C9486000C9486000C94860028
:100040000C94EA090C9486000C945A0A0C94340A15
:100050000C9486000C9486000C9486000C94860008
:100060000C948C0A0C9486000000000024002700E9
:100070002A0000000000250028002B0004040404CE
:100080000404040402020202020203030303030342
:10009000010204081020408001020408102001021F
:1000A00004081020000000080002010000030407FB
:1000B0000000000000000000AB0BF51111241FBE72
:1000C000CFEFD8E0DEBFCDBF11E0A0E0B1E0E0EFC0
:1000D000FFE202C005900D92AA36B107D9F723E0DE
:1000E000AAE6B1E001C01D92A631B207E1F710E027
:1000F000CDE5D0E004C02197FE010E94B116CC35B9
:10010000D107C9F70E94F40B0C94EB170C94000074
:1001100090E0FC01EC55FF4F2491FC01E057FF4FAC
:100120003491FC01E458FF4FE491EE23C9F02223FF
:1001300039F0233001F1A8F4213019F1223029F1EE
:10014000F0E0EE0FFF1FEE58FF4FA591B4918FB76F
:10015000F894EC91611126C030953E233C938FBFFB
:1001600008952730A9F02830C9F0243049F780914C
:1001700080008F7D03C0809180008F778093800006
:10018000DFCF84B58F7784BDDBCF84B58F7DFBCF88
:100190008091B0008F778093B000D2CF8091B00073
:1001A0008F7DF9CF3E2BDACFCF93DF9390E0FC0128
:1001B000E057FF4F249184589F4FFC01849188237E
:1001C000D1F090E0880F991FFC01E859FF4FA591ED
:1001D000B491FC01EE58FF4FC591D49161110EC04E
:1001E0009FB7F8948C91E22FE0958E238C93288111
:1001F000E223E8839FBFDF91CF9108958FB7F894F2
:10020000EC91E22BEC938FBFF6CF8230910538F062
:10021000880F991F880F991F05970197F1F7089587
:100220003FB7F8948091B8019091B901A091BA01BB
:10023000B091BB0126B5A89B05C02F3F19F00196D0
:10024000A11DB11D3FBFBA2FA92F982F8827BC0130
:10025000CD01620F711D811D911D42E0660F771F58
:10026000881F991F4A95D1F708958F929F92AF9258
:10027000BF92CF92DF92EF92FF924B015C010E94FE
:1002800010016B017C010E9410016C197D098E091F
:100290009F09683E734081059105A8F321E0821A09
:1002A0009108A108B10888EEC80E83E0D81EE11CB1
:1002B000F11C81149104A104B10429F7FF90EF907F
:1002C000DF90CF90BF90AF909F908F90089508954A
:1002D0000895AF92BF92CF92DF92EF92FF920F9369
:1002E0001F93CF93DF936C017B018B01040F151FCC
:1002F000EB015E01AE18BF08C017D10759F0699134
:10030000D601ED91FC910190F081E02DC601099597
:10031000892B79F7C501DF91CF911F910F91FF9044
:10032000EF90DF90CF90BF90AF900895FC01538D78
:10033000448D252F30E0842F90E0821B930B5417BF
:1003400010F0CF96089501970895FC01918D828D4C
:10035000981761F0A28DAE0FBF2FB11D5D968C91E5
:10036000928D9F5F9F73928F90E008958FEF9FEF24
:100370000895FC01918D828D981731F0828DE80FE0
:10038000F11D858D90E008958FEF9FEF0895FC019A
:10039000918D228D892F90E0805C9F4F821B910967
:1003A0008F73992708958EE292E00E94C70121E0A1
:1003B000892B09F420E0822F089580E090E0892BBA
:1003C00029F00E94D30181110C9400000895FC01D2
:1003D000A48DA80FB92FB11DA35ABF4F2C91848DA6
:1003E00090E001968F739927848FA689B7892C9303
:1003F000A089B1898C91837080648C93938D848D56
:10040000981306C00288F389E02D80818F7D808358
:100410000895EF92FF920F931F93CF93DF93EC0118
:1004200081E0888F9B8D8C8D98131AC0E889F9899B
:10043000808185FF15C09FB7F894EE89FF8960839E
:10044000E889F98980818370806480839FBF81E01F
:1004500090E0DF91CF911F910F91FF90EF90089561
:10046000F62E0B8D10E00F5F1F4F0F731127E02E3C
:100470008C8D8E110CC00FB607FCFACFE889F98974
:10048000808185FFF5CFCE010E94E701F1CFEB8D92
:10049000EC0FFD2FF11DE35AFF4FF0829FB7F89448
:1004A0000B8FEA89FB8980818062CFCFCF93DF9366
:1004B000EC01888D8823B9F0AA89BB89E889F9897C
:1004C0008C9185FD03C0808186FD0DC00FB607FCB1
:1004D000F7CF8C9185FFF2CF808185FFEDCFCE01E4
:1004E0000E94E701E9CFDF91CF910895FC01838558
:1004F0008F3F19F061E00C9488000895FC01808121
:100500009181892B39F0A281B3819C9111968C91B4
:100510009CBD8DBD83858F3F19F060E00C948800F1
:100520000895BF92CF92DF92EF92FF920F931F93A5
:10053000CF93DF93EC0188819981892B81F06EBD87
:100540000DB407FEFDCF0EB5802FDF91CF911F9127
:100550000F91FF90EF90DF90CF90BF900895888526
:10056000998511E0892B09F010E8BB24B394862FFC
:10057000812309F0B12CF62E2C813D814E815F81C3
:1005800060E271EA87E090E00E94DA14E22E00E077
:10059000C22ED12CEE2019F0C6010E9405018A85D9
:1005A000982F977F09F044C08D858F3F89F09F2D4C
:1005B000912381E009F480E08B1551F0EF85F889F3
:1005C0008F89992379F19081892B8083BB24B394FF
:1005D000E989FA898081998D892B8083EE2019F031
:1005E000C6010E9405018E858F3F39F0EB89FC8999
:1005F0008081988D892309F0012BE989FA899081FE
:10060000898D80958923808388859985892B09F038
:1006100067C0110F1111BECF8E858F3F09F094CFA7
:100620000F2D92CF9081809589238083B12CD0CFDC
:100630008C3099F58D858F3F49F0EF85F8898F894A
:100640009F2D912331F19081892B8083E989FA894B
:100650009081898D809589238083EE2019F0C601D1
:100660000E940501E989FA898081998D892B80830F
:10067000EE2019F0C6010E9405018E858F3F21F200
:10068000EB89FC898081988D892309F4BDCF012BEA
:10069000BBCF908180958923D8CFE989FA89808161
:1006A000998D892B8083EE2019F0C6010E940501E7
:1006B0008D858F3F49F0EF85F8898F899F2D912394
:1006C00059F09081892B8083E989FA899081898DFD
:1006D000809589238083D1CF908180958923F3CF22
:1006E000169598CFCF92DF92EF92FF920F931F93C0
:1006F000CF93DF938C01EB016A0179010E947E02A6
:100700006881C8010E949102E601EC0CFD1C6FEFAC
:10071000C8010E9491028993CE15DF05C1F7C80177
:100720000E94760281E0DF91CF911F910F91FF909F
:10073000EF90DF90CF90089520918B01260F332703
:10074000331F21323105ECF420910402FC0190E0CA
:1007500080E0243069F082E00895A0918B0121911E
:10076000AC0145595E4FA40FB52FB11D2C930196D6
:10077000861798F380918B01680F60938B0180E05E
:10078000089581E008951092040281E080930302AD
:100790001092DE0161E082E10E94880061E083E165
:1007A0000E948800E9EBF0E080818E7F8083808169
:1007B0008D7F808388E48093B80085E48093BC00BB
:1007C0000895CF93DF9391E090936A018823B9F065
:1007D000C091B800D091BA008091BC008A7B809310
:1007E000BC0060E082E10E94880060E083E10E943A
:1007F00088000E94C303D093BA00C093B800DF9171
:10080000CF9108958F929F92AF92BF92CF92DF9235
:10081000EF92FF920F931F93CF93DF93D0912D020E
:10082000D13208F0D7C0182FC0912C020E941001BD
:100830006B017C018091040281116BC082E0809386
:100840000402109303028FEF8093020210920102C0
:10085000D0930002ACE0B2E0E0EEF1E080E0D8132B
:1008600091C01092DF018091DF01CC0FC82BC093A3
:10087000DF018091DE01813009F088C01092DE0135
:100880000E9410016B017C018091DF018093BB000D
:100890008091060290910702A0910802B09109028E
:1008A000892B8A2B8B2BA1F00E941001009106024C
:1008B0001091070220910802309109026C197D09FC
:1008C0008E099F09061717072807390708F442C041
:1008D0008091BC0083FDD8CF85EC8093BC000E9442
:1008E00010016B017C0180910402823009F450C038
:1008F000809102028F3F09F46FC080910202803222
:1009000009F46CC080910202803309F469C084E06C
:1009100026C08091060290910702A0910802B09132
:100920000902892B8A2B8B2B09F484CF0E9410019A
:100930008090060290900702A0900802B0900902F1
:100940006C197D098E099F0986169706A806B906B7
:1009500008F070CF809105020E94E10385E01092BB
:100960000B0210922D0210920A02DF91CF911F917B
:100970000F91FF90EF90DF90CF90BF90AF909F903E
:100980008F9008959D9191938F5F69CF85EEA5CF4C
:100990008091060290910702A0910802B09109028D
:1009A000892B8A2B8B2B09F49ECF0E94100100917A
:1009B00006021091070220910802309109026C1979
:1009C0007D098E099F09061717072807390708F0C0
:1009D0008ACFC0CF81E0C3CF80E0C1CF82E0BFCF5C
:1009E00083E0BDCF1F93CF93DF93EA01122FDC0189
:1009F00011968D919C91DC01ED91FC910280F38127
:100A0000E02D0995C817D90729F4812F0E94020407
:100A100091E0811190E0892FDF91CF911F9108958E
:100A2000CF93DF93EC018B818823A1F0888191E043
:100A300090930A0280932C0210920B0210922D02C6
:100A400081E00E94020491E0811190E0892FDF9102
:100A5000CF9108951092BD011092BC0110920B022B
:100A600010922D020E94C30387E691E09093B0019B
:100A70008093AF0188E691E09093B2018093B10139
:100A800081E08B83CE010E941005982F8111CECF7B
:100A9000DDCF0895E091BD018091BC01E81730F4ED
:100AA000F0E0E254FE4F808190E008958FEF9FEFD9
:100AB00008959091BD018091BC012FEF3FEF9817F1
:100AC00048F4E92FF0E0E254FE4F208130E09F5FD0
:100AD0009093BD01C90108958091BC019091BD0121
:100AE000891B990B0895CF92DF92EF92FF920F939B
:100AF0001F93CF93DF937C01CB018A0120910A02DF
:100B0000222389F0EB016B01C40ED51ECC15DD0547
:100B100069F06991D701ED91FC910190F081E02D90
:100B2000C7010995F3CF642F0E949C03C801DF9190
:100B3000CF911F910F91FF90EF90DF90CF9008958C
:100B4000CF93DF931F92CDB7DEB7698320910A025E
:100B50002223F9F020912D02203258F021E030E0DC
:100B6000FC013383228390E080E00F90DF91CF91EE
:100B7000089580910B02E82FF0E0E45FFD4F99812A
:100B800090838F5F80930B0280932D0281E090E031
:100B9000ECCF61E0CE0101960E949C03F7CF90E07C
:100BA00080E00895FC0101900020E9F73197AF0142
:100BB000481B590BBC018EE292E00C9469018F92A4
:100BC0009F92AF92BF920F931F93CF93DF93CDB7B6
:100BD000DEB7A1970FB6F894DEBF0FBECDBF19A246
:100BE000423008F44AE08E010F5D1F4F842E912C95
:100BF000B12CA12CA50194010E94DA14E62FB901B1
:100C0000CA01EA30F4F4E05DD801EE938D01232BA4
:100C1000242B252B79F790E080E0109719F0CD0177
:100C20000E94D205A1960FB6F894DEBF0FBECDBFCD
:100C3000DF91CF911F910F91BF90AF909F908F90B8
:100C40000895E95CE1CF0F931F93CF93DF9300D01A
:100C5000CDB7DEB76A83E091D702F091D802309722
:100C6000F9F0898384819581029798F0808191E0E1
:100C700090930A0280932C0210920B0210922D0284
:100C800021E042E050E0BE016F5F7F4FCF010E9444
:100C9000F2040F900F90DF91CF911F910F91089563
:100CA0008F7789830091D9021091DA02C8010E94DE
:100CB0007E026981C8010E9491026A81C8010E9476
:100CC0009102C8010E947602E4CF2F923F924F9288
:100CD0005F926F927F928F929F92AF92BF92CF92CC
:100CE000DF92EF92FF920F931F93CF93DF93DC017C
:100CF0001496ED91FC911597EF2B09F425C169012C
:100D00002A01EC01888191E090930A0280932C02E1
:100D100010920B0210922D0220E041E050E0CD0134
:100D20000E94F204782E882309F40EC1F12CE12CE4
:100D3000332433948C819D8186010E191F098017FD
:100D4000910708F48C0128800E9410014B015C017E
:100D500080910402811173C0602EB0E2B01710F4CC
:100D600080E2682E3092040221E0C601801B910BC4
:100D7000E816F90608F420E020930302EFEFE09371
:100D80000202109201028FEF860D809300023092D2
:100D9000DF018091DF01220C282A2092DF0180915F
:100DA000DE01813009F090C01092DE010E94100136
:100DB0004B015C018091DF018093BB0080910602B2
:100DC00090910702A0910802B0910902892B8A2B09
:100DD0008B2BA1F00E941001209106023091070296
:100DE0004091080250910902681979098A099B0902
:100DF000261737074807590708F442C08091BC00FE
:100E000083FDD8CFF5ECF093BC000E9410014B019C
:100E10005C0180910402813009F45AC08091010282
:100E2000861510F460900102A0EEB1E0EEEBF1E067
:100E300080E0861551F19D9191938F5FFACF80915B
:100E4000060290910702A0910802B0910902892B35
:100E50008A2B8B2B09F47CCF0E9410012091060273
:100E600030910702409108025091090268197909EE
:100E70008A099B09261737074807590708F068CFE2
:100E8000809105020E94E103612C1092BD016092E5
:100E9000BC016016110609F057C042018E0C9F1C60
:100EA0005401C501881999098017910798F589811E
:100EB0009A81DC01ED91FC910284F385E02D099586
:100EC000F50181935F01EDCF85EE8093BC009DCF4E
:100ED0008091060290910702A0910802B091090248
:100EE000892B8A2B8B2B09F494CF0E94100120911F
:100EF00006023091070240910802509109026819D8
:100F000079098A099B09261737074807590708F006
:100F100080CFB6CFE00EF11EEC14FD0408F40ACF2A
:100F2000872DDF91CF911F910F91FF90EF90DF9070
:100F3000CF90BF90AF909F908F907F906F905F9079
:100F40004F903F902F900895712CEACFCF93DF936D
:100F50001F92CDB7DEB7E091D702F091D802898316
:100F600021E030E0AE014F5F5F4FBA01309741F0B2
:100F7000CF010E94650689810F90DF91CF9108957E
:100F80008091D9029091DA020E947203F4CFCF933C
:100F9000DF9300D0CDB7DEB7E091D702F091D80251
:100FA000898322E030E0AE014F5F5F4FBA01309796
:100FB00069F0CF010E94650689819A819827892767
:100FC00098270F900F90DF91CF9108958091D902CB
:100FD0009091DA020E947203EFCF0E94C707982710
:100FE000892798270895CF93DF9300D01F92CDB71C
:100FF000DEB7E091D702F091D802898323E030E098
:10100000AE014F5F5F4FBA013097A9F0CF010E9448
:10101000650629816A8170E090E080E0982F872F33
:10102000762F6627822B2B81622B0F900F900F90CB
:10103000DF91CF9108958091D9029091DA020E94B8
:101040007203E7CF4F925F926F927F928F929F923F
:10105000AF92BF92CF92DF92EF92FF9280911003F6
:10106000877009F49EC08AEF0E94F3072B013C01B0
:1010700084E075946794579447948A95D1F7C0900B
:10108000EE02D090EF02C301B20128E030E040E070
:1010900050E00E94FC14F12CE12CD701C601880F0E
:1010A000991FAA1FBB1F281B390B4A0B5B0BA09172
:1010B000F002B091F1020E9426154B015C01C301C0
:1010C000B20120E130E040E050E00E94FC14CA018F
:1010D000B9016C197D098E099F099B01AC010E9421
:1010E000CA149B01AC017CE055954795379527952F
:1010F0007A95D1F7A091F202B091F3020E942615E1
:101100002B013C01C501B40120E038E040E050E093
:101110000E94FC1469017A01C301B20120E030E4AD
:1011200040E050E00E94FC142C0D3D1D4E1D5F1D43
:101130008091EA029091EB02A091EC02B091ED0255
:10114000280F391F4A1F5B1F2093E6023093E702E6
:101150004093E8025093E902A5E0B0E00E941B151D
:1011600060587F4F8F4F9F4F20E031E040E050E0CC
:101170000E94FC14CA01B9010E94551320E030E01E
:1011800048EC52E40E94AC12FF90EF90DF90CF90B9
:10119000BF90AF909F908F907F906F905F904F9097
:1011A000089560E070E080EC9FE7EECF4F925F9291
:1011B0006F927F928F929F92AF92BF92CF92DF9267
:1011C000EF92FF920F931F93CF936B017C01742ECC
:1011D000AC019B010E94C514882399F08AE291E03A
:1011E000CF911F910F91FF90EF90DF90CF90BF9024
:1011F000AF909F908F907F906F905F904F900C94E6
:10120000D20546015701E894B7F82FEF3FEF4FE7BB
:101210005FE7C501B4010E94C51481110DC02FEF15
:101220003FEF4FE75FE7C501B4010E94A712181610
:101230001CF48EE291E0D4CF2FEF3FEF4FE75FE455
:10124000C701B6010E94531418161CF482E391E002
:10125000C7CF2FEF3FEF4FE75FECC701B6010E940A
:10126000A71287FDF3CF20E030E0A901C701B60146
:101270000E94A71210E000E087FF0AC06DE28EE234
:1012800092E00E9409028C01F7FAF094F7F8F094CA
:10129000C0E060E070E080E09FE37C1641F020E079
:1012A00030E040E251E40E94AC12CF5FF6CFA701DC
:1012B00096010E943B122B013C010E941E134B0120
:1012C0005C014AE00E94DF057C01E00EF11ECC23A8
:1012D000C1F1C501B4010E9453139B01AC01C301CC
:1012E000B2010E943A124B015C016EE28EE292E082
:1012F0000E940902E80EF91EC15018F120E030E00A
:1013000040E251E4C501B4010E9458142B013C0194
:101310000E941E134B01B12CA12C4AE0C501B4015F
:101320000E94DF05E80EF91EC501B4010E945313A7
:101330009B01AC01C301B2010E943A124B015C0156
:10134000DBCFC701CF911F910F91FF90EF90DF90FE
:10135000CF90BF90AF909F908F907F906F905F9055
:101360004F90089585ED8093BC0080910602909186
:101370000702A0910802B09109020796A11DB11DB4
:1013800023E0B695A795979587952A95D1F7209153
:10139000BC0024FD03C0109204020895409106028F
:1013A000509107026091080270910902452B462B6B
:1013B000472B69F30097A105B10541F02AE22A9570
:1013C000F1F700C00197A109B109E1CF80910502B1
:1013D0000C94E1031F920F920FB60F9211242F93DA
:1013E0003F938F939F93AF93BF938091B40190915C
:1013F000B501A091B601B091B7013091B30123E0DE
:10140000230F2D3758F50196A11DB11D2093B3016F
:101410008093B4019093B501A093B601B093B70146
:101420008091B8019091B901A091BA01B091BB012E
:101430000196A11DB11D8093B8019093B901A093AD
:10144000BA01B093BB01BF91AF919F918F913F9132
:101450002F910F900FBE0F901F90189526E8230F25
:101460000296A11DB11DD2CF1F920F920FB60F92FF
:1014700011242F933F934F935F936F937F938F9399
:101480009F93AF93BF93EF93FF938EE292E00E94FE
:10149000E701FF91EF91BF91AF919F918F917F9164
:1014A0006F915F914F913F912F910F900FBE0F90D1
:1014B0001F9018951F920F920FB60F9211242F9321
:1014C0008F939F93EF93FF93E0913E02F0913F0241
:1014D0008081E0914402F091450282FD1BC0908121
:1014E000809147028F5F8F7320914802821741F0ED
:1014F000E0914702F0E0E25DFD4F958F8093470257
:10150000FF91EF919F918F912F910F900FBE0F90B0
:101510001F9018958081F4CF1F920F920FB60F92F3
:1015200011242F933F934F935F936F937F938F93E8
:101530009F93AF93BF93EF93FF938091B900887F00
:10154000803609F44AC0F0F5883209F4A7C018F5CE
:10155000803109F49BC0B8F4882309F4F9C08830BD
:1015600009F494C0FF91EF91BF91AF919F918F913A
:101570007F916F915F914F913F912F910F900FBE8F
:101580000F901F901895883109F488C0803251F768
:101590008093020214C0803409F49DC040F480336B
:1015A000B9F38833F9F68093020285ECB0C0803538
:1015B00009F485C0883509F496C0883499F60E94EC
:1015C000B209D0CF883909F48CC038F5883729F0B2
:1015D00050F4883611F0803729F683E080930402B6
:1015E0001092AD0157C0883809F47BC0803919F0DA
:1015F000803809F0B7CF8091AD01803208F071C01A
:10160000E091AD0181E08E0F8093AD018091BB0030
:10161000F0E0E357FE4F80833DC0803B39F0E0F4BB
:10162000803A09F479C0883A09F09CCF84E080932D
:10163000040210928C0110928B01E091AF01F091A5
:10164000B001099580918B0181110FC081E08093D9
:101650008B0110926B0109C0803C09F4A6CF883C35
:1016600009F4A3CF883B09F07DCFE0918C0181E0A4
:101670008E0F80938C01F0E0E559FE4F80818093BE
:10168000BB0090918C0180918B0129C08091DF017A
:101690008093BB0085EC8093BC0064CF90910102E5
:1016A00080910002981758F5E091010281E08E0FB9
:1016B00080930102F0E0E052FE4F8081E9CFE0919B
:1016C000010281E08E0F809301028091BB00F0E067
:1016D000E052FE4F808390910102809100029817A2
:1016E000C8F285E8D8CFE091010281E08E0F8093A7
:1016F00001028091BB00F0E0E052FE4F80838091B8
:10170000030281115CCF81E08093DE0184EA809343
:10171000BC001092040226CF85EC8093BC0010928E
:1017200004028091AD01803230F4E091AD01F0E02F
:10173000E357FE4F10826091AD0170E0E091B1017E
:10174000F091B2018DE891E009951092AD010ACFB8
:101750001092020234CFEEE2F2E01382128288EE9F
:1017600093E0A0E0B0E084839583A683B7832AE06A
:1017700031E03183208325EC30E03587248724EC69
:1017800030E03787268720EC30E0318B208B21EC4E
:1017900030E0338B228B22EC30E0358B248B26EC2F
:1017A00030E0378B268B118E128E138E148EEBEC5D
:1017B000F2E01382128284839583A683B7838CE13F
:1017C00091E091838083E7EDF2E011821082138231
:1017D0001282158214821782168211861086138A4D
:1017E000148A158A168A0895CF93DF93CDB7DEB792
:1017F0006B970FB6F894DEBF0FBECDBF789484B55B
:10180000826084BD84B5816084BD85B5826085BDFC
:1018100085B5816085BD80916E00816080936E008A
:10182000109281008091810082608093810080917C
:10183000810081608093810080918000816080932D
:1018400080008091B10084608093B1008091B000ED
:1018500081608093B00080917A00846080937A00E8
:1018600080917A00826080937A0080917A00816012
:1018700080937A0080917A00806880937A00109239
:10188000C100E0913E02F0913F0282E08083E0914E
:101890003A02F0913B021082E0913C02F0913D024D
:1018A00080E1808310924602E0914202F09143026F
:1018B00086E08083E0914002F09141028081806166
:1018C0008083E0914002F0914102808188608083B2
:1018D000E0914002F0914102808180688083E09134
:1018E0004002F091410280818F7D80832091D90256
:1018F0003091DA023F8B2E8B232B09F058C0809158
:10190000D7029091D802009711F00E94621786E0EA
:1019100090E00E94C6169F8B8E8B87E7EE89FF8929
:1019200080838BEC92E092838183138280E290E04B
:1019300095838483F093D802E093D7021092BD017F
:101940001092BC0110920B0210922D020E94C30350
:1019500087E691E09093B0018093AF0188E691E033
:101960009093B2018093B10181E0EE89FF89838376
:10197000CF010E941005811166C083E491E00E94AE
:10198000D2056091E2027091E3028091E4029091AD
:10199000E50240E10E94DF0580E491E00E94D2056B
:1019A0006AE070E080E090E00E943501F9CFEE89B6
:1019B000FF8983858F3F49F061E00E94D40061E098
:1019C000EE89FF8983850E948800EE89FF898081E6
:1019D0009181892B09F4D1C41FB7F8948091AE018D
:1019E000811127C0E6E8F0E08491EAE9F0E0949103
:1019F000E82FF0E0EE0FFF1FE859FF4FA591B491DB
:101A0000EC91E92321F461E08AE00E94880061E022
:101A10008AE00E94D4008CB580618CBD8CB5806456
:101A20008CBD61E08DE00E94D40061E08BE00E94FB
:101A3000D4008091AE018F5F8093AE011FBF81E023
:101A4000EE89FF89838F80ED0E94A60790E0B0E0C9
:101A5000A0E08093E2029093E302A093E402B093AB
:101A6000E50280369105A105B10509F086CF66EB48
:101A700080EE0E9423066AE070E080E090E00E9421
:101A8000350183EF0E94A60780FDF5CF88E80E940C
:101A9000ED079093EF028093EE028AE80E94ED0733
:101AA0009093F1028093F0028CE80E94ED079093EE
:101AB000F3028093F2028EE80E94ED079093F50204
:101AC0008093F40280E90E94ED079093F7028093DF
:101AD000F60282E90E94ED079093F9028093F802E2
:101AE00084E90E94ED079093FB028093FA0286E955
:101AF0000E94ED079093FD028093FC0288E90E940A
:101B0000ED079093FF028093FE028AE90E94ED07A1
:101B100090930103809300038CE90E94ED0790935A
:101B20000303809302038EE90E94ED07909305035F
:101B30008093040381EA0E94A6078093060381EE46
:101B40000E94ED07909308038093070383EE0E94A1
:101B5000A6078093090384EE0E94A607898385EE79
:101B60000E94A607F98140E1F402900111248F70D0
:101B7000282B30930B0320930A0386EE0E94A607BE
:101B8000898385EE0E94A607F98120E1F202F00127
:101B9000112490E004E0959587950A95E1F78E2B46
:101BA0009F2B90930D0380930C0387EE0E94A60752
:101BB00080930E038DEE80931003809111038F713B
:101BC000806A8093110380910F03807C8F778093CC
:101BD0000F0360E084EF0E94230660911103629579
:101BE0006695677082EF0E94230680910F03682F2D
:101BF000677030E2639FB0011124282F2695269547
:101C00002695277044E0249F90011124622B87FBC6
:101C1000882780F9682B85EF0E94230680911003A6
:101C2000682F677050E2659FB0011124282F269518
:101C300026952695277094E0299F90011124622B08
:101C40008295869586958370682B84EF0E94230683
:101C500064E670E080E090E00E94350186E391E068
:101C60000E94D20580E491E00E94D2058FE591E0C8
:101C70000E94D2050E94220842E00E94D60882E615
:101C800091E00E94D20580911003887309F49FC3EC
:101C90000E94220887EF0E94F3076E8B7F8B888F4C
:101CA000998F8091E6029091E702A091E802B091AD
:101CB000E9026C017D01FF0CCC08DC2C76019C0153
:101CC000AD016C2D7C2D8C2D9C2D345F4140510934
:101CD00061097109810991092B8F3A8F49835A83D0
:101CE0006B837C838D839E8359016A017B018C0108
:101CF0000E942E152F83388749875A876B877C87E8
:101D00008D879E873091F7022091F602932F990FCD
:101D1000990B492F592F692F792F892F0E942E1542
:101D20000CE00E945D1619012A013B014C01309123
:101D3000F9022091F802932F990F990BAF80B88484
:101D4000C984DA84EB84FC840D851E85492F592FC4
:101D5000692F792F892F0E942E15F22E032F142F11
:101D6000B52FF62FE72FD82EE92EA0E00E94A5165A
:101D700084F421503F4F4F4F5F4F6F4F7F4F8F4F36
:101D80009F4FF22E032F142FB52FF62FE72FD82EAB
:101D9000E92E2F2D302F412F5B2F6F2F7E2F8D2D72
:101DA0009E2D08E00E9476165101620173018401A4
:101DB0000E94931670588F4F9F4F2090F4023090DE
:101DC000F5025101C12CD12CE12CF12C00E010E0E6
:101DD0000E942E15F22E032F142FB52FF62FE72F6A
:101DE000D82EE92EA0E00E94A51684F421503109D6
:101DF000410951096E4F7F4F8F4F9F4FF22E032F96
:101E0000142FB52FF62FE72FD82EE92E2F2D302F98
:101E1000412F5B2F6F2F7E2F8D2D9E2D01E20E9473
:101E200076162F87388B498B5A8B6B8B7C8B8D8BDF
:101E3000692EA0E00E94A51609F4CEC23091FF02DF
:101E40002091FE02932F990F990BAF80B884C9841B
:101E5000DA84EB84FC840D851E85492F592F692F68
:101E6000792F892F0E942E1519012A016F83772E51
:101E70004C013091FD022091FC02932F990F990B98
:101E8000AB8CBA8CC980DA80EB80FC800D811E811E
:101E9000492F592F692F792F892F0E942E1501E183
:101EA0000E945D1651016201EF80F72C84010E94AF
:101EB000931659016A017B01782E192F8E899F890B
:101EC000A88DB98D24E0B595A795979587952A9506
:101ED000D1F720E030E040E150E0281B390B4A0BFD
:101EE0005B0BDA01C90119012A01550C2208322CB9
:101EF00021019C01AD01622D722D822D922D0FE1E9
:101F00000E945D1649014A835983B62FA72FF82FE7
:101F1000E92F3091FB022091FA02932F990F990B30
:101F2000492F592F692F792F892F03E20E945D16BF
:101F3000072D0E94931659016A017B018C019401BF
:101F40004A8159816B2F7A2F8F2F9E2F0E949C16CA
:101F5000E5E3AE2EFCE0BF2EC12CD12CE12CF12C00
:101F600000E010E00E942E15AF84B888C988DA8896
:101F7000EB88FC880D89162D0E9488152F83232E4F
:101F80002A013B014C01022F132F4983B52DF62F57
:101F9000E72D7C01A0E00E94A51674F42150304E7C
:101FA0004F4F5F4F6F4F7F4F8F4F9F4F8901498337
:101FB000B52FF62FE72F7C01980149815B2F6F2FFA
:101FC0007E2FC7010DE00E947616322E39834A8398
:101FD0005B836C837D838E8398873091050320918A
:101FE0000403932F990F990BA32CB9806A017B01ED
:101FF000082F1885492F592F692F792F892F0E9473
:102000002E150E942E1589014983B52FF62FE72F33
:102010007C01A0E00E94A51674F421503109410909
:102020005E4F6F4F7F4F8F4F9F4F89014983B52F71
:10203000F62FE72F7C01980149815B2F6F2F7E2FB0
:10204000C70109E10E947616AF80B22C62017301CC
:1020500084010E949316322E39834A835B836C83FA
:102060007D838E8398873091030320910203932F01
:10207000990F990B492F592F692F792F892F0E947A
:102080002E1589014F83B52FF62FE72F7C01A0E095
:102090000E94A51674F421503109484F5F4F6F4FCD
:1020A0007F4F8F4F9F4F89014F83B52FF62FE72F1B
:1020B0007C0198014F815B2F6F2F7E2FC70103E1B9
:1020C0000E94761659016A017B018C01232D39810A
:1020D0004A815B816C817D818E8198850E949316F7
:1020E000122F3A834983B52FF62FE72FF82E092FA9
:1020F000A0E00E94A51684F421503F4F4F4F5F4F40
:102100006F4F7F4F8F4F9F4F122F3A834983B52FC9
:10211000F62FE72FF82E092F212F3A8149815B2FC7
:102120006F2F7E2F8F2D902F08E00E947616298327
:10213000F32F6A017B01E82F192F80910003909102
:102140000103092E000CAA0BBB0B4C015D01BB0C5B
:102150008808982C54019C01AD01682D782D882D9C
:10216000982D04E00E945D16A980BF2E0E2F0E94BC
:1021700093160E944D1320E030E040E85BE30E949C
:10218000581420E030E048EC52E40E94AC1242E0E7
:102190000E94D60886E691E00E94D2058091110344
:1021A000807E09F41DC10E9422088DEF0E94C7079E
:1021B000C090E602D090E702E090E802F090E902D9
:1021C0003CE2D31A31E0E30AF108B0E0A0E04C01B0
:1021D0005D013EE0880C991CAA1CBB1C3A95D1F706
:1021E00040910A0350910B03052E000C660B770BF0
:1021F000E4E1440F551F661F771FEA95D1F7841A53
:10220000950AA60AB70AA0910C03B0910D03A70185
:1022100096010E942615861A970AA80AB90AC501CE
:10222000B401705C8F4F9F4F20E030E840E050E0F9
:102230000E94FC1429013A01A0910903B0E0A70112
:1022400096010E941B1520E038E040E050E00E941B
:10225000FC1449015A0180E8980EA11CB11CA09100
:102260000E030A2E000CBB0BA70196010E94261537
:1022700020E034E040E050E00E94FC14CA01B901C3
:10228000A50194010E94CA1420E034E040E050E02F
:102290000E94FC14405E5F4FA0910703B0910803B9
:1022A0000E942615705E8F4F9F4F20E030E440E083
:1022B00050E00E94FC14C301B2010E94CA146B01D9
:1022C0007C0120E030E840E050E00E94FC14CA01AC
:1022D000B9010E94CA149B01AC01F7E055954795DE
:1022E00037952795FA95D1F7A0910603B0E00E94A3
:1022F0001B1520E130E040E050E00E94FC14C21ABF
:10230000D30AE40AF50AF7FE03C0C12CD12C7601EA
:10231000C701B601613071058105E9E19E0724F02E
:1023200060E070E080E099E12CE0959587957795E5
:1023300067952A95D1F70E94531320E030E040E8DA
:102340005AE30E94581442E00E94D60880E491E0CB
:102350000E94D20568EC70E080E090E00E943501B8
:1023600020E030E0232B09F481CC0E94D3018823A4
:1023700009F47CCC0E94000079CC61E0EE89FF89F1
:1023800084850E94D400EE89FF8982858B7F60E07E
:1023900019F061E0EE89FF8984850E948800EE894A
:1023A000FF8985858F3F49F061E00E94D40061E09C
:1023B000EE89FF8985850E948800EE89FF898685E0
:1023C0008F3F09F43CCB60E00E94D40038CB60E042
:1023D00070E080EC9FE7D5CE60E070E0CB01D1CE1D
:1023E00060E070E080EC9FE7AECFCF93DF93C091C9
:1023F000D902D091DA02209749F08A819B81009717
:1024000011F00E946217CE010E9462178091D702DC
:102410009091D802009711F00E9462178091DB0220
:102420009091DC02009739F0DC01ED91FC91028083
:10243000F381E02D09958091DD029091DE020097F5
:1024400039F0DC01ED91FC910280F381E02D0995DA
:102450008091DF029091E002009749F0DC01ED915C
:10246000FC910280F381E02DDF91CF910994DF91FF
:10247000CF9108955058BB27AA270E9452120C945E
:1024800019140E940B1438F00E94121420F039F431
:102490009F3F19F426F40C94F8130EF4E095E7FB33
:1024A0000C94F213E92F0E942A1458F3BA1762070A
:1024B00073078407950720F079F4A6F50C944C1463
:1024C0000EF4E0950B2EBA2FA02D0B01B90190014F
:1024D0000C01CA01A0011124FF27591B99F0593F93
:1024E00050F4503E68F11A16F040A22F232F342FDB
:1024F0004427585FF3CF469537952795A795F04029
:102500005395C9F77EF41F16BA0B620B730B840B3D
:10251000BAF09150A1F0FF0FBB1F661F771F881FF5
:10252000C2F70EC0BA0F621F731F841F48F487954D
:1025300077956795B795F7959E3F08F0B0CF93953F
:10254000880F08F09927EE0F9795879508950E94B8
:10255000CE1308F481E008950E94C0120C9419145F
:102560000E94121458F00E940B1440F029F45F3FAF
:1025700029F00C94F21351110C944D140C94F8138F
:102580000E942A1468F39923B1F3552391F3951B04
:10259000550BBB27AA2762177307840738F09F5F84
:1025A0005F4F220F331F441FAA1FA9F335D00E2EF1
:1025B0003AF0E0E832D091505040E695001CCAF75E
:1025C0002BD0FE2F29D0660F771F881FBB1F261721
:1025D00037074807AB07B0E809F0BB0B802DBF01F8
:1025E000FF2793585F4F3AF09E3F510578F00C94C7
:1025F000F2130C944D145F3FE4F3983ED4F38695A8
:1026000077956795B795F7959F5FC9F7880F911DE7
:102610009695879597F90895E1E0660F771F881FD3
:10262000BB1F621773078407BA0720F0621B730B86
:10263000840BBA0BEE1F88F7E09508950E943214C0
:1026400088F09F5798F0B92F9927B751B0F0E1F073
:10265000660F771F881F991F1AF0BA95C9F714C023
:10266000B13091F00E944C14B1E008950C944C14D8
:10267000672F782F8827B85F39F0B93FCCF386955C
:1026800077956795B395D9F73EF4909580957095B9
:1026900061957F4F8F4F9F4F089597FB16F40E94CF
:1026A000FB130C949113E89409C097FB3EF49095AA
:1026B0008095709561957F4F8F4F9F4F9923A9F01B
:1026C000F92F96E9BB279395F695879577956795AA
:1026D000B795F111F8CFFAF4BB0F11F460FF1BC0EE
:1026E0006F5F7F4F8F4F9F4F16C0882311F096E981
:1026F00011C0772321F09EE8872F762F05C066232F
:1027000071F096E8862F70E060E02AF09A95660FE7
:10271000771F881FDAF7880F9695879597F90895A0
:10272000E894F92F96EBFF2381F012161306140696
:10273000440B9395F6958795779567955795404007
:10274000FF23B9F71BC099270895882351F49850A7
:10275000D2F7872B762F652F542F432F322F20E06F
:10276000B1F3121613061406440B88233AF09A9517
:10277000440F551F661F771F881FCAF755234AF459
:10278000440F551F11F460FF04C06F5F7F4F8F4FE0
:102790009F4F880F9695879597F90895990F000890
:1027A000550FAA0BE0E8FEEF16161706E807F90723
:1027B000C0F012161306E407F50798F0621B730BBE
:1027C000840B950B39F40A2661F0232B242B252B3F
:1027D00021F408950A2609F4A140A6958FEF811DE2
:1027E000811D089597F99F6780E870E060E0089583
:1027F0009FEF80EC08959095809570956095509529
:102800004095309521953F4F4F4F5F4F6F4F7F4F12
:102810008F4F9F4F089500240A9416161706180626
:102820000906089500240A941216130614060506D4
:102830000895092E0394000C11F4882352F0BB0F65
:1028400040F4BF2B11F460FF04C06F5F7F4F8F4FC8
:102850009F4F089557FD9058440F551F59F05F3F03
:1028600071F04795880F97FB991F61F09F3F79F0B2
:1028700087950895121613061406551FF2CF469534
:10288000F1DF08C0161617061806991FF1CF8695B6
:102890007105610508940895E894BB27662777279A
:1028A000CB0197F908950E94CE1308F48FEF089595
:1028B0000E946B140C9419140E940B1438F00E949F
:1028C000121420F0952311F00C94F2130C94F813C9
:1028D00011240C944D140E942A1470F3959FC1F397
:1028E000950F50E0551F629FF001729FBB27F00DBE
:1028F000B11D639FAA27F00DB11DAA1F649F662713
:10290000B00DA11D661F829F2227B00DA11D621F61
:10291000739FB00DA11D621F839FA00D611D221F1B
:10292000749F3327A00D611D231F849F600D211DFF
:10293000822F762F6A2F11249F5750409AF0F1F082
:1029400088234AF0EE0FFF1FBB1F661F771F881FEB
:1029500091505040A9F79E3F510580F00C94F2131E
:102960000C944D145F3FE4F3983ED4F3869577952D
:102970006795B795F795E7959F5FC1F7FE2B880F91
:10298000911D9695879597F908950E94CE13880B0F
:10299000990B0895DB018F939F930E941B15BF91A4
:1029A000AF91A29F800D911DA39F900DB29F900D9E
:1029B00011240895A1E21A2EAA1BBB1BFD010DC014
:1029C000AA1FBB1FEE1FFF1FA217B307E407F507DF
:1029D00020F0A21BB30BE40BF50B661F771F881FBB
:1029E000991F1A9469F760957095809590959B0151
:1029F000AC01BD01CF010895052E97FB1EF4009494
:102A00000E94131557FD07D00E94DA1407FC03D06B
:102A10004EF40C94131550954095309521953F4FE9
:102A20004F4F5F4F089590958095709561957F4FBA
:102A30008F4F9F4F08950E94B716A59F900DB49F8A
:102A4000900DA49F800D911D11240895B7FF0C9443
:102A50001B150E941B15821B930B0895DF93CF93C8
:102A60001F930F939A9DF02D219FF00D8B9DF00DDC
:102A70008A9DE02DF10D039FF00D029FE00DF11DE9
:102A80004E9DE00DF11D5E9DF00D4F9DF00D7F936D
:102A90006F93BF92AF925F934F93D5010E94B71689
:102AA0008B01AC01D7010E94B716EB01E80FF91FAB
:102AB000D6010E947D152F913F91D6010E94B71635
:102AC000C60FD71FE81FF91FAF91BF910E947D1558
:102AD0002F913F910E94B716C60FD71FE81FF91F0D
:102AE000D6010E94B716E60FF71F9801BE01CF016D
:102AF0000F911F91CF91DF9108950E94B716460F55
:102B0000571FC81FD91F08F431960895689401C053
:102B1000E894F92FF12B12F00C94BA15A0E0B0E074
:102B2000E4E9F5E10C942C16092E059422F40E9498
:102B30001616112392F4F0E80F26FFEFE094F094BC
:102B400000951095B094C094D094A194BF0ACF0A78
:102B5000DF0AEF0AFF0A0F0B1F0B0E94C51507FCC7
:102B60000E941616CDB7DEB7ECE00C9448166894B8
:102B700001C0E8948F929F92CF93DF930E94C51576
:102B8000DF91CF919F908F90089588249924F4012C
:102B9000E401B0E49F93AA279A158B049C04ED05E9
:102BA000FE05CF05D007A10798F4AD2FDC2FCF2F5E
:102BB000FE2FE92D982C892E982F872F762F652FA1
:102BC000542F432F322F2227B85031F7BF9127C0FF
:102BD0001B2EBF91BB27220F331F441F551F661F9B
:102BE000771F881F991F881C991CEE1FFF1FCC1F81
:102BF000DD1FAA1FBB1F8A149B04EC05FD05CE0533
:102C0000DF05A007B10748F08A189B08EC09FD0909
:102C1000CE09DF09A00BB10B21601A94E1F62EF466
:102C20009401AF01BE01CD01000C0895609570952F
:102C30008095909530954095509521953F4F4F4FF9
:102C40005F4F6F4F7F4F8F4F9F4F08952F923F924F
:102C50004F925F926F927F928F929F92AF92BF92AC
:102C6000CF92DF92EF92FF920F931F93CF93DF9358
:102C7000CDB7DEB7CA1BDB0B0FB6F894DEBF0FBEB5
:102C8000CDBF09942A88398848885F846E847D8402
:102C90008C849B84AA84B984C884DF80EE80FD8004
:102CA0000C811B81AA81B981CE0FD11D0FB6F8947A
:102CB000DEBF0FBECDBFED010895002E083090F0AD
:102CC000982F872F762F652F542F432F322F2227AF
:102CD0000850F4CF220F331F441F551F661F771F64
:102CE000881F991F0A95B2F7002D089597FD10943B
:102CF000002E083098F00850232F342F452F562FE0
:102D0000672F782F892F912DF4CF1594979587955C
:102D10007795679557954795379527950A95AAF71B
:102D20001124002D08952A0D3B1D4C1D5D1D6E1DA7
:102D30007F1D801F911F08952A193B094C095D09C9
:102D40006E097F09800B910B08950024A7FD009464
:102D50002A1730054005500560057005800590056F
:102D60000895EE0FFF1F0590F491E02D0994A29FA6
:102D7000B001B39FC001A39F700D811D1124911D4F
:102D8000B29F700D811D1124911D08950F931F9303
:102D9000CF93DF938230910510F482E090E0E091D0
:102DA0001403F091150330E020E0B0E0A0E030978C
:102DB00099F42115310509F44AC0281B390B243038
:102DC0003105D8F58A819B816115710589F1FB0177
:102DD00093838283FE0111C040815181028113815E
:102DE00048175907E0F04817590799F4109761F010
:102DF00012960C93129713961C933296CF01DF9183
:102E0000CF911F910F910895009314031093150310
:102E1000F4CF2115310551F04217530738F0A901BD
:102E2000DB019A01BD01DF01F801C1CFEF01F9CF4C
:102E30009093150380931403CDCFFE01E20FF31F8F
:102E4000819391932250310939832883D7CF2091E0
:102E5000120330911303232B41F42091020130918E
:102E6000030130931303209312032091000130914A
:102E700001012115310541F42DB73EB74091040100
:102E800050910501241B350BE0911203F0911303BF
:102E9000E217F307A0F42E1B3F0B2817390778F031
:102EA000AC014E5F5F4F2417350748F04E0F5F1F90
:102EB0005093130340931203819391939FCFF0E0BB
:102EC000E0E09CCFCF93DF930097E9F0FC013297CD
:102ED00013821282A0911403B0911503ED0130E02A
:102EE00020E01097A1F420813181820F931F20915F
:102EF0001203309113032817390709F061C0F093CA
:102F00001303E0931203DF91CF910895EA01CE17E6
:102F1000DF07E8F54A815B819E0141155105B1F754
:102F2000E901FB83EA8349915991C40FD51FEC173E
:102F3000FD0761F4808191810296840F951FE9015C
:102F400099838883828193819B838A83F0E0E0E088
:102F500012968D919C9113970097B9F52D913C9104
:102F60001197CD010296820F931F20911203309189
:102F700013032817390739F6309751F510921503C6
:102F800010921403B0931303A0931203BCCFD38306
:102F9000C28340815181840F951FC817D90761F4FE
:102FA0004E5F5F4F88819981480F591F518340833D
:102FB0008A819B81938382832115310509F0B0CFEB
:102FC000F0931503E09314039ECFFD01DC01C0CF05
:102FD00013821282D7CF10E0CDE5D0E004C0FE010D
:102FE0000E94B1162196CE35D107C9F7F894FFCFCC
:102FF000000016038000000000000902690196012C
:103000005602C701A501B90100000000A005730523
:10301000CF0549056C0559054A056E616E00696E5C
:1030200066006F766600424D45323830204F4B00C7
:103030000D0A00424D45323830206E6F20656E63B8
:103040006F6E747261646F2C2069643D3078005437
:0A3050003D0020503D0020483D00E7
:00000001FF
