:100000000C9417030C943F030C943F030C943F0390
:100010000C943F030C943F030C943F030C943F0358
:100020000C943F030C943F030C943F030C943F0348
:100030000C943F030C943F030C943F030C943F0338
:100040000C9402140C943F030C9472140C944C14F2
:100050000C943F030C943F030C943F030C943F0318
:100060000C94A4140C943F0300000000003E5B4F6E
:100070005B3E3E6B4F6B3E1C3E7C3E1C183C7E3C08
:10008000181C577D571C1C5E7F5E1C00183C180016
:10009000FFE7C3E7FF0018241800FFE7DBE7FF30A6
:1000A000483A060E2629792926407F050507407F14
:1000B00005253F5A3CE73C5A7F3E1C1C08081C1C87
:1000C0003E7F14227F22145F5F005F5F06097F017D
:1000D0007F006689956A606060606094A2FFA29468
:1000E00008047E040810207E201008082A1C080836
:1000F0001C2A08081E101010100C1E0C1E0C303884
:100100003E3830060E3E0E06000000000000005F84
:1001100000000007000700147F147F14242A7F2AA0
:100120001223130864623649562050000807030062
:10013000001C2241000041221C002A1C7F1C2A08AE
:10014000083E080800807030000808080808000011
:1001500060600020100804023E5149453E00427F85
:10016000400072494949462141494D331814127FD4
:100170001027454545393C4A494931412111090774
:100180003649494936464949291E000014000000F5
:1001900040340000000814224114141414140041C7
:1001A00022140802015909063E415D594E7C121184
:1001B000127C7F494949363E414141227F414141BC
:1001C0003E7F494949417F090909013E4141517337
:1001D0007F0808087F00417F41002040413F017FA8
:1001E000081422417F404040407F021C027F7F0470
:1001F00008107F3E4141413E7F090909063E4151B9
:10020000215E7F09192946264949493203017F01A8
:10021000033F4040403F1F2040201F3F4038403FA9
:10022000631408146303047804036159494D4300BF
:100230007F4141410204081020004141417F0402F6
:10024000010204404040404000030708002054548D
:1002500078407F284444383844444428384444286B
:100260007F385454541800087E090218A4A49C78BE
:100270007F0804047800447D40002040403D007F1A
:100280001028440000417F40007C047804787C08FA
:100290000404783844444438FC18242418182424CE
:1002A00018FC7C08040408485454542404043F44B3
:1002B000243C4040207C1C2040201C3C4030403CE2
:1002C00044281028444C9090907C4464544C440042
:1002D00008364100000077000000413608000201A6
:1002E0000204023C2623263C1EA1A161123A404092
:1002F000207A38545455592155557941225454780F
:1003000042215554784020545579400C1E527212A7
:100310003955555559395454545939555454580030
:1003200000457C410002457D420001457C407D1234
:1003300011127DF0282528F07C5455450020545496
:100340007C547C0A097F4932494949323A44444441
:100350003A324A4848303A4141217A3A424020787C
:10036000009DA0A07D3D4242423D3D4040403D3C7D
:1003700024FF2424487E4943662B2FFC2F2BFF09A2
:1003800029F620C0887E0903205454794100004496
:100390007D413048484A32384040227A007A0A0A81
:1003A000727D0D19317D2629292F282629292926F4
:1003B00030484D4020380808080808080808382F39
:1003C00010C8ACBA2F102834FA00007B00000814C3
:1003D0002A142222142A14085500550055AA55AA99
:1003E00055AAFF55FF55FF000000FF00101010FF39
:1003F00000141414FF001010FF00FF1010F010F094
:10040000141414FC001414F700FF0000FF00FF1484
:1004100014F404FC141417101F10101F101F1414D0
:10042000141F00101010F0000000001F101010101A
:100430001F10101010F010000000FF10101010100E
:1004400010101010FF10000000FF140000FF00FF4C
:1004500000001F10170000FC04F4141417101714E8
:1004600014F404F40000FF00F7141414141414140A
:10047000F700F7141414171410101F101F1414147D
:10048000F4141010F010F000001F101F0000001FE7
:1004900014000000FC140000F010F01010FF10FF1A
:1004A000141414FF141010101F00000000F010FFAF
:1004B000FFFFFFFFF0F0F0F0F0FFFFFF0000000093
:1004C00000FFFF0F0F0F0F0F3844443844FC4A4A17
:1004D0004A347E02020606027E027E0263554941CC
:1004E000633844443C04407E201E2006027E020203
:1004F00099A5E7A5991C2A492A1C4C7201724C3017
:100500004A4D4D303048784830BC625A463D3E49ED
:100510004949007E0101017E2A2A2A2A2A44445F91
:10052000444440514A444040444A51400000FF0185
:1005300003E080FF000008086B6B08361236243693
:10054000060F090F060000181800000010100030F8
:1005500040FF0101001F01011E00191D1712003C80
:100560003C3C3C000000000004E010021C07123775
:1005700032292D29252B3900010310E110031D0715
:10058000062E2C292D2E2E373F0000021013800A34
:10059000298064022A040000007F2B040000009FD1
:1005A0000F0180961180FFB103012C2DB203012CA5
:1005B0002DB306012C2D012C2DB40107C003A2027E
:1005C00084C101C5C2020A00C3028A2AC4028AEE9B
:1005D000C5010E20003601C83A01050000000024C4
:1005E0000027002A000000000800020100000304A8
:1005F0000700000000000000000102040810204075
:1006000080010204081020010204081020000000EC
:1006100000250028002B0004040404040404040240
:10062000020202020203030303030300BF151124A5
:100630001FBECFEFD8E0DEBFCDBF11E0A0E0B1E03C
:10064000EAE5F0E302C005900D92A437B107D9F7AF
:1006500022E0A4E7B1E001C01D92A43DB207E1F79A
:1006600013E0C7E1D3E004C02197FE010E942018E7
:10067000C631D107C9F70E9492160C942B180C941E
:10068000000090E0FC01EB51FA4F2491FC01E7508F
:10069000FA4F3491FC01E95EF94FE491EE23C9F081
:1006A000222339F0233001F1A8F4213019F122304E
:1006B00029F1F0E0EE0FFF1FE35FF94FA591B49130
:1006C0008FB7F894EC91611126C030953E233C938E
:1006D0008FBF08952730A9F02830C9F0243049F79A
:1006E000809180008F7D03C0809180008F77809300
:1006F0008000DFCF84B58F7784BDDBCF84B58F7D5D
:10070000FBCF8091B0008F778093B000D2CF8091E3
:10071000B0008F7DF9CF3E2BDACFCF93DF9390E0FF
:10072000FC01E750FA4F2491895E994FFC018491B6
:100730008823D1F090E0880F991FFC01E552FA4F11
:10074000A591B491FC01E35FF94FC591D49161117A
:100750000EC09FB7F8948C91E22FE0958E238C9376
:100760002881E223E8839FBFDF91CF9108958FB75F
:10077000F894EC91E22BEC938FBFF6CF3FB7F8944F
:100780008091EB019091EC01A091ED01B091EE010F
:1007900026B5A89B05C02F3F19F00196A11DB11DDC
:1007A0003FBFBA2FA92F982F8827BC01CD01620F18
:1007B000711D811D911D42E0660F771F881F991FD3
:1007C0004A95D1F708958F929F92AF92BF92CF92A0
:1007D000DF92EF92FF926B017C010E94BE034B01FE
:1007E0005C01C114D104E104F104B9F00E94BE031C
:1007F000681979098A099B09683E7340810591054A
:1008000080F321E0C21AD108E108F10888EE880ED1
:1008100083E0981EA11CB11CE4CFFF90EF90DF9005
:10082000CF90BF90AF909F908F900895AF92BF925E
:10083000CF92DF92EF92FF920F931F93CF93DF93AC
:100840006C017B018B01040F151FEB015E01AE18DB
:10085000BF08C017D10759F06991D601ED91FC91FD
:100860000190F081E02DC6010995892B79F7C5012A
:10087000DF91CF911F910F91FF90EF90DF90CF907C
:10088000BF90AF900895FC01538D448D252F30E02B
:10089000842F90E0821B930B541710F0CF9608958D
:1008A00001970895FC01918D828D981761F0A28DBA
:1008B000AE0FBF2FB11D5D968C91928D9F5F9F7380
:1008C000928F90E008958FEF9FEF0895FC01918D36
:1008D000828D981731F0828DE80FF11D858D90E0A3
:1008E00008958FEF9FEF0895FC01918D228D892F40
:1008F00090E0805C9F4F821B91098F739927089528
:100900008FEE91E00E94740421E0892B09F420E02D
:10091000822F089580E090E0892B29F00E948004C6
:1009200081110C9400000895FC01A48DA80FB92F2B
:10093000B11DA35ABF4F2C91848D90E001968F7307
:100940009927848FA689B7892C93A089B1898C9126
:10095000837080648C93938D848D981306C0028875
:10096000F389E02D80818F7D80830895EF92FF923F
:100970000F931F93CF93DF93EC0181E0888F9B8DC2
:100980008C8D98131AC0E889F989808185FF15C07C
:100990009FB7F894EE89FF896083E889F98980819F
:1009A0008370806480839FBF81E090E0DF91CF916E
:1009B0001F910F91FF90EF900895F62E0B8D10E090
:1009C0000F5F1F4F0F731127E02E8C8D8E110CC0FF
:1009D0000FB607FCFACFE889F989808185FFF5CF4A
:1009E000CE010E949404F1CFEB8DEC0FFD2FF11D91
:1009F000E35AFF4FF0829FB7F8940B8FEA89FB8987
:100A000080818062CFCFCF93DF93EC01888D8823E4
:100A1000B9F0AA89BB89E889F9898C9185FD03C061
:100A2000808186FD0DC00FB607FCF7CF8C9185FF46
:100A3000F2CF808185FFEDCFCE010E949404E9CFF3
:100A4000DF91CF91089520919B01260F3327331F0B
:100A500021323105ECF42091BF01FC0190E080E0EF
:100A6000243069F082E00895A0919B012191AC01AE
:100A700045585E4FA40FB52FB11D2C9301968617D4
:100A800098F380919B01680F60939B0180E008952B
:100A900081E0089508958FEF9FEF08958FEF9FEF06
:100AA00008958091740190E0919581959109089540
:100AB000CF93DF93CB01EA01642F0E942305CE017F
:100AC000DF91CF910895CF93DF931F92CDB7DEB71B
:100AD000698361E0CE0101960E94230581E090E0E8
:100AE0000F90DF91CF910895FC01A5A1B6A18C9143
:100AF00092A589238C93A5A1B6A18C9191A5892B50
:100B00008C930895DC019396ED91FC9194979081DC
:100B100098968C91892380830895DC019396ED91BA
:100B2000FC919497908197968C91892B808308955E
:100B3000DC019196ED91FC919297908196968C9123
:100B4000892380830895DC019196ED91FC91929721
:100B5000908195968C91892B80830895CF92DF9216
:100B6000EF92FF921F93CF93DF93EC016A017B0119
:100B70008DA9811123C08F2D9927AA27BB278EBD50
:100B80000DB407FEFDCFC701AA27BB278EBD0DB44C
:100B900007FEFDCFBB27AF2D9E2D8D2D8EBD0DB435
:100BA00007FEFDCFCEBC0DB407FEFDCFDF91CF9188
:100BB0001F91FF90EF90DF90CF9008958130B1F4B6
:100BC00010E2CE01F7FE0FC00E94A305CE010E94E5
:100BD0008D05CE010E948205CC0CDD1CEE1CFF1C95
:100BE000115079F7E3CF0E949805F0CFEF8DF8A16F
:100BF0008F2D9927AA27BB278083CE010E947405D9
:100C0000EF8DF8A1C701AA27BB278083CE010E94E0
:100C10007405EF8DF8A1BB27AF2D9E2D8D2D808300
:100C2000CE010E947405EF8DF8A1C082CE01DF9144
:100C3000CF911F91FF90EF90DF90CF900C947405AF
:100C4000FF920F931F93CF93DF93EC018B018DA93C
:100C500081110EC01EBD0DB407FEFDCF0EBD0DB43B
:100C600007FEFDCFDF91CF911F910F91FF90089567
:100C70008130B1F490E1F92ECE0117FF0EC00E9431
:100C8000A305CE010E948D05CE010E948205000FB2
:100C9000111FFA94F110F0CFE5CF0E949805F1CF23
:100CA000EF8DF8A11083CE010E947405EF8DF8A19D
:100CB0000083CE01DF91CF911F910F91FF900C9493
:100CC00074050F931F93CF93DF93EC01162F8DA91B
:100CD000811109C06EBD0DB407FEFDCFDF91CF912C
:100CE0001F910F910895813099F408E0CE0117FF0C
:100CF0000CC00E94A305CE010E948D05110FCE01EC
:100D00000E948205015091F7E9CF0E949805F3CF28
:100D1000EF8DF8A16083CE01DF91CF911F910F91EC
:100D20000C947405CF93DF93EC01ED8DFE8D8081E3
:100D30009CA989238083CE010E946106ED8DFE8DE2
:100D400080819BA9892B8083DF91CF9108958F9219
:100D50009F92AF92BF92CF92DF92EF92FF920F934A
:100D60001F93CF93DF93EC0189AD9AAD680F791F84
:100D70008BAD9CAD480F591F21503109260F371FED
:100D80004901B12CA12CCB01B0E0A0E0DC019927F6
:100D90008827882A992AAA2ABB2A680181E0C81ACA
:100DA000D108C40ED51EF12CE12C70E060E0BA0130
:100DB00055274427C42AD52AE62AF72A6AE2CE0113
:100DC0000E949206B501A401CE010E94AE056BE21D
:100DD000CE010E949206B701A601CE010E94AE0587
:100DE0006CE2CE01DF91CF911F910F91FF90EF90B8
:100DF000DF90CF90BF90AF909F908F900C94920611
:100E0000FC0185A9811104C091A182A19CBD8DBD69
:100E100008951F93CF93DF93EC01162FE881F9819A
:100E20000284F385E02D0995112371F06DADCE019B
:100E30000E949206E881F9810688F789E02DCE01AB
:100E4000DF91CF911F9109946EADF1CFAF92BF9218
:100E5000CF92DF92EF92FF920F931F93CF93DF9386
:100E6000EC0177FD38C088859985681779079CF56E
:100E700057FD31C08A859B854817590764F569017C
:100E80007A015B01E881F9810284F385E02DCE01CE
:100E90000995E881F98102A4F3A5E02D01E010E0B5
:100EA00021E030E0A701B501CE010995B601CE01E0
:100EB0000E942006E881F9810688F789E02DCE019D
:100EC000DF91CF911F910F91FF90EF90DF90CF9026
:100ED000BF90AF900994DF91CF911F910F91FF9038
:100EE000EF90DF90CF90BF90AF9008958F929F9238
:100EF000AF92BF92CF92DF92EF92FF920F931F9328
:100F0000CF93DF93EC0149015701E881F98102A4F5
:100F1000F3A5E02D09959401D8010E9402186B01F8
:100F20007C01C114D104E104F10409F47DC08DA950
:100F3000811115C081E0C81AD108E108F1088FEFCE
:100F4000C816D806E806F80609F46EC0BEBC0DB493
:100F500007FEFDCFAEBC0DB407FEFDCFEBCF813059
:100F600099F581E0C81AD108E108F1088FEFC81699
:100F7000D806E806F80609F457C00B2D18E0CE0194
:100F800007FF1CC00E94A305CE010E948D05CE0163
:100F90000E948205000F115091F70A2D18E0CE0132
:100FA00007FF0FC00E94A305CE010E948D05CE0150
:100FB0000E948205000F115091F7D3CF0E9498052F
:100FC000E3CF0E949805F0CFBA1016C0CC0CDD1C00
:100FD000EE1CFF1CEF8DF8A1B08281E0C81AD10889
:100FE000E108F1088FEFC816D806E806F806E1F028
:100FF000CE010E947405F1CF81E0C81AD108E10842
:10100000F1088FEFC816D806E806F80669F0EF8DEC
:10101000F8A1B082CE010E947405EF8DF8A1A082E4
:10102000CE010E947405E8CFDF91CF911F910F91FF
:10103000FF90EF90DF90CF90BF90AF909F908F90F8
:1010400008958F929F92AF92BF92CF92DF92EF92CC
:10105000FF920F931F93CF93DF934C01EB016A0133
:10106000590137FF07C0C9010196C80FD91FB194B4
:10107000A194B108F401A085B185CA17DB070CF073
:1010800058C017FF07C0C8010196C80ED91E119598
:1010900001951109F40182859385C816D9060CF0D3
:1010A00048C0FE01EA0DFB1DAF014150510957FD3B
:1010B00040C0B601600F711F9B012150310937FDFF
:1010C00038C0D7FF03C05F01D0E0C0E0D7FE03C047
:1010D0008B01D12CC12C4A175B071CF05D01AC1AA7
:1010E000BD0A281739071CF08C010C191D09D40101
:1010F000ED91FC910284F385E02DC40109959501E1
:10110000A601BE01C4010E947607D401ED91FC91B5
:101110000688F789E02DC401DF91CF911F910F91CF
:10112000FF90EF90DF90CF90BF90AF909F908F9007
:101130000994DF91CF911F910F91FF90EF90DF9075
:10114000CF90BF90AF909F908F900895EF92FF92B5
:101150000F931F932115310529F00115110511F089
:101160000E9421081F910F91FF90EF9008958F9298
:101170009F92AF92BF92CF92DF92EF92FF920F9326
:101180001F93CF93DF935C014B016A01E90177FD67
:1011900052C0DC0118968D919C91681779070CF06C
:1011A0004AC0209709F447C037FF07C0C90101961C
:1011B000C80ED91ED195C195D109F50182859385B7
:1011C000C816D906C4F5A6014C0F5D1F9A0121501F
:1011D000310937FD30C0D7FE03C0EA01D12CC12C44
:1011E000281739071CF0EC01CC19DD09D501ED9168
:1011F000FC910284F385E02DC501099578018E01EB
:1012000021E030E0A601B401C5010E947607D501B6
:10121000ED91FC910688F789E02DC501DF91CF9112
:101220001F910F91FF90EF90DF90CF90BF90AF9004
:101230009F908F900994DF91CF911F910F91FF9014
:10124000EF90DF90CF90BF90AF909F908F900895D8
:101250008F929F92AF92BF92CF92DF92EF92FF92C6
:101260000F931F93CF93DF935C016B014A01E90158
:1012700057FD52C0DC011A968D919C914817590771
:101280000CF04AC0209709F447C037FF07C0C901D6
:101290000196C80ED91ED195C195D109F501808559
:1012A0009185C816D906C4F5A6014C0F5D1F9A0199
:1012B0002150310937FD30C0D7FE03C0EA01D12CDF
:1012C000C12C281739071CF0EC01CC19DD09D50118
:1012D000ED91FC910284F385E02DC501099578011B
:1012E00001E010E09E01A401B601C5010E9476074D
:1012F000D501ED91FC910688F789E02DC501DF91BC
:10130000CF911F910F91FF90EF90DF90CF90BF9002
:10131000AF909F908F900994DF91CF911F910F9183
:10132000FF90EF90DF90CF90BF90AF909F908F9005
:101330000895EF92FF920F931F93CF93DF9377FD62
:1013400032C0DC011896ED91FC916E177F075CF5B9
:101350002115310541F137FF07C0F90131964E0FD4
:101360005F1F319521953109DC011A96ED91FC91B1
:101370004E175F07C4F4EA01C20FD31FDE011197B5
:10138000B7FD11C057FF03C09E0150E040E0AE170B
:10139000BF071CF09F01241B350B7801890121E058
:1013A00030E00E947607DF91CF911F910F91FF905F
:1013B000EF900895EF92FF920F931F93CF93DF93D7
:1013C00057FD31C0DC011A96ED91FC914E175F0775
:1013D00054F52115310539F137FF07C0F901319670
:1013E0006E0F7F1F319521953109DC011896ED9123
:1013F000FC916E177F07BCF4EB01C20FD31FDE0117
:101400001197B7FD10C077FF03C09E0170E060E048
:10141000AE17BF071CF09F01261B370B780101E0B8
:1014200010E00E947607DF91CF911F910F91FF90FE
:10143000EF9008958F929F92AF92BF92CF92DF92DA
:10144000EF92FF920F931F93CF93DF9347012115E4
:10145000310509F44BC00115110509F447C037FFE8
:1014600007C0F90131966E0F7F1F31952195310923
:10147000DC011896AD90BC906A157B05BCF517FF92
:1014800007C0F80131964E0F5F1F119501951109A4
:10149000DC011A96ED91FC914E175F073CF56B014C
:1014A000C20ED31EE6012197D7FD20C07A01E00EBF
:1014B000F11ED7011197B7FD19C077FF03C0960140
:1014C00070E060E057FF03C0870150E040E0CA15BC
:1014D000DB051CF09501261B370BAE17BF071CF070
:1014E0008F01041B150B74010E947607DF91CF91C9
:1014F0001F910F91FF90EF90DF90CF90BF90AF9032
:101500009F908F900895EF92FF920F931F93CF9328
:10151000DF93EC0177FD22C08885998568177907EC
:10152000ECF457FD1BC08A859B8548175907B4F416
:101530007901E881F98102A4F3A5E02D01E010E032
:1015400021E030E0CE010995B701CE01DF91CF91C6
:101550001F910F91FF90EF900C942006DF91CF9197
:101560001F910F91FF90EF900895CF93DF93EC01BF
:101570000E9400078FA987FD06C0EB8DFC8D80813E
:101580009AA989238083DF91CF9108950895CF92FE
:10159000DF92EF92FF920F931F93CF93DF93182F59
:1015A000EB01C42E8DE892E00E9400078091C402F6
:1015B00087FD09C0E091A802F091A9028081909175
:1015C000BF0289238083E091AA02F091AB0280815F
:1015D0009091C10289238083612F8DE892E00E945F
:1015E0006106E091AA02F091AB0280819091C00265
:1015F000892B8083F12CE12CD12CEC14FD04FCF41C
:101600008091C2028E01823089F48091BD028823CC
:1016100069F0FE01619171918F018DE892E00E9465
:101620002006FFEFEF1AFF0AE801E7CF0F5F1F4F19
:10163000FE0164918DE892E00E946106F2CF8091F4
:10164000C40287FD09C0E091A802F091A90280813F
:101650009091BE02892B8083DF91CF911F910F91D2
:10166000FF90EF90DF90CF900895FF920F931F931C
:10167000CF93DF93BC016F5F7F4FFC01F490FA942E
:10168000FFEFFF1611F1FB0184918B010E5F1F4FDD
:101690003196D491CD2FCF774C2FB8010E94C70A35
:1016A000B8016C0F711DD7FFEACFEB012196FB014A
:1016B000649170E06F3F710511F464EF71E090E0A8
:1016C00080E00E94E303BE01DACFDF91CF911F914A
:1016D0000F91FF9008950F931F93CF93DF93EC0129
:1016E0008B010E9400078FA987FD06C0EB8DFC8D42
:1016F00080819AA989238083ED8DFE8D80819CA9AC
:101700008923808366E3CE010E946106ED8DFE8D04
:1017100080819BA9892B80838DA9F801823091F06B
:101720006081CE010E9461068FA987FD06C0EB8D06
:10173000FC8D808199A9892B8083DF91CF911F91A6
:101740000F91089588A9882359F360817181CE0192
:101750000E942006E9CFCF93DF931F92CDB7DEB76B
:10176000FC0119826370668BDC01AD5BBF4F2C916D
:1017700030E011968C9190E0623031F06330C9F026
:10178000613081F040EC498332AF21AF94AF83AF39
:10179000BE016F5F7F4FCF010E946B0B0F90DF91F7
:1017A000CF91089540EA498334AF23AF92AF81AF20
:1017B000EFCF40E6F8CFCF93DF931F92CDB7DEB7E0
:1017C000FC0119826370668BDC01AA5BBF4F8C91B0
:1017D000982F9B7FAF014C5B5F4F913031F493E0CA
:1017E000623008F091E0DA019C939F012D5B3F4F3E
:1017F000623009F44CC0633009F45BC0613069F1B8
:10180000823021F098EC843009F046C090EC998346
:101810008130D1F480E890E0938782879187808738
:10182000D9018C9190E092AF81AFDA018C9190E078
:1018300094AF83AFBE016F5F7F4FCF010E946B0BF0
:101840000F90DF91CF910895843051F580EA90E0B8
:101850009387828780E590E0E1CF823019F098EAA3
:10186000843071F590EA99838130B1F580E890E099
:101870009187808793878287D9018C9190E094AF7C
:1018800083AFDA018C9190E092AF81AFD3CF8230F9
:1018900049F08430D9F298E09983813009F4BACFC5
:1018A0008630A1F280EA90E09387828780E890E01A
:1018B000B5CF823019F098E6843011F490E6D3CF9A
:1018C0009983813099F2863051F480EA90E09187D3
:1018D000808780E590E0CECF8430B9F3F4CF80EA02
:1018E00090E09187808780E890E0C4CFFC0187A9D1
:1018F00087FD06C0A38DB48D9C9181A9892B8C9303
:1019000008950895FC016370668B8481958126811A
:101910003781613039F0633029F0918780873387D0
:1019200022870895318720879387828708952F9291
:101930003F924F925F926F927F928F929F92AF925F
:10194000BF92CF92DF92EF92FF920F931F93CF93AC
:10195000DF93CDB7DEB76A970FB6F894DEBF0FBE40
:10196000CDBF9A8F898F7A8369834A01D22E1887D7
:101970000F833701BC2CDC0159962D913C915A976D
:101980002115310509F015C118968D919C91199773
:10199000681779070CF0D7C11A968D919C9148175A
:1019A00059070CF0D0C14C2C512CB6E0CB9E600DE9
:1019B000711D11247C876B87161617060CF0C3C1A6
:1019C000EA2DF0E0FA87E98793E0EE0FFF1F9A9582
:1019D000E1F7F88BEF87CF01840F951F18161906D2
:1019E0000CF0B1C1A98DBA8D58968C91811104C0AB
:1019F000BFEABD1508F4D394A98DBA8DED91FC9181
:101A000011970284F385E02DCD010995B5E0DB9EA9
:101A1000C0011124E981FA81FC83EB83312C212C54
:101A20009C0128593F4F388F2F8B4A2D50E05E8BF9
:101A30004D8BEF89F88DE20DF31D44919E828D82CE
:101A4000D12CC12C69817A81620D731D7A8B698BCF
:101A5000842F90E09C8B8B8BE98DFA8DA081B181D6
:101A600040FF82C0F1E0BF126FC0AF126DC01C9684
:101A7000ED91FC912F813885A4014C0D5D1D698984
:101A80007A89898D9A8D0995EB89FC89F595E79579
:101A90004E2F5FEFC51AD50A6D817E818D899E8993
:101AA000680F791F7E836D8398E0C916D10481F693
:101AB000AFEF2A1A3A0AEB81FC81E40DF51DFC8395
:101AC000EB83F5E02F16310409F0B3CF2F81388571
:101AD00026153705B9F0A98DBA8DED91FC91B1E0CD
:101AE000BB1257C0AB1255C069817A816B5F7F4FC3
:101AF0000088F189E02D830128E030E0A401898D80
:101B00009A8D0995A98DBA8DED91FC911197068852
:101B1000F789E02DCD016A960FB6F894DEBF0FBEAF
:101B2000CDBFDF91CF911F910F91FF90EF90DF908C
:101B3000CF90BF90AF909F908F907F906F905F906D
:101B40004F903F902F9009941E96ED91FC91EF805D
:101B5000F88409851A8592014D815E816B817C81B3
:101B6000898D9A8D099590CF2F8138852615370557
:101B700009F48ACF31E0B31207C0A31205C01C9646
:101B8000ED91FC91930178CF1E96ED91FC9173013C
:101B9000E0CF6B857C85641975090684F785E02D97
:101BA00073010F8518899201A401898D9A8D099579
:101BB000A9CFF90134969491329745915491D91A4D
:101BC000B7E0DB9E400D511D1124F90125913491A0
:101BD0003C8B2B8BFA0125903490FA01329674904D
:101BE00031963491398B329664903196449041E02D
:101BF0004C1518F04A1508F07FC0662D062C000C15
:101C0000770B7C836B83842D042C000C990B9E83B3
:101C10008D83A98DBA8DED91FC9111970284F38586
:101C2000E02DCD010995512CD12CC12CEA2DF0E0ED
:101C3000FA87E9872B2D30E03C872B87A401440DE0
:101C4000511D47FC5A95588F4F8B69817A81660DDB
:101C5000711D67FC7A957E876D877989C71608F0B4
:101C600051CF2C2D30E04D815E81420F531FA9854D
:101C7000BA854A9FC0014B9F900D5A9F900D112429
:101C8000FC01E80DF91DF88BEF87852D612C4F893C
:101C9000588D420F531F5E8B4D8B671408F050C058
:101CA00044244394480E877041F4C1010196EB89A6
:101CB000FC89E20DF31DD4901C01D7FE19C0A98D3B
:101CC000BA8DED91FC91662D70E0B1E0BB1219C0A8
:101CD000AB1217C02D853E85620F731F0484F585F6
:101CE000E02D2F8138854D895E89898D9A8D0995E2
:101CF000DD0C6394842DD1CF1E821D821C821B8239
:101D000088CF4B815C81640F751FAB85BC856A9F52
:101D1000C0016B9F900D7A9F900D112469817A818B
:101D2000680F791F0684F785E02DEF80F884098518
:101D30001A859D014F855889898D9A8D0995D8CF2F
:101D4000570CC3948ACF6A960FB6F894DEBF0FBEC5
:101D5000CDBFDF91CF911F910F91FF90EF90DF905A
:101D6000CF90BF90AF909F908F907F906F905F903B
:101D70004F903F902F9008958F929F92AF92CF9265
:101D8000EF92FF920F931F93CF93DF93EC01262FD7
:101D9000898D9A8D009709F051C06A30D1F41D8663
:101DA0001C868D8948E0849F900111248E859F8533
:101DB000820F931F9F878E8781E090E0DF91CF9104
:101DC0001F910F91FF90EF90CF90AF909F908F90C9
:101DD00008956D3089F3CC88AD888F898823C1F050
:101DE0008C859D8536E0C39E800D911D112448850C
:101DF00059854817590764F44E855F851D861C86F2
:101E000038E0A39EC0011124840F951F9F878E8701
:101E1000EA88FB88088919894E855F856C857D85F0
:101E2000CE010E94970C2C898C859D8546E0249FCD
:101E3000800D911D11249D878C87BECF6A3069F477
:101E40001D861C86FC013896E4912D898E859F8520
:101E5000E29F800D911D1124ADCF6D3009F4ACCF00
:101E6000FC0134963491631708F4A6CF3296E491BE
:101E7000E61708F4A1CFFC01329685909490462F86
:101E8000431B342F47E0349F800C911C1124F40134
:101E9000329634913196E4913323A9F1EE2399F1EE
:101EA000CC88F4013596E491AD884F89442301F143
:101EB0000E2E000CFF0BE30FF11DCE9EA001CF9E56
:101EC000500D11246C857D85460F571F68857985D7
:101ED000641775076CF44E855F851D861C86FC01B2
:101EE0003896E491AE9E400D511D11245F874E87B8
:101EF000EA88FB88088919894E855F856C857D8510
:101F0000CE010E94970CF4013496E4912C898C85C3
:101F10009D85E29F800D911D11248DCF6F927F9240
:101F20008F929F92AF92BF92CF92DF92EF92FF92E9
:101F30000F931F93CF93DF93EC016B015A0139018B
:101F40004801E881F9810284F385E02D0995E88153
:101F5000F9810288F389E02D87019301A501B6017B
:101F6000CE010995A501480D591D41505109E8813F
:101F7000F9810288F389E02D9301B601CE0109951C
:101F8000E881F9810088F189E02D9401A501B6016D
:101F9000CE010995C60CD71CB60161507109E881C4
:101FA000F9810088F189E02D9401A501CE01099500
:101FB000E881F9810688F789E02DCE01DF91CF9184
:101FC0001F910F91FF90EF90DF90CF90BF90AF9057
:101FD0009F908F907F906F9009946F927F928F92D5
:101FE0009F92AF92BF92CF92DF92EF92FF920F93A8
:101FF0001F93CF93DF935C01EB016A014901380124
:102000008701DC01ED91FC916217730719F56416E5
:1020100075062CF0962D872D3A01C92ED82E9601E3
:10202000261937092F5F3F4F048CF58DE02DA30152
:10203000BE01C5010995DF91CF911F910F91FF90CE
:10204000EF90DF90CF90BF90AF909F908F907F9058
:102050006F9008954615570591F42617370724F019
:10206000892D4B01C22FD82F9E01281939092F5FC6
:102070003F4F068CF78DE02DA601B401DACF028424
:10208000F385E02D0995D501ED91FC910488F58942
:10209000E02D83019401A601BE01C5010995D5017A
:1020A000ED91FC910688F789E02DC501DF91CF9174
:1020B0001F910F91FF90EF90DF90CF90BF90AF9066
:1020C0009F908F907F906F900994EF92FF920F9363
:1020D0001F93DC011A960D911C911B9718962D9158
:1020E0003C911997ED91FC9100A0F1A1E02D7B01AD
:1020F00050E040E070E060E009951F910F91FF9083
:10210000EF9008954F925F926F927F928F929F927D
:10211000AF92BF92CF92DF92EF92FF920F931F93F5
:10212000CF93DF936C012B015A0139014801DC0187
:10213000ED91FC910284F385E02D0995E201640C98
:10214000751CD601ED91FC91C615D7055CF400888D
:10215000F189E02D87019401A501BE01C601099511
:102160002196EFCF0688F789E02DC601DF91CF9148
:102170001F910F91FF90EF90DF90CF90BF90AF90A5
:102180009F908F907F906F905F904F9009948F9267
:102190009F92AF92BF92CF92DF92EF92FF920F93F6
:1021A0001F93CF93DF93EC015B014A016901E88142
:1021B000F9810284F385E02D099595012C0D3D1DD3
:1021C00021503109E881F9810488F589E02D7801F1
:1021D0008401A401B501CE010995E881F981068841
:1021E000F789E02DCE01DF91CF911F910F91FF90E4
:1021F000EF90DF90CF90BF90AF909F908F90099419
:102200008F929F92AF92BF92CF92DF92EF92FF9206
:102210000F931F93CF93DF93EC015B014A01690198
:102220007801E881F9810284F385E02D0995C80CD5
:10223000D91C860101501109E881F9810488F589CA
:10224000E02D9501A401B501CE010995E881F98140
:102250000688F789E02DCE01DF91CF911F910F9174
:10226000FF90EF90DF90CF90BF90AF909F908F90B6
:102270000994EF92FF920F931F93DC01ED91FC9173
:1022800000A0F1A1E02D09951F910F91FF90EF9013
:1022900008950F931F93DC01ED91FC91068CF78D4F
:1022A000E02D09951F910F9108950F931F93DC0165
:1022B000ED91FC91048CF58DE02D09951F910F9106
:1022C0000895DC01ED91FC910084F185E02D0994E5
:1022D0002F923F924F925F926F927F928F929F9236
:1022E000AF92BF92CF92DF92EF92FF920F931F9324
:1022F000CF93DF9300D000D000D0CDB7DEB73C0144
:102300006A013E832D83FC82EB825801A41AB50A30
:10231000B7FE03C0B194A194B1088D809E80861A47
:10232000970A97FE03C09194819491088A149B04A4
:102330005CF0902F812F0D811E819D838E839C2DBB
:102340008D2D6B01692F782F0C151D055CF09D817B
:102350008E817E836D83692F782F902F812F860148
:10236000C92ED82E1601201A310A2B012D813E814B
:10237000421A530A57FE03C0519441945108710107
:1023800037FE03C03FEFE31AF30AF594E7948D811B
:102390009E81861797075CF5A1E0B0E0BA83A98318
:1023A000C016D1064CF1D301ED91FC910484F58562
:1023B000E02D2B813C81A8016D817E818A149B04D4
:1023C0001CF04D815E81B801C3010995E418F50840
:1023D000F7FE0AC02D813E8189819A81280F391F1D
:1023E0003E832D83E20CF31C0F5F1F4FD9CF2FEFDD
:1023F0003FEF3A832983D4CF26960FB6F894DEBFF9
:102400000FBECDBFDF91CF911F910F91FF90EF9045
:10241000DF90CF90BF90AF909F908F907F906F9004
:102420005F904F903F902F900895089590E080E046
:102430000895FC0101900020E9F73197AF01481B96
:10244000590BBC018FEE91E00C941604CF93DF93EF
:102450000E941912EC0182E491E00E9419128C0F83
:102460009D1FDF91CF910895CF92DF92EF92FF925F
:102470000F931F93CF93DF93CDB7DEB7A1970FB61E
:10248000F894DEBF0FBECDBF9B01AC0119A28E0137
:102490000F5D1F4F8AE0C82ED12CE12CF12CCA0110
:1024A000B901A70196010E94E017605DF8016293EF
:1024B0008F01211531054105510589F73097C9F084
:1024C000CF010E9419128C0182E491E00E9419123E
:1024D000800F911FA1960FB6F894DEBF0FBECDBF3F
:1024E000DF91CF911F910F91FF90EF90DF90CF90F0
:1024F000089510E000E0E8CF0E942618CF92DF9206
:10250000EF92FF920F931F93CF93DF93EC016A0139
:102510007B01C114D104E104F10439F4C12C48E475
:10252000D42E48EEE42EFF24F394FE01FF96C082E1
:10253000D182E282F38281E28DAF80E28EAF369665
:1025400010818FA987FD07C061E00E948D0361E0C3
:102550008FA90E94410361E088AD0E948D0361E074
:1025600088AD0E9441038DA9811182C040E052E1F3
:102570006AE770E0C416D506E606F70640F47695DD
:102580006795579547958F5F8630A1F787E0212F94
:102590002C702065982F9695922B99A38095817029
:1025A0008AA3812F90E0B0E0A0E08BA39CA3ADA311
:1025B000BEA31FB7F8948091E501811127C0E1E225
:1025C000F6E08491E3E0F6E09491E82FF0E0EE0F7E
:1025D000FF1FE552FA4FA591B491EC91E92321F444
:1025E00061E08AE00E94410361E08AE00E948D037D
:1025F0008CB580618CBD8CB580648CBD61E08DE054
:102600000E948D0361E08BE00E948D038091E501C3
:102610008F5F8093E5011FBF8EA987FD75C061E0C4
:102620000E948D0361E08EA90E94410364E670E080
:1026300080E090E00E94E30360E08EA90E944103E5
:1026400064E670E080E090E00E94E30361E08EA920
:102650000E94410368EC70E080E090E0DF91CF9150
:102660001F910F91FF90EF90DF90CF900C94E303B8
:1026700007E116E0F12C8130B9F461E08AA50E94EF
:102680008D0360E08AA50E94410361E08CA50E9451
:102690008D0360E08CA50E9441038BA587FDBCCF14
:1026A00060E00E948D03B8CFF8018491E82FF0E03C
:1026B000EE0FFF1FE35FF94F859194912F8D38A1A5
:1026C0002817390741F461E08F2D0E948D0360E0E7
:1026D0008F2D0E944103F3940F5F1F4FF4E1FF120F
:1026E000E3CF61E08EA50E948D0361E08EA50E947C
:1026F00041038FA587FD90CF61E00E948D0361E0CB
:102700008FA50E94410388CFDF91CF911F910F9138
:10271000FF90EF90DF90CF9008951F93CF93DF93BA
:1027200085ED8093BC008091770190917801A09114
:102730007901B0917A010796A11DB11D23E0B695EC
:10274000A795979587952A95D1F72091BC0024FDF0
:1027500003C01092BF0152C040917701509178019F
:102760006091790170917A01452B462B472B69F3D3
:102770000097A105B10541F02AE22A95F1F700C0C2
:102780000197A109B109E1CF80917601C1E0C09321
:102790007501882399F1D091B8001091BA00809109
:1027A000BC008A7B8093BC0060E082E10E94410310
:1027B00060E083E10E9441031092BF01C093C10118
:1027C0001092C00161E082E10E94410361E083E177
:1027D0000E9441038091B9008E7F8093B90080915F
:1027E000B9008D7F8093B90088E48093B80085E4B8
:1027F0008093BC001093BA00D093B800DF91CF91C2
:102800001F9108951F920F920FB60F9211242F93CC
:102810003F938F939F93AF93BF938091E7019091E4
:10282000E801A091E901B091EA013091E60123E0CD
:10283000230F2D3758F50196A11DB11D2093E601F8
:102840008093E7019093E801A093E901B093EA0136
:102850008091EB019091EC01A091ED01B091EE011E
:102860000196A11DB11D8093EB019093EC01A09303
:10287000ED01B093EE01BF91AF919F918F913F9188
:102880002F910F900FBE0F901F90189526E8230FE1
:102890000296A11DB11DD2CF1F920F920FB60F92BB
:1028A00011242F933F934F935F936F937F938F9355
:1028B0009F93AF93BF93EF93FF938FEE91E00E94AE
:1028C0009404FF91EF91BF91AF919F918F917F9170
:1028D0006F915F914F913F912F910F900FBE0F908D
:1028E0001F9018951F920F920FB60F9211242F93DD
:1028F0008F939F93EF93FF93E091FF01F09100027C
:102900008081E0910502F091060282FD1BC090815A
:10291000809108028F5F8F7320910902821741F026
:10292000E0910802F0E0E151FE4F958F809308029C
:10293000FF91EF919F918F912F910F900FBE0F906C
:102940001F9018958081F4CF1F920F920FB60F92AF
:1029500011242F933F934F935F936F937F938F93A4
:102960009F93AF93BF93EF93FF938091B900887FBC
:10297000803609F44AC0F0F5883209F4A5C018F58C
:10298000803109F499C0B8F4882309F4F5C088307F
:1029900009F492C0FF91EF91BF91AF919F918F91F8
:1029A0007F916F915F914F913F912F910F900FBE4B
:1029B0000F901F901895883109F486C0803251F726
:1029C0008093BE0114C0803409F49BC040F480336E
:1029D000B9F38833F9F68093BE0185ECAEC080353B
:1029E00009F483C0883509F494C0883499F60E94AC
:1029F0008D13D0CF883909F48AC038F5883729F08B
:102A000050F4883611F0803729F683E08093BF01B7
:102A10001092BD0155C0883809F479C0803919F089
:102A2000803809F0B7CF8091BD01803208F06FC0C7
:102A3000E091BD0181E08E0F8093BD018091BB00CC
:102A4000F0E0E356FE4F80833BC0803B39F0D0F48A
:102A5000803A09F477C0883A09F09CCF84E08093EB
:102A6000BF0110929C0110929B01F0E0E0E00995FB
:102A700080919B0181110FC081E080939B01109296
:102A80007B0109C0803C09F4A8CF883C09F4A5CF9C
:102A9000883B09F07FCFE0919C0181E08E0F80930D
:102AA0009C01F0E0E558FE4F80818093BB0090913F
:102AB0009C0180919B0129C08091E4018093BB001F
:102AC00085EC8093BC0066CF9091E3018091E20198
:102AD000981758F5E091E30181E08E0F8093E301B0
:102AE000F0E0EE53FE4F8081E9CFE091E30181E019
:102AF0008E0F8093E3018091BB00F0E0EE53FE4F18
:102B000080839091E3018091E2019817C8F285E8F3
:102B1000D8CFE091E30181E08E0F8093E3018091B3
:102B2000BB00F0E0EE53FE4F80838091C101811124
:102B30005ECF81E08093C00184EA8093BC00109254
:102B4000BF0128CF85EC8093BC001092BF0180911B
:102B5000BD01803230F4E091BD01F0E0E356FE4F5C
:102B600010826091BD0170E08DE991E0F0E0E0E05D
:102B700009951092BD010ECF1092BE0138CFEFEE35
:102B8000F1E01382128288EE93E0A0E0B0E084834B
:102B90009583A683B78384E091E09183808385EC5D
:102BA00090E09587848784EC90E09787868780EC17
:102BB00090E0918B808B81EC90E0938B828B82EC08
:102BC00090E0958B848B86EC90E0978B868B118EB2
:102BD000128E138E148EADE8B2E013961C921E92E4
:102BE000129720E830E015963C932E93149780EAD4
:102BF00090E017969C938E93169719963C932E937C
:102C000018971B969C938E931A9756961C925697DC
:102C10001D961C921E921C971F961C921E921E9728
:102C200081E055968C93559754968C9354972FEF3B
:102C30003FEF53963C932E93529751963C932E938D
:102C4000509757968C93579758961C9258975A9628
:102C50001C921E925997D5961C92D59788E0D696CD
:102C60008C93D6978AE0D7968C93D79789E0D8969D
:102C70008C93D897DA961C921E92D997DC961C9268
:102C80001E92DB97DD961C92DD97DE961C92DE97F6
:102C90001092CC021092CD021092CE021092CF026E
:102CA0008CE892E090969C938E935F97E0E2F6E03A
:102CB000E491F0E0EE0FFF1FE35FF94F85919491EF
:102CC0005E969C938E935D97E2E0F6E08491D396B6
:102CD0008C93D397E1E2F6E0E491F0E0EE0FFF1F72
:102CE000E35FF94F259134915C963C932E935B976B
:102CF000E3E0F6E0E491D196EC93D197E095D2969B
:102D0000EC93D297E82FE095D496EC93D497109259
:102D1000D0021092D1021092D20286E191E08D93FE
:102D20009C930895CF93DF931F92CDB7DEB778942D
:102D300084B5826084BD84B5816084BD85B58260C0
:102D400085BD85B5816085BD80916E008160809371
:102D50006E001092810080918100826080938100DA
:102D600080918100816080938100809180008160EA
:102D7000809380008091B10084608093B100809145
:102D8000B00081608093B00080917A00846080936D
:102D90007A0080917A00826080937A0080917A0034
:102DA000816080937A0080917A00806880937A00B5
:102DB0001092C100E091FF01F091000212E0108337
:102DC000E091FB01F091FC011082E091FD01F09196
:102DD000FE0180E1808310920702E0910302F091EE
:102DE000040286E08083E0910102F091020280817A
:102DF00080618083E0910102F0910202808188600D
:102E00008083E0910102F0910202808180688083DA
:102E1000E0910102F091020280818F7D808340E089
:102E200050E0BA018DE892E00E947E1280EA95E0BF
:102E30000E94350B83E995E00E94350B88E695E00A
:102E40000E94350B80EC8983BE016F5F7F4F8DE858
:102E500092E00E946B0B1093D30260E08DE892E049
:102E60000E94DB0B85E491E00E9419122FB7F894C1
:102E70006091E7017091E8018091E9019091EA0188
:102E80002FBF0E9434126FE170E08DE892E00E9443
:102E9000651020E038EF50E040E070E060E08DE841
:102EA00092E00E94260720EE37E050E040E06FE716
:102EB00070E08DE892E00E9426072FEF3FEF4FE988
:102EC00050E070E060E08DE892E00E94260720EE7E
:102ED0003FEF4FE950E06FE770E08DE892E00E942D
:102EE0002607E12C88EFF82E08E210E02EE130E012
:102EF00044E150E06AE070E08DE892E00E94210831
:102F00008EE491E00E9419122FB7F8946091E701C6
:102F10007091E8018091E9019091EA012FBF0E9430
:102F2000341268EC70E080E090E00E94E30361E01E
:102F30008DE892E00E9409078BE591E00E9426123D
:102F400068EC70E080E090E00E94E30360E08DE8D0
:102F500092E00E94090761E08DE892E00E94DB0B9D
:102F600090EEE92E97E0F92E0AE010E024E130E03F
:102F700050E040E070E060E08DE892E00E942108BF
:102F800085E691E00E94261268EC70E080E090E017
:102F90000E94E30340E070E060E088E20E94C70A1C
:102FA0008CE691E00E94261200E010E00115110568
:102FB000E9F30E9480048823C9F30E940000F6CF41
:102FC000A1E21A2EAA1BBB1BFD010DC0AA1FBB1F2D
:102FD000EE1FFF1FA217B307E407F50720F0A21B9F
:102FE000B30BE40BF50B661F771F881F991F1A940C
:102FF00069F760957095809590959B01AC01BD0136
:10300000CF0108950E940A18332312F48A1B9B0BE8
:103010000C941B18A29FB001B39FC001A39F700D19
:10302000811D1124911DB29F700D811D1124911DD0
:1030300008950E940A18B7FF0895821B930B089504
:10304000EE0FFF1F0590F491E02D099481E090E0D0
:0A305000F8940C942B18F894FFCFAD
:10305A0000000000B6041604430403057404520475
:10306A00660400000000BC0E16041612151226078C
:10307A00B50A830A1A0A9909DA096811760CDB0B70
:10308A000907B7082809A6086510ED0F8E0F7E12EA
:10309A00A7060D0A00494E4954206D733D00444964
:1030AA0042554A41444F206D733D00494E564552A0
:1030BA005449444F00524F5441444F0041504147F4
:0430CA0041444F002E
:00000001FF
