:100000000C9459000C9481000C9481000C94810094
:100010000C9481000C9481000C9481000C9481005C
:100020000C9481000C9481000C9481000C9481004C
:100030000C9481000C9481000C9481000C9481003C
:100040000C94BB0F0C9481000C942B100C94051095
:100050000C9481000C9481000C9481000C9481001C
:100060000C945D100C948100000000002500280015
:100070002B00040404040404040402020202020229
:10008000030303030303010204081020408001025C
:1000900004081020010204081020000000080002DB
:1000A00001000003040700000000000000007C11B4
:1000B000BA1411241FBECFEFD8E0DEBFCDBF11E0D0
:1000C000A0E0B1E0EAE2F1E302C005900D92AA3CA3
:1000D000B107D9F723E0AAECB1E001C01D92A43723
:1000E000B207E1F710E0C8E5D0E004C02197FE01B7
:1000F0000E944E17C735D107C9F70E94C3110C944F
:1001000088180C94000090E0FC01E656FF4F249103
:10011000FC01EA57FF4F3491FC01EE58FF4FE49188
:10012000EE23C9F0222339F0233001F1A8F4213065
:1001300019F1223029F1F0E0EE0FFF1FE859FF4FCF
:10014000A591B4918FB7F894EC91611126C03095C8
:100150003E233C938FBF08952730A9F02830C9F083
:10016000243049F7809180008F7D03C0809180000A
:100170008F7780938000DFCF84B58F7784BDDBCF0E
:1001800084B58F7DFBCF8091B0008F778093B000D6
:10019000D2CF8091B0008F7DF9CF3E2BDACF823065
:1001A000910538F0880F991F880F991F05970197BF
:1001B000F1F708953FB7F8948091390290913A028F
:1001C000A0913B02B0913C0226B5A89B05C02F3FF1
:1001D00019F00196A11DB11D3FBFBA2FA92F982F6D
:1001E0008827BC01CD01620F711D811D911D42E068
:1001F000660F771F881F991F4A95D1F708958F9230
:100200009F92AF92BF92CF92DF92EF92FF924B01FB
:100210005C010E94DA006B017C010E94DA006C191B
:100220007D098E099F09683E734081059105A8F3F9
:1002300021E0821A9108A108B10888EEC80E83E077
:10024000D81EE11CF11C81149104A104B10429F70A
:10025000FF90EF90DF90CF90BF90AF909F908F90E6
:10026000089508950895AF92BF92CF92DF92EF92D2
:10027000FF920F931F93CF93DF936C017B018B0150
:10028000040F151FEB015E01AE18BF08C017D107A0
:1002900059F06991D601ED91FC910190F081E02D2A
:1002A000C6010995892B79F7C501DF91CF911F917F
:1002B0000F91FF90EF90DF90CF90BF90AF90089597
:1002C000FC01538D448D252F30E0842F90E0821B5C
:1002D000930B541710F0CF96089501970895FC01E1
:1002E000918D828D981761F0A28DAE0FBF2FB11D39
:1002F0005D968C91928D9F5F9F73928F90E0089591
:100300008FEF9FEF0895FC01918D828D981731F04A
:10031000828DE80FF11D858D90E008958FEF9FEF9E
:100320000895FC01918D228D892F90E0805C9F4F74
:10033000821B91098F73992708958DE892E00E949E
:10034000910121E0892B09F420E0822F089580E0BB
:1003500090E0892B29F00E949D0181110C940000EE
:100360000895FC01A48DA80FB92FB11DA35ABF4F4A
:100370002C91848D90E001968F739927848FA689A4
:10038000B7892C93A089B1898C91837080648C93F8
:10039000938D848D981306C00288F389E02D8081A7
:1003A0008F7D80830895EF92FF920F931F93CF93D9
:1003B000DF93EC0181E0888F9B8D8C8D98131AC0A0
:1003C000E889F989808185FF15C09FB7F894EE8987
:1003D000FF896083E889F9898081837080648083E4
:1003E0009FBF81E090E0DF91CF911F910F91FF902F
:1003F000EF900895F62E0B8D10E00F5F1F4F0F73D7
:100400001127E02E8C8D8E110CC00FB607FCFACF91
:10041000E889F989808185FFF5CFCE010E94B1017D
:10042000F1CFEB8DEC0FFD2FF11DE35AFF4FF08262
:100430009FB7F8940B8FEA89FB8980818062CFCFC8
:10044000CF93DF93EC01888D8823B9F0AA89BB890B
:10045000E889F9898C9185FD03C0808186FD0DC0F6
:100460000FB607FCF7CF8C9185FFF2CF808185FF17
:10047000EDCFCE010E94B101E9CFDF91CF91089578
:1004800020910B02260F3327331F21323105ECF464
:1004900020916302FC0190E080E0243069F082E06A
:1004A0000895A0910B022191AC0145515E4FA40F1C
:1004B000B52FB11D2C930196861798F380910B02EE
:1004C000680F60930B0280E0089581E00895109218
:1004D000630281E08093620210923D0261E082E15A
:1004E0000E94830061E083E10E948300E9EBF0E079
:1004F00080818E7F808380818D7F808388E480935C
:10050000B80085E48093BC000895CF93DF9391E019
:100510009093EA018823B9F0C091B800D091BA0055
:100520008091BC008A7B8093BC0060E082E10E94E5
:10053000830060E083E10E9483000E946702D09301
:10054000BA00C093B800DF91CF9108958F929F9227
:10055000AF92BF92CF92DF92EF92FF920F931F93D1
:10056000CF93DF93D0918C02D13208F0D7C0182FEF
:10057000C0918B020E94DA006B017C0180916302C2
:1005800081116BC082E080936302109362028FEF4F
:100590008093610210926002D0935F02ABE6B2E0FA
:1005A000EFE3F2E080E0D81391C010923E02809118
:1005B0003E02CC0FC82BC0933E0280913D02813099
:1005C00009F088C010923D020E94DA006B017C01A4
:1005D00080913E028093BB008091650290916602FB
:1005E000A0916702B0916802892B8A2B8B2BA1F016
:1005F0000E94DA0000916502109166022091670264
:10060000309168026C197D098E099F09061717073A
:100610002807390708F442C08091BC0083FDD8CF79
:1006200085EC8093BC000E94DA006B017C01809114
:100630006302823009F450C0809161028F3F09F457
:100640006FC080916102803209F46CC080916102B8
:10065000803309F469C084E026C0809165029091DE
:100660006602A0916702B0916802892B8A2B8B2BBE
:1006700009F484CF0E94DA008090650290906602AF
:10068000A0906702B09068026C197D098E099F09DD
:1006900086169706A806B90608F070CF8091640206
:1006A0000E94850285E010926A0210928C021092DC
:1006B0006902DF91CF911F910F91FF90EF90DF9032
:1006C000CF90BF90AF909F908F9008959D91919300
:1006D0008F5F69CF85EEA5CF80916502909166020C
:1006E000A0916702B0916802892B8A2B8B2B09F4A9
:1006F0009ECF0E94DA00009165021091660220915F
:100700006702309168026C197D098E099F090617EE
:1007100017072807390708F08ACFC0CF81E0C3CF79
:1007200080E0C1CF82E0BFCF83E0BDCF0895E091EC
:10073000330280913202E81730F4F0E0E653FE4FC6
:10074000808190E008958FEF9FEF0895909133029C
:10075000809132022FEF3FEF981748F4E92FF0E035
:10076000E653FE4F208130E09F5F90933302C90132
:1007700008958091320290913302891B990B08955C
:10078000CF92DF92EF92FF920F931F93CF93DF935D
:100790007C01CB018A0120916902222389F0EB01BF
:1007A0006B01C40ED51ECC15DD0569F06991D7012A
:1007B000ED91FC910190F081E02DC7010995F3CFF7
:1007C000642F0E944002C801DF91CF911F910F91C9
:1007D000FF90EF90DF90CF900895CF93DF931F921B
:1007E000CDB7DEB76983209169022223F9F0209109
:1007F0008C02203258F021E030E0FC013383228368
:1008000090E080E00F90DF91CF91089580916A028F
:10081000E82FF0E0E559FD4F998190838F5F809339
:100820006A0280938C0281E090E0ECCF61E0CE011F
:1008300001960E944002F7CF90E080E00895FC010D
:1008400083858F3F19F061E00C9483000895FC01CB
:1008500080819181892B39F0A281B3819C9111967D
:100860008C919CBD8DBD83858F3F19F060E00C9409
:1008700083000895BF92CF92DF92EF92FF920F9381
:100880001F93CF93DF93EC0188819981892B81F0AD
:100890006EBD0DB407FEFDCF0EB5802FDF91CF9159
:1008A0001F910F91FF90EF90DF90CF90BF90089530
:1008B0008885998511E0892B09F010E8BB24B39451
:1008C000862F812309F0B12CF62E2C813D814E819B
:1008D0005F8160E271EA87E090E00E942C17E22ECF
:1008E00000E0C22ED12CEE2019F0C6010E94CF00EC
:1008F0008A85982F977F09F044C08D858F3F89F0B6
:100900009F2D912381E009F480E08B1551F0EF8554
:10091000F8898F89992379F19081892B8083BB2471
:10092000B394E989FA898081998D892B8083EE209F
:1009300019F0C6010E94CF008E858F3F39F0EB89F8
:10094000FC898081988D892309F0012BE989FA8936
:100950009081898D80958923808388859985892BCD
:1009600009F067C0110F1111BECF8E858F3F09F0BE
:1009700094CF0F2D92CF9081809589238083B12CC5
:10098000D0CF8C3099F58D858F3F49F0EF85F88970
:100990008F899F2D912331F19081892B8083E98963
:1009A000FA899081898D809589238083EE2019F0C2
:1009B000C6010E94CF00E989FA898081998D892B2F
:1009C0008083EE2019F0C6010E94CF008E858F3FF4
:1009D00021F2EB89FC898081988D892309F4BDCFB0
:1009E000012BBBCF908180958923D8CFE989FA89E3
:1009F0008081998D892B8083EE2019F0C6010E9499
:100A0000CF008D858F3F49F0EF85F8898F899F2D25
:100A1000912359F09081892B8083E989FA8990810B
:100A2000898D809589238083D1CF9081809589237A
:100A3000F3CF169598CF8F929F92AF92BF92CF929D
:100A4000DF92EF92FF920F931F93CF93DF937C017E
:100A50004B016A01B22EA32E0E942704E401C80CA8
:100A6000D91CCC15DD0569F4CB2DDA2D0C0F1D1F1B
:100A7000C017D10759F06FEFC7010E943A0489935C
:100A8000F7CF6991C7010E943A04EBCFC7010E94DA
:100A90001F0481E0DF91CF911F910F91FF90EF90A4
:100AA000DF90CF90BF90AF909F908F9008958F92DE
:100AB0009F92AF92BF92CF92DF92EF92FF920F93ED
:100AC0001F93CF93DF937C01B62EA72E6A014901B5
:100AD0000E942704E401080D191DC017D10761F415
:100AE000CB2DDA2DCC0EDD1ECC15DD0551F0699134
:100AF000C7010E943A04F8CF6991C7010E943A04E5
:100B0000ECCFC7010E941F0481E0DF91CF911F91BC
:100B10000F91FF90EF90DF90CF90BF90AF909F909C
:100B20008F9008951F93CF93DF93EA01122FDC017A
:100B300011968D919C91DC01ED91FC910280F381E5
:100B4000E02D0995C817D90729F4812F0E94A60224
:100B500091E0811190E0892FDF91CF911F9108954D
:100B6000CF93DF93EC018B818823A1F0888191E002
:100B70009093690280938B0210926A0210928C0209
:100B800081E00E94A60291E0811190E0892FDF911F
:100B9000CF910895109233021092320210926A029D
:100BA00010928C020E94670281E391E090932F02E1
:100BB00080932E0282E391E0909331028093300281
:100BC00081E08B83CE010E94B005982F8111CECF9A
:100BD000DDCFAF92BF92CF92DF92EF92FF920F9351
:100BE0001F93CF93DF9300D0CDB7DEB7DC01211187
:100BF00003C01A962C911A97253008F043C05196DD
:100C00004D935D936D937C93549790E080E0E22E3A
:100C1000F12C8E159F05B4F41C962C911C97211174
:100C20000AC0FD01E80FF91F4587452F562F672F92
:100C300077270196EECFF701E81BF90BEA0FFB1FB0
:100C40004487F3CF6D018DE0C80ED11C18969C919E
:100C5000189719968C91199799838A83AD90BC90B7
:100C60001197A114B10409F441C01B960C9110E036
:100C700098012E0D3F1DD50114968D919C918217E0
:100C8000930710F480E016C0F501818192812081E4
:100C900031E03093690220938B0210926A02109225
:100CA0008C020115110599F421E0A701B601C501D7
:100CB0000E9492050F900F90DF91CF911F910F919D
:100CC000FF90EF90DF90CF90BF90AF900895DC0140
:100CD000ED91FC910280F381E02DA801BE016F5FD0
:100CE0007F4F09950817190769F6DECF1296ED9127
:100CF000FC911397309749F116962D913C911797D7
:100D00001B960C9110E02330310571F48E7F89839E
:100D10009A830F5F1F4F9E012F5F3F4FA701B601C0
:100D2000CF010E945705C6CF2115310519F49F77D1
:100D30009983F1CF2230310511F49068F9CF213039
:100D4000310549F79F779064F3CF1496ED91FC91AC
:100D50001597309709F496CF8085882309F492CFB0
:100D6000A680B780A114B10409F48CCF8701960145
:100D70001B964C91BE016F5F7F4F81859285F50177
:100D8000099598CF08950895FC0101900020E9F796
:100D90003197AF01481B590BBC018DE892E00C94D0
:100DA00033018F929F92AF92BF920F931F93CF9375
:100DB000DF93CDB7DEB7A1970FB6F894DEBF0FBEB5
:100DC000CDBF19A2423008F44AE08E010F5D1F4FDB
:100DD000842E912CB12CA12CA50194010E942C17DA
:100DE000E62FB901CA01EA30F4F4E05DD801EE93D0
:100DF0008D01232B242B252B79F790E080E0109791
:100E000019F0CD010E94C406A1960FB6F894DEBF7A
:100E10000FBECDBFDF91CF911F910F91BF90AF90CB
:100E20009F908F900895E95CE1CF4F925F926F920F
:100E30007F928F929F92AF92BF92CF92DF92EF926A
:100E4000FF920F931F93CF936B017C01742EAC0123
:100E50009B010E942717882399F08AE591E0CF91A2
:100E60001F910F91FF90EF90DF90CF90BF90AF90C8
:100E70009F908F907F906F905F904F900C94C406DE
:100E800046015701E894B7F82FEF3FEF4FE75FE7D0
:100E9000C501B4010E94271781110DC02FEF3FEF4C
:100EA0004FE75FE7C501B4010E945D1518161CF4F9
:100EB0008EE591E0D4CF2FEF3FEF4FE75FE4C7011E
:100EC000B6010E94B51618161CF482E691E0C7CF51
:100ED0002FEF3FEF4FE75FECC701B6010E945D15B2
:100EE00087FDF3CF20E030E0A901C701B6010E94E1
:100EF0005D1510E000E087FF0AC06DE28DE892E02A
:100F00000E94D3018C01F7FAF094F7F8F094C0E056
:100F100060E070E080E09FE37C1641F020E030E08C
:100F200040E251E40E946215CF5FF6CFA70196011F
:100F30000E94F1142B013C010E94D4154B015C016D
:100F40004AE00E94D1067C01E00EF11ECC23C1F1E3
:100F5000C501B4010E9403169B01AC01C301B2019B
:100F60000E94F0144B015C016EE28DE892E00E9459
:100F7000D301E80EF91EC15018F120E030E040E244
:100F800051E4C501B4010E94BA162B013C010E9434
:100F9000D4154B01B12CA12C4AE0C501B4010E942B
:100FA000D106E80EF91EC501B4010E9403169B018B
:100FB000AC01C301B2010E94F0144B015C01DBCF14
:100FC000C701CF911F910F91FF90EF90DF90CF90CD
:100FD000BF90AF909F908F907F906F905F904F9059
:100FE00008952F923F924F925F926F927F928F92CD
:100FF0009F92AF92BF92CF92DF92EF92FF920F93A8
:101000001F93CF93DF9300D000D0CDB7DEB7DC01C4
:101010004B01042F18969C91189719968C9119974B
:1010200099838A832D903C9011972114310409F4FF
:101030003AC11B964C9150E0D10114968D919C9130
:1010400084179507C8F4D12C8D2D0F900F900F9019
:101050000F90DF91CF911F910F91FF90EF90DF9054
:10106000CF90BF90AF909F908F907F906F905F9048
:101070004F903F902F900895F101808191E09093DF
:10108000690280938B0210926A0210928C0220E017
:10109000BE016F5F7F4FC1010E949205D82E882349
:1010A00091F2802F90E09C838B83B12CA12C01E0E6
:1010B000AB81BC81AA16BB0638F6F101848195810B
:1010C0007D01EA18FB088E159F0508F47C01D1010B
:1010D000CC900E94DA002B013C01809163028111C7
:1010E00072C01E2D113208F010E20093630221E05D
:1010F0008B819C818E199F09A816B90608F420E0FF
:1011000020936202BFEFB0936102109260028FEFF2
:10111000810F80935F0200933E0280913E02CC0CCF
:10112000C82AC0923E0280913D02813009F092C0EF
:1011300010923D020E94DA002B013C0180913E0298
:101140008093BB008091650290916602A091670236
:10115000B0916802892B8A2B8B2BA1F00E94DA00B8
:1011600020916502309166024091670250916802B9
:10117000641975098609970926173707480759071B
:1011800008F442C08091BC0083FDD8CFE5ECE09329
:10119000BC000E94DA002B013C0180916302813087
:1011A00009F45CC080916002811710F41091600214
:1011B000AFE3B2E0EAECF1E080E0811751F19D91FC
:1011C00091938F5FFACF8091650290916602A09112
:1011D0006702B0916802892B8A2B8B2B09F47DCF93
:1011E0000E94DA0020916502309166024091670208
:1011F00050916802641975098609970926173707FF
:101200004807590708F069CF809164020E9485025F
:1012100010E010923302109332021E151F0409F0E1
:1012200012CF34016A0C7B1C2301C2018619970975
:101230008E159F05A8F5D10111968D919C91DC0129
:10124000ED91FC910284F385E02D0995F2018193E3
:101250002F01EBCFF5EEF093BC009BCF80916502A0
:1012600090916602A0916702B0916802892B8A2B47
:101270008B2B09F492CF0E94DA0020916502309105
:1012800066024091670250916802641975098609E7
:101290009709261737074807590708F07ECFB4CFBC
:1012A000AE0CBF1C05CF1296ED91FC9113973097B1
:1012B00049F116962D913C91179710E01B964C9191
:1012C00050E02330310571F4816089839A834F5F48
:1012D0005F4F9401BE016F5F7F4FCF010E941B05DE
:1012E000D82EB2CE2115310519F490689983F1CF2B
:1012F0002230310511F49F77F9CF2130310549F7BC
:10130000906CF4CF1496ED91FC911597309709F4F9
:101310009ACE8085882309F496CEE480F580E11486
:10132000F10409F490CE10E09B011B964C91BE0194
:101330006F5F7F4F81859285F7010995D1CFCF935C
:10134000DF93EC01BC01635F7F4F4A850E94F10788
:10135000882301F14A8550E030E020E060E070E051
:10136000CB0124173507CCF4982F872F762F6627CB
:10137000EC85E1110AC0FA01E21BF30BEC0FFD1F33
:10138000E4856E2B2F5F3F4FECCFFE01E20FF31F82
:10139000E585F7CF6FEF7FEFCB01DF91CF91089518
:1013A0008F929F92AF92BF92CF92DF92EF92FF9275
:1013B0000F931F93CF93DF93EC014A015B01888168
:1013C00099810E949F092A8101E010E002C0000F6C
:1013D000111F2A95E2F701501109012E000C220B72
:1013E000330BAB81680179010A2E04C0CC0CDD1CE3
:1013F000EE1CFF1C0A94D2F7C094D094E094F094B1
:10140000C622D722E822F922E881F981B901A80190
:10141000482159216A217B2104C0440F551F661FB2
:10142000771FAA95D2F74C295D296E297F2922853D
:10143000CF01DF91CF911F910F91FF90EF90DF903F
:10144000CF90BF90AF909F908F900C94E9050F9331
:101450001F93CF93DF93EC01888199810E949F09AC
:10146000AB01BC012A8181E090E002C0880F991F86
:101470002A95E2F70197092E000CAA0BBB0B2B81D2
:1014800004C076956795579547952A95D2F78C01B4
:101490009D010423152326233723C901B801DF91B9
:1014A000CF911F910F910895AF92BF92CF92DF928B
:1014B000EF92FF920F931F93CF93DF93CDB7DEB7D9
:1014C000EC970FB6F894DEBF0FBECDBF8C01FC01C8
:1014D000868D978D1FA218A619A61AA69F8B8E8B94
:1014E000198E188EFF24F394F9A28BE390E09F8F5E
:1014F0008E8F1AA28EE088A34EE0BE01655D7F4FFD
:10150000CE0146960E94F1078BA59CA598278927B6
:101510009827F80195A784A78DA59EA598278927C8
:10152000982797A786A78FA598A9982789279827EE
:1015300091AB80AB69A97AA976276727762773AB29
:1015400062AB8BA99CA998278927982795AB84AB78
:101550008DA99EA998278927982797AB86AB8FA935
:1015600098AD98278927982791AF80AF072E000C58
:10157000880B990B0E94051620E030E04AEA53E4FC
:101580000E94621528EB3EE142E152E40E94F11410
:10159000F8016283738384839583868D978D1A8A7D
:1015A0001B8A1C8A1D8A9A8389831C821B82FC8663
:1015B0008CE190E09A8789871D86FB86CE01019693
:1015C0005C019AAF89AF82E08BAF83E08CAFCE0134
:1015D000C9960E94270AC12CD12CE12CE5E4FE2EED
:1015E00063307105E1F06230710599F06130710589
:1015F00009F4D6C0C12CD12CF0E8EF2EFFE3FF2E6A
:10160000672B69F4C12CD12C50E8E52E56E4F52E59
:1016100006C0C12CD12C70E8E72E75E4F72EF80136
:1016200064A575A5072E000C880B990B0E94051662
:10163000A70196010E946215F8016683778380876F
:10164000918766A577A5072E000C880B990B0E9441
:101650000516A70196010E946215F801628773873B
:101660008487958760A971A9072E000C880B990BB8
:101670000E940516A70196010E946215F80166876F
:101680007787808B918B868D978D1A8A1B8A1C8A0F
:101690001D8A9A8389831C821B8281E08C872BE1BF
:1016A00030E03A8729871D868B87BAAEA9AE82E0E3
:1016B0008BAF83E08CAFCE01C9960E94270AC12C64
:1016C000D12C33E0E32E33E4F32E6115710519F1CB
:1016D000C12CD12C23E8E22E22E4F22E61307105D8
:1016E000D1F093E3C92EDC2C93E0E92E92E4F92E9D
:1016F0006230710581F0C12CD12C40E8E42E4FE31B
:10170000F42E6330710539F483E3C82EDC2C83E8B2
:10171000E82E81E4F82EF80164A975A9072E000CC3
:10172000880B990B0E940516A70196010E9462156D
:10173000F801628B738B848B958B66A977A9072E32
:10174000000C880B990B0E940516A70196010E94B8
:101750006215F801668B778B808F918F60AD71ADCC
:10176000072E000C880B990B0E940516A701960105
:101770000E946215F801628F738F848F958FEC96AB
:101780000FB6F894DEBF0FBECDBFDF91CF911F9192
:101790000F91FF90EF90DF90CF90BF90AF900895A2
:1017A000C12CD12CE12C66E4F62E39CFCF92DF92FA
:1017B000EF92FF920F931F93CF93DF938C01EB0176
:1017C000DC0114968D919C910E94540AF8010481C9
:1017D00015818FB7F894C0903502D0903602E09012
:1017E0003702F09038028FBFFE01349680E2DF01AD
:1017F0001D928A95E9F741E050E060E070E048838F
:1018000059836A837B83F80186A197A1B0E0A0E0A9
:101810008C839D83AE83BF83488759876A877B8784
:10182000C88AD98AEA8AFB8A2AE038EE4CE151E478
:1018300066817781808591850E94BA166C8B7D8B3D
:101840008E8B9F8B2AE038EE4CE151E4D8011A963A
:101850006D917D918D919C911D970E94BA16688F14
:10186000798F8A8F9B8F2AE038EE4CE151E4F801A2
:1018700066857785808991890E94BA166C8F7D8FE5
:101880008E8F9F8F81E0DF91CF911F910F91FF90FD
:10189000EF90DF90CF9008950F931F93CF93DF9336
:1018A0008C01EB01DC0114968D919C910E94540AED
:1018B000F801048115818FB7F89440913502509159
:1018C000360260913702709138028FBFFE01349664
:1018D00080E2DF011D928A95E9F781E090E0A0E0C7
:1018E000B0E088839983AA83BB83F80180A591A582
:1018F000B0E0A0E08C839D83AE83BF8384E090E062
:10190000A0E0B0E088879987AA87BB87488B598B6E
:101910006A8B7B8B25E33AEF4EE85CE3628973893F
:10192000848995890E94BA166C8B7D8B8E8B9F8BD8
:1019300025E33AEF4EE85CE3D80156966D917D9130
:101940008D919C9159970E94BA16688F798F8A8FD2
:101950009B8F25E33AEF4EE85CE3F801628D738DCF
:10196000848D958D0E94BA166C8F7D8F8E8F9F8F80
:1019700081E0DF91CF911F910F9108950F931F93F5
:10198000CF93DF938C01EB01DC0114968D919C9138
:101990000E94540AD8011496ED91FC918FB7F894E7
:1019A00040913502509136026091370270913802B1
:1019B0008FBF9E012C5F3F4F80E2D9011D928A9517
:1019C000E9F784E290E0A0E0B0E088839983AA83FD
:1019D000BB8382A593A5B0E0A0E08C839D83AE83FA
:1019E000BF838DE090E0A0E0B0E088879987AA8768
:1019F000BB87488B598B6A8B7B8B82819381A481B7
:101A0000B5818C8B9D8BAE8BBF8B81E0DF91CF91AD
:101A10001F910F9108950C94F0170C94F0170C94EB
:101A2000F0179F92AF92BF92CF92DF92EF92FF9208
:101A30000F931F93CF93DF93CDB7DEB7AE970FB65B
:101A4000F894DEBF0FBECDBF8C01DC0197965C938E
:101A50004E939697CA01019699969C938E93989768
:101A60004E5F5F4F9B965C934E939A975E962D9137
:101A70003C911FA218A619A61AA63F8B2E8B198E71
:101A8000188E81E089A34BE650E05F8F4E8F1AA23B
:101A900088A31A8A1B8A1C8A1D8A3A8329831C827E
:101AA0001B828C8728E630E03A8729871D868B8742
:101AB0005E01B6E1AB0EB11CBCA6ABA68DA787E05C
:101AC0008EA741E050E060E070E0CE018B960E946E
:101AD000D009CE018B960E94270A613071058105DD
:101AE000910539F461E070E080E090E00E94FF0031
:101AF000F0CF64E670E080E090E00E94FF0020E01C
:101B000047E050E060E070E0FE0131966F01CF01E8
:101B10000E94E90564E670E080E090E00E94FF002A
:101B2000D8015E968D919C911A8A1B8A1C8A1D8A07
:101B30009A8389831C821B82FF24F394FC8689E1AB
:101B400090E09A8789871D86FB8620E040E050E080
:101B5000BA01C6010E94E905F801868D978D1A8A9F
:101B60001B8A1C8A1D8A9A8389831C821B82FC869D
:101B70008AE190E09A8789871D86FB86DF8ACE8A74
:101B800083E0E82EE88E198E40E050E0BA01C501EE
:101B90000E94D009D8015E968D919C911A8A1B8A69
:101BA0001C8A1D8A9A8389831C821B82FC868BE196
:101BB00090E09A8789871D86FB86DF8ACE8A92E02D
:101BC000992E988EE98E41E050E060E070E0C5010A
:101BD0000E94D009F801868D978D1A8A1B8A1C8A6B
:101BE0001D8A9A8389831C821B82FC868CE190E08B
:101BF0009A8789871D86FB86DF8ACE8A988EE98E32
:101C000040E050E0BA01C5010E94D009D8015E96BB
:101C10008D919C911A8A1B8A1C8A1D8A9A838983BA
:101C20001C821B82FC868BE690E09A8789871D8642
:101C3000FB8620E041E050E060E070E0C6010E94D9
:101C4000E90564E670E080E090E00E94FF00F801A2
:101C500080A191A1009739F0DC01ED91FC91028007
:101C6000F381E02D0995F80182A193A1009739F045
:101C7000DC01ED91FC910280F381E02D0995F801E2
:101C800084A195A1009739F0DC01ED91FC910280CF
:101C9000F381E02D099586E090E00E945417FC0145
:101CA00086E291E09183808380E596E0938382834E
:101CB00015830483D8019196FC93EE93909786E068
:101CC00090E00E945417FC0188E191E091838083A9
:101CD00081E596E09383828315830483D8019396EC
:101CE000FC93EE93929786E090E00E945417FC01DB
:101CF0008AE091E09183808382E596E093838283FA
:101D000015830483D8019596FC93EE93949781E014
:101D1000AE960FB6F894DEBF0FBECDBFDF91CF9168
:101D20001F910F91FF90EF90DF90CF90BF90AF90F9
:101D30009F90089585ED8093BC00809165029091FD
:101D40006602A0916702B09168020796A11DB11DBD
:101D500023E0B695A795979587952A95D1F7209179
:101D6000BC0024FD03C010926302089540916502F7
:101D7000509166026091670270916802452B462B74
:101D8000472B69F30097A105B10541F02AE22A9596
:101D9000F1F700C00197A109B109E1CF8091640278
:101DA0000C9485020F931F93CF93DF938C01EB016B
:101DB00088E2FB0111928A95E9F74BE050E066E674
:101DC00071E0CE010E9479181B8681E090E0A0E0CE
:101DD000B0E08C879D87AE87BF87F80182819381B1
:101DE000092E000CAA0BBB0B888B998BAA8BBB8B83
:101DF0008DE090E0A0E0B0E08C8B9D8BAE8BBF8B34
:101E00001CA21DA21EA21FA280E090E0A0E2B2ECE4
:101E10008C8F9D8FAE8FBF8F80E090E0A2EDB2E4FB
:101E2000888F998FAA8FBB8F84E09DEAA0E4BBE3E3
:101E300088A399A3AAA3BBA3DF91CF911F910F9170
:101E400008950F931F93CF93DF938C01EB0188E2EA
:101E5000FB0111928A95E9F74BE050E060E771E0F1
:101E6000CE010E9479181B8641E050E060E070E0EE
:101E70004C875D876E877F87F80182819381092E69
:101E8000000CAA0BBB0B888B998BAA8BBB8B4C8B42
:101E90005D8B6E8B7F8B1CA21DA21EA21FA28AE0EF
:101EA00098EEACE1B3EC8C8F9D8FAE8FBF8F8AE044
:101EB00098EEACE1B3E4888F998FAA8FBB8F83E251
:101EC0009BEDA9E7BDE388A399A3AAA3BBA3DF91D8
:101ED000CF911F910F9108950F931F93CF93DF938D
:101EE0008C01EB0188E2FB0111928A95E9F74BE046
:101EF00050E06AE771E0CE010E9479181B8681E00C
:101F000090E0A0E0B0E08C879D87AE87BF87F801A6
:101F100082819381092E000CAA0BBB0B888B998BB5
:101F2000AA8BBB8B84E090E0A0E0B0E08C8B9D8B13
:101F3000AE8BBF8B1CA21DA21EA21FA287ED93EA2F
:101F4000ABE0B2EC8C8F9D8FAE8FBF8F87ED93EAA5
:101F5000ABE0B2E4888F998FAA8FBB8F8AE99BEAA6
:101F6000ABE0B9E388A399A3AAA3BBA3DF91CF9168
:101F70001F910F9108951F920F920FB60F92112487
:101F80002F933F938F939F93AF93BF93809135028D
:101F900090913602A0913702B0913802309134020C
:101FA00023E0230F2D3758F50196A11DB11D209375
:101FB00034028093350290933602A0933702B09397
:101FC00038028091390290913A02A0913B02B0917F
:101FD0003C020196A11DB11D8093390290933A02F3
:101FE000A0933B02B0933C02BF91AF919F918F9120
:101FF0003F912F910F900FBE0F901F90189526E8DC
:10200000230F0296A11DB11DD2CF1F920F920FB6C2
:102010000F9211242F933F934F935F936F937F936E
:102020008F939F93AF93BF93EF93FF938DE892E0CD
:102030000E94B101FF91EF91BF91AF919F918F915C
:102040007F916F915F914F913F912F910F900FBEB4
:102050000F901F9018951F920F920FB60F92112498
:102060002F938F939F93EF93FF93E0919D02F091B5
:102070009E028081E091A302F091A40282FD1BC028
:1020800090818091A6028F5F8F732091A7028217A3
:1020900041F0E091A602F0E0E357FD4F958F809369
:1020A000A602FF91EF919F918F912F910F900FBEFC
:1020B0000F901F9018958081F4CF1F920F920FB64A
:1020C0000F9211242F933F934F935F936F937F93BE
:1020D0008F939F93AF93BF93EF93FF938091B9003A
:1020E000887F803609F44AC0F0F5883209F4A7C029
:1020F00018F5803109F49BC0B8F4882309F4F9C0BD
:10210000883009F494C0FF91EF91BF91AF919F91F6
:102110008F917F916F915F914F913F912F910F9090
:102120000FBE0F901F901895883109F488C0803237
:1021300051F78093610214C0803409F49DC040F4CB
:102140008033B9F38833F9F68093610285ECB0C02F
:10215000803509F485C0883509F496C0883499F62D
:102160000E949A0ED0CF883909F48CC038F5883790
:1021700029F050F4883611F0803729F683E08093F7
:10218000630210922D0257C0883809F47BC0803951
:1021900019F0803809F0B7CF80912D02803208F015
:1021A00071C0E0912D0281E08E0F80932D0280910D
:1021B000BB00F0E0E35FFD4F80833DC0803B39F022
:1021C000E0F4803A09F479C0883A09F09CCF84E0C1
:1021D0008093630210920C0210920B02E0912E0287
:1021E000F0912F02099580910B0281110FC081E0BF
:1021F00080930B021092EB0109C0803C09F4A6CF3A
:10220000883C09F4A3CF883B09F07DCFE0910C0214
:1022100081E08E0F80930C02F0E0E551FE4F80814B
:102220008093BB0090910C0280910B0229C0809199
:102230003E028093BB0085EC8093BC0064CF9091FC
:10224000600280915F02981758F5E091600281E08A
:102250008E0F80936002F0E0E15CFD4F8081E9CF5A
:10226000E091600281E08E0F809360028091BB005C
:10227000F0E0E15CFD4F80839091600280915F020D
:102280009817C8F285E8D8CFE091600281E08E0F00
:10229000809360028091BB00F0E0E15CFD4F8083A1
:1022A0008091620281115CCF81E080933D0284EADB
:1022B0008093BC001092630226CF85EC8093BC0013
:1022C0001092630280912D02803230F4E0912D0251
:1022D000F0E0E35FFD4F108260912D0270E0E0912D
:1022E0003002F09131028DE092E0099510922D02BA
:1022F0000ACF1092610234CFEDE8F2E0138212822D
:1023000088EE93E0A0E0B0E084839583A683B78352
:1023100024E331E03183208325EC30E035872487C6
:1023200024EC30E03787268720EC30E0318B208B9F
:1023300021EC30E0338B228B22EC30E0358B248B88
:1023400026EC30E0378B268B118E128E138E148E76
:10235000EAE2F3E01382128284839583A683B78333
:1023600086E491E091838083E6E3F3E088E591E001
:1023700091838083178E168E11A210A213A212A22F
:1023800015A214A20895CF93DF93CDB7DEB7C2573D
:10239000D1090FB6F894DEBF0FBECDBF789484B5D7
:1023A000826084BD84B5816084BD85B5826085BD51
:1023B00085B5816085BD80916E00816080936E00DF
:1023C00010928100809181008260809381008091D1
:1023D0008100816080938100809180008160809382
:1023E00080008091B10084608093B1008091B00042
:1023F00081608093B00080917A00846080937A003D
:1024000080917A00826080937A0080917A00816066
:1024100080937A0080917A00806880937A0010928D
:10242000C100E0919D02F0919E0282E08083E091E4
:102430009902F0919A021082E0919B02F0919C0225
:1024400080E180831092A502E091A102F091A202A6
:1024500086E08083E0919F02F091A00280818061FC
:102460008083E0919F02F091A00280818860808348
:10247000E0919F02F091A002808180688083E091CA
:102480009F02F091A00280818F7D80838091540310
:1024900090915503009711F00E94F01786E090E0AC
:1024A0000E945417FC0188E680838AE293E09283BD
:1024B0008183138280E290E095838483F0935503B7
:1024C000E093540305E041E3C42E41E0D42E52E3EF
:1024D000A52E51E0B52E11E0E0905403F090550385
:1024E000109233021092320210926A0210928C0201
:1024F0000E946702D0922F02C0922E02B092310247
:10250000A0923002D70113961C93C7010E94B00518
:10251000811117C06AE070E080E090E00E94FF0047
:102520000150D1F684E891E00E94C4068AE991E066
:102530000E94C4066AE070E080E090E00E94FF0024
:10254000F9CF80915403909155031A8A1B8A1C8AF3
:102550001D8A9A8389831C821B821C8785E790E0F1
:102560009A8789871D861B87CE0101967C010E9470
:102570009F096836710581059105A1F640E050E09C
:10258000BA0186E393E00E94110D882359F28091ED
:102590005403909155031A8A1B8A1C8A1D8A9A83B8
:1025A00089831C821B821C878CE190E09A87898733
:1025B0001D861B87FEA2EDA282E0D82EDFA203E0DB
:1025C00008A742E050E060E070E0CE0185960E94EE
:1025D000D00980915403909155031A8A1B8A1C8A52
:1025E0001D8A9A8389831C821B821C878BE190E061
:1025F0009A8789871D861B87FEA2EDA2DFA208A706
:1026000041E050E060E070E0CE0185960E94D00984
:1026100080915403909155031A8A1B8A1C8A1D8A43
:102620009A8389831C821B821C878AE190E09A87A7
:1026300089871D861B87FEA2EDA20FA318A644E082
:1026400050E060E070E0CE0185960E94D0098DE9EF
:1026500091E00E94C4068AE991E00E94C406FE014E
:102660003D96AF96FFAFEEAFAF9718E189E490E0EB
:102670008C0F9D1F0C96E3969FAF8EAFE397C12CF6
:10268000D12C7601C394DE01D196E196BFAFAEAFF7
:10269000E19724E0422E512C612C712C30E0232E46
:1026A00030E0332E8FB7F894809035029090360248
:1026B000A0903702B09038028FBF86E393E00E946B
:1026C000540AAF96EEADFFADAF97812F11928A9568
:1026D000E9F784E290E0A0E0B0E089839A83AB83DD
:1026E000BC838091600390916103B0E0A0E08D8392
:1026F0009E83AF83B8878DE090E0A0E0B0E089874B
:102700009A87AB87BC87898A9A8AAB8ABC8A809170
:10271000380390913903A0913A03B0913B038D8B1C
:102720009E8BAF8BB88FE396AEADBFADE397E12F35
:102730001D92EA95E9F72D96CCAEDDAEEEAEFFAE7A
:102740002D9780915C0390915D03B0E0A0E06196CD
:102750008CAF9DAFAEAFBFAF61976596CCAEDDAE2F
:10276000EEAEFFAE65976D968CAE9DAEAEAEBFAED3
:102770006D972AE038EE4CE151E460913C03709192
:102780003D0380913E0390913F030E94BA16A196AB
:102790006CAF7DAF8EAF9FAFA1972AE038EE4CE1D2
:1027A00051E4609140037091410380914203909104
:1027B00043030E94BA16A5966CAF7DAF8EAF9FAF54
:1027C000A5972AE038EE4CE151E460914403709102
:1027D000450380914603909147030E94BA16A9963B
:1027E0006CAF7DAF8EAF9FAFA997E196AEADBFAD99
:1027F000E197E12F1D92EA95E9F7CDA2DEA2EFA2C3
:10280000F8A680915E0390915F03B0E0A0E089A7F5
:102810009AA7ABA7BCA74DA65EA66FA678AA8DAA5D
:102820009EAAAFAAB8AE25E33AEF4EE85CE360910A
:1028300048037091490380914A0390914B030E9491
:10284000BA1669AF7AAF8BAF9CAF25E33AEF4EE88B
:102850005CE360914C0370914D0380914E03909125
:102860004F030E94BA1621966CAF7DAF8EAF9FAF1B
:10287000219725E33AEF4EE85CE3609150037091B5
:10288000510380915203909153030E94BA162596EA
:102890006CAF7DAF8EAF9FAF259788EA91E00E9425
:1028A000C406A1966CAD7DAD8EAD9FADA19743E002
:1028B0000E9415078CEA91E00E94C406A5966CADB3
:1028C0007DAD8EAD9FADA59743E00E94150781EBCE
:1028D00091E00E94C406A9966CAD7DAD8EAD9FAD12
:1028E000A99743E00E94150786EB91E00E94C40679
:1028F00069AD7AAD8BAD9CAD44E00E9415078BEBC2
:1029000091E00E94C40621966CAD7DAD8EAD9FAD69
:10291000219744E00E94150780EC91E00E94C406D4
:1029200025966CAD7DAD8EAD9FAD259744E00E94A0
:10293000150785EC91E00E94C4066D897E898F8918
:10294000988D42E00E9415078AE991E00E94C40632
:1029500064E670E080E090E00E94FF002114310402
:1029600009F4A0CE0E949D01882309F49BCE0E9409
:10297000000098CE88E591E090933703809336036A
:102980008091560390915703009739F0DC01ED9147
:10299000FC910280F381E02D09958091580390917C
:1029A0005903009739F0DC01ED91FC910280F3812D
:1029B000E02D099580915A0390915B03009739F0BF
:1029C000DC01ED91FC910280F381E02D099580916D
:1029D000540390915503009711F00C94F01708954B
:1029E0005058BB27AA270E9408150C947B160E94FA
:1029F0006D1638F00E94741620F039F49F3F19F4D8
:102A000026F40C946A160EF4E095E7FB0C94641619
:102A1000E92F0E948C1658F3BA17620773078407D0
:102A2000950720F079F4A6F50C94AE160EF4E09517
:102A30000B2EBA2FA02D0B01B90190010C01CA0178
:102A4000A0011124FF27591B99F0593F50F4503E23
:102A500068F11A16F040A22F232F342F4427585F15
:102A6000F3CF469537952795A795F0405395C9F72D
:102A70007EF41F16BA0B620B730B840BBAF09150E5
:102A8000A1F0FF0FBB1F661F771F881FC2F70EC084
:102A9000BA0F621F731F841F48F487957795679557
:102AA000B795F7959E3F08F0B0CF9395880F08F043
:102AB0009927EE0F9795879508950E94401608F480
:102AC00081E008950E9476150C947B160E9474167E
:102AD00058F00E946D1640F029F45F3F29F00C94E5
:102AE000641651110C94AF160C946A160E948C1641
:102AF00068F39923B1F3552391F3951B550BBB272D
:102B0000AA2762177307840738F09F5F5F4F220F71
:102B1000331F441FAA1FA9F335D00E2E3AF0E0E868
:102B200032D091505040E695001CCAF72BD0FE2FB2
:102B300029D0660F771F881FBB1F26173707480746
:102B4000AB07B0E809F0BB0B802DBF01FF279358FE
:102B50005F4F3AF09E3F510578F00C9464160C9448
:102B6000AF165F3FE4F3983ED4F38695779567956B
:102B7000B795F7959F5FC9F7880F911D9695879533
:102B800097F90895E1E0660F771F881FBB1F621752
:102B900073078407BA0720F0621B730B840BBA0B10
:102BA000EE1F88F7E09508950E94941688F09F57CD
:102BB00098F0B92F9927B751B0F0E1F0660F771F61
:102BC000881F991F1AF0BA95C9F714C0B13091F057
:102BD0000E94AE16B1E008950C94AE16672F782FC0
:102BE0008827B85F39F0B93FCCF38695779567951C
:102BF000B395D9F73EF490958095709561957F4F88
:102C00008F4F9F4F0895E89409C097FB3EF490952D
:102C10008095709561957F4F8F4F9F4F9923A9F0B5
:102C2000F92F96E9BB279395F69587957795679544
:102C3000B795F111F8CFFAF4BB0F11F460FF1BC088
:102C40006F5F7F4F8F4F9F4F16C0882311F096E91B
:102C500011C0772321F09EE8872F762F05C06623C9
:102C600071F096E8862F70E060E02AF09A95660F82
:102C7000771F881FDAF7880F9695879597F908953B
:102C8000990F0008550FAA0BE0E8FEEF161617067D
:102C9000E807F907C0F012161306E407F50798F0E5
:102CA000621B730B840B950B39F40A2661F0232BFE
:102CB000242B252B21F408950A2609F4A140A6957A
:102CC0008FEF811D811D089597F99F6780E870E05F
:102CD00060E008959FEF80EC089500240A94161692
:102CE000170618060906089500240A9412161306FA
:102CF000140605060895092E0394000C11F4882388
:102D000052F0BB0F40F4BF2B11F460FF04C06F5FA3
:102D10007F4F8F4F9F4F089557FD9058440F551F79
:102D200059F05F3F71F04795880F97FB991F61F04D
:102D30009F3F79F087950895121613061406551FC4
:102D4000F2CF4695F1DF08C0161617061806991F30
:102D5000F1CF86957105610508940895E894BB2725
:102D600066277727CB0197F908950E94401608F44B
:102D70008FEF08950E94CD160C947B160E946D165D
:102D800038F00E94741620F0952311F00C9464160C
:102D90000C946A1611240C94AF160E948C1670F3D2
:102DA000959FC1F3950F50E0551F629FF001729FF0
:102DB000BB27F00DB11D639FAA27F00DB11DAA1FFF
:102DC000649F6627B00DA11D661F829F2227B00D4C
:102DD000A11D621F739FB00DA11D621F839FA00DD7
:102DE000611D221F749F3327A00D611D231F849F27
:102DF000600D211D822F762F6A2F11249F5750407E
:102E00009AF0F1F088234AF0EE0FFF1FBB1F661FF8
:102E1000771F881F91505040A9F79E3F510580F0C1
:102E20000C9464160C94AF165F3FE4F3983ED4F311
:102E3000869577956795B795F795E7959F5FC1F765
:102E4000FE2B880F911D9695879597F908950E94FE
:102E50004016880B990B0895A1E21A2EAA1BBB1BE2
:102E6000FD010DC0AA1FBB1FEE1FFF1FA217B30756
:102E7000E407F50720F0A21BB30BE40BF50B661F6C
:102E8000771F881F991F1A9469F760957095809530
:102E900090959B01AC01BD01CF010895EE0FFF1F7E
:102EA0000590F491E02D09940F931F93CF93DF9336
:102EB0008230910510F482E090E0E0917203F0918D
:102EC000730330E020E0B0E0A0E0309799F42115E2
:102ED000310509F44AC0281B390B24303105D8F5D7
:102EE0008A819B816115710589F1FB01938382833E
:102EF000FE0111C040815181028113814817590799
:102F0000E0F04817590799F4109761F012960C9366
:102F1000129713961C933296CF01DF91CF911F9198
:102F20000F9108950093720310937303F4CF21154A
:102F3000310551F04217530738F0A901DB019A011E
:102F4000BD01DF01F801C1CFEF01F9CF9093730309
:102F500080937203CDCFFE01E20FF31F8193919313
:102F60002250310939832883D7CF209170033091C3
:102F70007103232B41F4209102013091030130931E
:102F800071032093700320910001309101012115FC
:102F9000310541F42DB73EB7409104015091050130
:102FA000241B350BE0917003F0917103E217F307D6
:102FB000A0F42E1B3F0B2817390778F0AC014E5FA9
:102FC0005F4F2417350748F04E0F5F1F5093710372
:102FD00040937003819391939FCFF0E0E0E09CCF0A
:102FE000CF93DF930097E9F0FC01329713821282AE
:102FF000A0917203B0917303ED0130E020E01097CF
:10300000A1F420813181820F931F209170033091B0
:1030100071032817390709F061C0F0937103E09339
:103020007003DF91CF910895EA01CE17DF07E8F52D
:103030004A815B819E0141155105B1F7E901FB838E
:10304000EA8349915991C40FD51FEC17FD0761F42C
:10305000808191810296840F951FE901998388836D
:10306000828193819B838A83F0E0E0E012968D91C8
:103070009C9113970097B9F52D913C911197CD0133
:103080000296820F931F20917003309171032817CD
:10309000390739F6309751F5109273031092720385
:1030A000B0937103A0937003BCCFD383C2834081DC
:1030B0005181840F951FC817D90761F44E5F5F4F88
:1030C00088819981480F591F518340838A819B8150
:1030D000938382832115310509F0B0CFF0937303F8
:1030E000E09372039ECFFD01DC01C0CF13821282F8
:1030F000D7CFFB01DC014150504048F001900D92C8
:103100000020C9F701C01D9241505040E0F70895DA
:1031100010E0C8E5D0E004C0FE010E944E172196E1
:0A312000C935D107C9F7F894FFCFB5
:10312A0000007403800000000000C2060B0DC306F5
:10313A004C0C6C0F00000000C2060D0DC306D60B26
:10314A00210F00000000C2060F0DC306BE0CD20EEE
:10315A0000000000D30133016001200291016F01D8
:10316A00830100000000ED03C0031C049603B903A9
:10317A00A603970300000000110D6E616E00696ED0
:10318A0066006F7666004D5055363035305F540014
:10319A004D5055363035305F41004D50553630353B
:1031AA00305F47004D505536303530206E6F206500
:1031BA006E636F6E747261646F000D0A004D505534
:1031CA0036303530204F4B0061783D002061793D23
:1031DA000020617A3D002067783D002067793D0034
:0A31EA0020677A3D0020543D0000EC
:00000001FF
