:100000000C9458000C9480000C9480000C94800098
:100010000C9480000C9480000C9480000C94800060
:100020000C9480000C9480000C9480000C94800050
:100030000C9480000C9480000C9480000C94800040
:100040000C946F040C9480000C94DF040C94B9049D
:100050000C9480000C9480000C9480000C94800020
:100060000C9411050C94800000000000250028006D
:100070002B00040404040404040402020202020229
:10008000030303030303010204081020408001025C
:1000900004081020010204081020000000080002DB
:1000A000010000030407000000000000000030060B
:1000B00011241FBECFEFD8E0DEBFCDBF11E0A0E01E
:1000C000B1E0E4E0F1E102C005900D92A235B10784
:1000D000D9F722E0A2E5B1E001C01D92AE3BB20724
:1000E000E1F710E0C8E5D0E004C02197FE010E94CE
:1000F0007A08C735D107C9F70E9469060C948008B1
:100100000C94000090E0FC01E656FF4F2491FC01A6
:10011000EA57FF4F3491FC01EE58FF4FE491EE2374
:10012000C9F0222339F0233001F1A8F4213019F16C
:10013000223029F1F0E0EE0FFF1FE859FF4FA591A3
:10014000B4918FB7F894EC91611126C030953E239D
:100150003C938FBF08952730A9F02830C9F0243090
:1001600049F7809180008F7D03C0809180008F7758
:1001700080938000DFCF84B58F7784BDDBCF84B5DB
:100180008F7DFBCF8091B0008F778093B000D2CF6E
:100190008091B0008F7DF9CF3E2BDACF3FB7F89436
:1001A0008091C1019091C201A091C301B091C4019D
:1001B00026B5A89B05C02F3F19F00196A11DB11DC2
:1001C0003FBFBA2FA92F982F8827BC01CD01620FFE
:1001D000711D811D911D42E0660F771F881F991FB9
:1001E0004A95D1F708958091BB019091BA01891B7E
:1001F000990B089508950895AF92BF92CF92DF9220
:10020000EF92FF920F931F93CF93DF936C017B01CB
:100210008B01040F151FEB015E01AE18BF08C0175C
:10022000D10759F06991D601ED91FC910190F081CF
:10023000E02DC6010995892B79F7C501DF91CF9192
:100240001F910F91FF90EF90DF90CF90BF90AF90F4
:100250000895FC01538D448D252F30E0842F90E0CC
:10026000821B930B541710F0CF96089501970895B1
:10027000FC01918D828D981761F0A28DAE0FBF2F7A
:10028000B11D5D968C91928D9F5F9F73928F90E0D0
:1002900008958FEF9FEF0895FC01918D828D98173F
:1002A00031F0828DE80FF11D858D90E008958FEF7C
:1002B0009FEF0895FC01918D228D892F90E0805C45
:1002C0009F4F821B91098F739927089585E192E0D2
:1002D0000E945A0121E0892B09F420E0822F089521
:1002E00080E090E0892B29F00E94660181110C9436
:1002F00000000895FC01A48DA80FB92FB11DA35AC9
:10030000BF4F2C91848D90E001968F739927848F35
:10031000A689B7892C93A089B1898C918370806458
:100320008C93938D848D981306C00288F389E02DF9
:1003300080818F7D80830895EF92FF920F931F93AA
:10034000CF93DF93EC0181E0888F9B8D8C8D981388
:100350001AC0E889F989808185FF15C09FB7F89494
:10036000EE89FF896083E889F989808183708064E0
:1003700080839FBF81E090E0DF91CF911F910F912B
:10038000FF90EF900895F62E0B8D10E00F5F1F4F3A
:100390000F731127E02E8C8D8E110CC00FB607FC49
:1003A000FACFE889F989808185FFF5CFCE010E94D7
:1003B0007A01F1CFEB8DEC0FFD2FF11DE35AFF4FCA
:1003C000F0829FB7F8940B8FEA89FB898081806265
:1003D000CFCFCF93DF93EC01888D8823B9F0AA8922
:1003E000BB89E889F9898C9185FD03C0808186FDF0
:1003F0000DC00FB607FCF7CF8C9185FFF2CF80813F
:1004000085FFEDCFCE010E947A01E9CFDF91CF9138
:10041000089520917301260F3327331F21323105B0
:10042000ECF42091EB01FC0190E080E0243069F0D5
:1004300082E00895A09173012191AC014D5A5E4F65
:10044000A40FB52FB11D2C930196861798F38091B8
:100450007301680F6093730180E0089581E008954F
:100460001092EB0181E08093EA011092C50161E0F6
:1004700082E10E94820061E083E10E948200E9EB58
:10048000F0E080818E7F808380818D7F808388E40F
:100490008093B80085E48093BC000895CF93DF93E8
:1004A00091E0909352018823B9F0C091B800D091A7
:1004B000BA008091BC008A7B8093BC0060E082E13E
:1004C0000E94820060E083E10E9482000E9430026C
:1004D000D093BA00C093B800DF91CF9108958F9266
:1004E0009F92AF92BF92CF92DF92EF92FF920F93C3
:1004F0001F93CF93DF93D0911402D13208F0D7C06D
:10050000182FC09113020E94CE006B017C018091D4
:10051000EB0181116BC082E08093EB011093EA0143
:100520008FEF8093E9011092E801D093E701A3EFE8
:10053000B1E0E7ECF1E080E0D81391C01092C60181
:100540008091C601CC0FC82BC093C6018091C50114
:10055000813009F088C01092C5010E94CE006B0165
:100560007C018091C6018093BB008091ED01909148
:10057000EE01A091EF01B091F001892B8A2B8B2B1A
:10058000A1F00E94CE000091ED011091EE012091AA
:10059000EF013091F0016C197D098E099F09061752
:1005A00017072807390708F442C08091BC0083FD73
:1005B000D8CF85EC8093BC000E94CE006B017C01FB
:1005C0008091EB01823009F450C08091E9018F3FA6
:1005D00009F46FC08091E901803209F46CC0809108
:1005E000E901803309F469C084E026C08091ED01FF
:1005F0009091EE01A091EF01B091F001892B8A2B2F
:100600008B2B09F484CF0E94CE008090ED01909056
:10061000EE01A090EF01B090F0016C197D098E09F8
:100620009F0986169706A806B90608F070CF809134
:10063000EC010E944E0285E01092F2011092140229
:100640001092F101DF91CF911F910F91FF90EF90E8
:10065000DF90CF90BF90AF909F908F9008959D9125
:1006600091938F5F69CF85EEA5CF8091ED01909139
:10067000EE01A091EF01B091F001892B8A2B8B2B19
:1006800009F49ECF0E94CE000091ED011091EE0181
:100690002091EF013091F0016C197D098E099F09BD
:1006A000061717072807390708F08ACFC0CF81E05F
:1006B000C3CF80E0C1CF82E0BFCF83E0BDCF08953C
:1006C000E091BA018091BB01E81730F4F0E0E65602
:1006D000FE4F808190E008958FEF9FEF08959091F5
:1006E000BA018091BB012FEF3FEF981748F4E92F33
:1006F000F0E0E656FE4F208130E09F5F9093BA0114
:10070000C9010895CF92DF92EF92FF920F931F934A
:10071000CF93DF937C01CB018A012091F101222349
:1007200089F0EB016B01C40ED51ECC15DD0569F017
:100730006991D701ED91FC910190F081E02DC70105
:100740000995F3CF642F0E940902C801DF91CF9170
:100750001F910F91FF90EF90DF90CF900895CF936E
:10076000DF931F92CDB7DEB769832091F101222379
:10077000F9F020911402203258F021E030E0FC0121
:100780003383228390E080E00F90DF91CF91089532
:100790008091F201E82FF0E0ED50FE4F99819083B7
:1007A0008F5F8093F2018093140281E090E0ECCFA0
:1007B00061E0CE0101960E940902F7CF682F82EB1B
:1007C00092E00C94AF0390E080E00895FC0101906A
:1007D0000020E9F73197AF01481B590BBC0185E1B7
:1007E00092E00C94FC008F929F92AF92BF920F9375
:1007F0001F93CF93DF93CDB7DEB7A1970FB6F894D1
:10080000DEBF0FBECDBF19A2423008F44AE08E0110
:100810000F5D1F4F842E912CB12CA12CA5019401AA
:100820000E945808E62FB901CA01EA30F4F4E05DED
:10083000D801EE938D01232B242B252B79F790E003
:1008400080E0109719F0CD010E94E603A1960FB643
:10085000F894DEBF0FBECDBFDF91CF911F910F91F6
:10086000BF90AF909F908F900895E95CE1CF85EDA8
:100870008093BC008091ED019091EE01A091EF0179
:10088000B091F0010796A11DB11D23E0B695A79583
:10089000979587952A95D1F72091BC0024FD03C038
:1008A0001092EB0108954091ED015091EE0160919D
:1008B000EF017091F001452B462B472B69F3009710
:1008C000A105B10541F02AE22A95F1F700C0019790
:1008D000A109B109E1CF8091EC010C944E021F9265
:1008E0000F920FB60F9211242F933F938F939F93E4
:1008F000AF93BF938091BD019091BE01A091BF01C4
:10090000B091C0013091BC0123E0230F2D3758F581
:100910000196A11DB11D2093BC018093BD01909350
:10092000BE01A093BF01B093C0018091C10190911D
:10093000C201A091C301B091C4010196A11DB11DD6
:100940008093C1019093C201A093C301B093C401ED
:10095000BF91AF919F918F913F912F910F900FBEBB
:100960000F901F90189526E8230F0296A11DB11D28
:10097000D2CF1F920F920FB60F9211242F933F9355
:100980004F935F936F937F938F939F93AF93BF9397
:10099000EF93FF9385E192E00E947A01FF91EF913E
:1009A000BF91AF919F918F917F916F915F914F9187
:1009B0003F912F910F900FBE0F901F9018951F928F
:1009C0000F920FB60F9211242F938F939F93EF9353
:1009D000FF93E0912502F09126028081E0912B02A5
:1009E000F0912C0282FD1BC0908180912E028F5FBE
:1009F0008F7320912F02821741F0E0912E02F0E0D8
:100A0000EB5EFD4F958F80932E02FF91EF919F91AA
:100A10008F912F910F900FBE0F901F90189580818E
:100A2000F4CF1F920F920FB60F9211242F933F9382
:100A30004F935F936F937F938F939F93AF93BF93E6
:100A4000EF93FF938091B900887F803609F44AC004
:100A5000F0F5883209F4A7C018F5803109F49BC07D
:100A6000B8F4882309F4F9C0883009F494C0FF91E0
:100A7000EF91BF91AF919F918F917F916F915F9116
:100A80004F913F912F910F900FBE0F901F9018958F
:100A9000883109F488C0803251F78093E90114C08D
:100AA000803409F49DC040F48033B9F38833F9F6FB
:100AB0008093E90185ECB0C0803509F485C08835A4
:100AC00009F496C0883499F60E943704D0CF88394B
:100AD00009F48CC038F5883729F050F4883611F0C5
:100AE000803729F683E08093EB011092950157C07F
:100AF000883809F47BC0803919F0803809F0B7CF05
:100B000080919501803208F071C0E091950181E0FB
:100B10008E0F809395018091BB00F0E0EB58FE4F63
:100B200080833DC0803B39F0E0F4803A09F479C01D
:100B3000883A09F09CCF84E08093EB011092740115
:100B400010927301E0919801F091990109958091BB
:100B5000730181110FC081E08093730110925301E2
:100B600009C0803C09F4A6CF883C09F4A3CF883B98
:100B700009F07DCFE091740181E08E0F80937401C4
:100B8000F0E0ED5AFE4F80818093BB00909174019C
:100B90008091730129C08091C6018093BB0085ECD0
:100BA0008093BC0064CF9091E8018091E701981791
:100BB00058F5E091E80181E08E0F8093E801F0E0C4
:100BC000E953FE4F8081E9CFE091E80181E08E0F8B
:100BD0008093E8018091BB00F0E0E953FE4F8083F1
:100BE0009091E8018091E7019817C8F285E8D8CF85
:100BF000E091E80181E08E0F8093E8018091BB00D5
:100C0000F0E0E953FE4F80838091EA0181115CCFCF
:100C100081E08093C50184EA8093BC001092EB01CF
:100C200026CF85EC8093BC001092EB01809195015A
:100C3000803230F4E0919501F0E0EB58FE4F1082E5
:100C40006091950170E0E0919601F091970185E740
:100C500091E00995109295010ACF1092E90134CFE5
:100C6000E5E1F2E01382128288EE93E0A0E0B0E0CA
:100C700084839583A683B78324E031E03183208386
:100C800025EC30E03587248724EC30E03787268751
:100C900020EC30E0318B208B21EC30E0338B228B49
:100CA00022EC30E0358B248B26EC30E0378B268B22
:100CB000118E128E138E148EE2EBF2E013821282EA
:100CC00084839583A683B78386E191E091838083B3
:100CD0000895789484B5826084BD84B5816084BDB4
:100CE00085B5826085BD85B5816085BD80916E00CA
:100CF000816080936E0010928100809181008260FB
:100D00008093810080918100816080938100809137
:100D100080008160809380008091B1008460809326
:100D2000B1008091B00081608093B00080917A0022
:100D3000846080937A0080917A00826080937A0048
:100D400080917A00816080937A0080917A00806837
:100D500080937A001092C100E0912502F091260262
:100D600082E08083E0912102F09122021082E091E2
:100D70002302F091240280E1808310922D02E09101
:100D80002902F0912A0286E08083E0912702F09107
:100D90002802808180618083E0912702F0912802FF
:100DA000808188608083E0912702F0912802808111
:100DB00080688083E0912702F091280280818F7DF6
:100DC00080831092BA011092BB010E9430028AEF18
:100DD00090E090939901809398018BEF90E090932D
:100DE0009701809396018CE08093B80081E0809316
:100DF000F10187E5809313021092F2011092140220
:100E000081E090E00E94DE0390E080E00E94DE033B
:100E1000C0EAD0E0CE010E94DE032196C83AD10597
:100E2000C9F781E00E946F02182F0E94CE006B016B
:100E30007C01D0E0C0E001E087E5B82E2196009368
:100E4000F101B09213021092F2011092140281E0AB
:100E50000E946F02882321F0C03D27E0D20771F77E
:100E60000E94CE009B01AC012C193D094E095F097F
:100E700069017A0184E291E00E94E603612F70E04B
:100E800090E080E04AE00E94F3038FE291E00E944C
:100E9000E6034AE0C701B6010E94F3038CE391E048
:100EA0000E94E603BE0190E080E04AE00E94F30366
:100EB00087E491E00E94E60381E08093F10187E5F9
:100EC000809313021092F2011092140281E090E0DC
:100ED0000E94DE0390E080E00E94DE0380E00E943A
:100EE0006F020E94CE006B017C018091EB018111A9
:100EF00065C081E08093EB018093EA019FEF9093BE
:100F0000E9011092E80198E09093E7018093C6010F
:100F10008091C6018E6A8093C6018091C50181309F
:100F200009F091C01092C5010E94CE006B017C01B6
:100F30008091C6018093BB008091ED019091EE01FC
:100F4000A091EF01B091F001892B8A2B8B2BA1F09E
:100F50000E94CE000091ED011091EE012091EF0171
:100F60003091F0016C197D098E099F09061717074A
:100F70002807390708F443C08091BC0083FDD8CF0F
:100F800085EC8093BC000E94CE006B017C018091B7
:100F9000EB01813009F459C08091E801893008F0F3
:100FA00076C08091E801E7ECF1E0AAE9B1E090E0D9
:100FB000981751F121912D939F5FFACF8091ED0108
:100FC0009091EE01A091EF01B091F001892B8A2B55
:100FD0008B2B09F48ACF0E94CE000091ED01109175
:100FE000EE012091EF013091F0016C197D098E091D
:100FF0009F09061717072807390708F076CF809151
:10100000EC010E944E0280E01092BA018093BB0175
:101010008AE491E00E94E6039091BB018091BA01BD
:101020009817B9F160E285E192E00E949C0182EBA1
:1010300092E00E946F03BC01990F880B990B40E16D
:101040000E94F303E9CF85EE9CCF8091ED01909152
:10105000EE01A091EF01B091F001892B8A2B8B2B2F
:1010600009F495CF0E94CE000091ED011091EE01A0
:101070002091EF013091F0016C197D098E099F09D3
:10108000061717072807390708F081CFB8CF89E07E
:101090008ACF87E491E00E94E603C0E0D0E0209789
:1010A000F1F30E9466018823D1F30E940000F7CF7C
:1010B000A1E21A2EAA1BBB1BFD010DC0AA1FBB1F5C
:1010C000EE1FFF1FA217B307E407F50720F0A21BCE
:1010D000B30BE40BF50B661F771F881F991F1A943B
:1010E00069F760957095809590959B01AC01BD0165
:1010F000CF010895EE0FFF1F0590F491E02D0994A4
:04110000F894FFCF91
:10110400000000009C01FC002901E9015A0138019A
:101114004C0100000000AF038203E3035F03F3000C
:101124006F0360036573637269747572613D0020B7
:10113400706F6C6C696E675F75733D0020696E74C7
:10114400656E746F733D000D0A006C6569646F3AD7
:02115400000099
:00000001FF
