:100000000C945E000C9486000C9486000C94860080
:100010000C9486000C9486000C9486000C94860048
:100020000C9486000C9486000C9486000C94860038
:100030000C9486000C9486000C9486000C94860028
:100040000C94560A0C9486000C94C60A0C94A00AD0
:100050000C9486000C9486000C9486000C94860008
:100060000C94F80A0C94860000000000240027007D
:100070002A0000000000250028002B0004040404CE
:100080000404040402020202020203030303030342
:10009000010204081020408001020408102001021F
:1000A00004081020000000080002010000030407FB
:1000B0000000000000000000170C901211241FBE69
:1000C000CFEFD8E0DEBFCDBF11E0A0E0B1E0E6E2C7
:1000D000F1E302C005900D92A637B107D9F723E0EE
:1000E000A6E7B1E001C01D92A232B207E1F710E02D
:1000F000CDE5D0E004C02197FE010E944C17CC351D
:10010000D107C9F70E94600C0C9486180C9400006B
:1001100090E0FC01EC55FF4F2491FC01E057FF4FAC
:100120003491FC01E458FF4FE491EE23C9F02223FF
:1001300039F0233001F1A8F4213019F1223029F1EE
:10014000F0E0EE0FFF1FEE58FF4FA591B4918FB76F
:10015000F894EC91611126C030953E233C938FBFFB
:1001600008952730A9F02830C9F0243049F780914C
:1001700080008F7D03C0809180008F778093800006
:10018000DFCF84B58F7784BDDBCF84B58F7DFBCF88
:100190008091B0008F778093B000D2CF8091B00073
:1001A0008F7DF9CF3E2BDACFCF93DF9390E0FC0128
:1001B000E057FF4F249184589F4FFC01849188237E
:1001C000D1F090E0880F991FFC01E859FF4FA591ED
:1001D000B491FC01EE58FF4FC591D49161110EC04E
:1001E0009FB7F8948C91E22FE0958E238C93288111
:1001F000E223E8839FBFDF91CF9108958FB7F894F2
:10020000EC91E22BEC938FBFF6CF8230910538F062
:10021000880F991F880F991F05970197F1F7089587
:100220003FB7F8948091C4019091C501A091C60197
:10023000B091C70126B5A89B05C02F3F19F00196C4
:10024000A11DB11D3FBFBA2FA92F982F8827BC0130
:10025000CD01620F711D811D911D42E0660F771F58
:10026000881F991F4A95D1F708958F929F92AF9258
:10027000BF92CF92DF92EF92FF924B015C010E94FE
:1002800010016B017C010E9410016C197D098E091F
:100290009F09683E734081059105A8F321E0821A09
:1002A0009108A108B10888EEC80E83E0D81EE11CB1
:1002B000F11C81149104A104B10429F7FF90EF907F
:1002C000DF90CF90BF90AF909F908F90089508954A
:1002D0000895AF92BF92CF92DF92EF92FF920F9369
:1002E0001F93CF93DF936C017B018B01040F151FCC
:1002F000EB015E01AE18BF08C017D10759F0699134
:10030000D601ED91FC910190F081E02DC601099597
:10031000892B79F7C501DF91CF911F910F91FF9044
:10032000EF90DF90CF90BF90AF900895FC01538D78
:10033000448D252F30E0842F90E0821B930B5417BF
:1003400010F0CF96089501970895FC01918D828D4C
:10035000981761F0A28DAE0FBF2FB11D5D968C91E5
:10036000928D9F5F9F73928F90E008958FEF9FEF24
:100370000895FC01918D828D981731F0828DE80FE0
:10038000F11D858D90E008958FEF9FEF0895FC019A
:10039000918D228D892F90E0805C9F4F821B910967
:1003A0008F73992708958AE392E00E94C70121E0A4
:1003B000892B09F420E0822F089580E090E0892BBA
:1003C00029F00E94D30181110C9400000895FC01D2
:1003D000A48DA80FB92FB11DA35ABF4F2C91848DA6
:1003E00090E001968F739927848FA689B7892C9303
:1003F000A089B1898C91837080648C93938D848D56
:10040000981306C00288F389E02D80818F7D808358
:100410000895EF92FF920F931F93CF93DF93EC0118
:1004200081E0888F9B8D8C8D98131AC0E889F9899B
:10043000808185FF15C09FB7F894EE89FF8960839E
:10044000E889F98980818370806480839FBF81E01F
:1004500090E0DF91CF911F910F91FF90EF90089561
:10046000F62E0B8D10E00F5F1F4F0F731127E02E3C
:100470008C8D8E110CC00FB607FCFACFE889F98974
:10048000808185FFF5CFCE010E94E701F1CFEB8D92
:10049000EC0FFD2FF11DE35AFF4FF0829FB7F89448
:1004A0000B8FEA89FB8980818062CFCFCF93DF9366
:1004B000EC01888D8823B9F0AA89BB89E889F9897C
:1004C0008C9185FD03C0808186FD0DC00FB607FCB1
:1004D000F7CF8C9185FFF2CF808185FFEDCFCE01E4
:1004E0000E94E701E9CFDF91CF910895FC01838558
:1004F0008F3F19F061E00C9488000895FC01808121
:100500009181892B39F0A281B3819C9111968C91B4
:100510009CBD8DBD83858F3F19F060E00C948800F1
:100520000895BF92CF92DF92EF92FF920F931F93A5
:10053000CF93DF93EC0188819981892B81F06EBD87
:100540000DB407FEFDCF0EB5802FDF91CF911F9127
:100550000F91FF90EF90DF90CF90BF900895888526
:10056000998511E0892B09F010E8BB24B394862FFC
:10057000812309F0B12CF62E2C813D814E815F81C3
:1005800060E271EA87E090E00E947515E22E00E0DB
:10059000C22ED12CEE2019F0C6010E9405018A85D9
:1005A000982F977F09F044C08D858F3F89F09F2D4C
:1005B000912381E009F480E08B1551F0EF85F889F3
:1005C0008F89992379F19081892B8083BB24B394FF
:1005D000E989FA898081998D892B8083EE2019F031
:1005E000C6010E9405018E858F3F39F0EB89FC8999
:1005F0008081988D892309F0012BE989FA899081FE
:10060000898D80958923808388859985892B09F038
:1006100067C0110F1111BECF8E858F3F09F094CFA7
:100620000F2D92CF9081809589238083B12CD0CFDC
:100630008C3099F58D858F3F49F0EF85F8898F894A
:100640009F2D912331F19081892B8083E989FA894B
:100650009081898D809589238083EE2019F0C601D1
:100660000E940501E989FA898081998D892B80830F
:10067000EE2019F0C6010E9405018E858F3F21F200
:10068000EB89FC898081988D892309F4BDCF012BEA
:10069000BBCF908180958923D8CFE989FA89808161
:1006A000998D892B8083EE2019F0C6010E940501E7
:1006B0008D858F3F49F0EF85F8898F899F2D912394
:1006C00059F09081892B8083E989FA899081898DFD
:1006D000809589238083D1CF908180958923F3CF22
:1006E000169598CFCF92DF92EF92FF920F931F93C0
:1006F000CF93DF938C01EB016A0179010E947E02A6
:100700006881C8010E949102E601EC0CFD1C6FEFAC
:10071000C8010E9491028993CE15DF05C1F7C80177
:100720000E94760281E0DF91CF911F910F91FF909F
:10073000EF90DF90CF90089520919701260F3327F7
:10074000331F21323105ECF420911002FC0190E0BE
:1007500080E0243069F082E00895A0919701219112
:10076000AC0149585E4FA40FB52FB11D2C930196D3
:10077000861798F380919701680F6093970180E046
:10078000089581E008951092100281E080930F0295
:100790001092EA0161E082E10E94880061E083E159
:1007A0000E948800E9EBF0E080818E7F8083808169
:1007B0008D7F808388E48093B80085E48093BC00BB
:1007C0000895CF93DF9391E0909376018823B9F059
:1007D000C091B800D091BA008091BC008A7B809310
:1007E000BC0060E082E10E94880060E083E10E943A
:1007F00088000E94C303D093BA00C093B800DF9171
:10080000CF9108958F929F92AF92BF92CF92DF9235
:10081000EF92FF920F931F93CF93DF93D091390202
:10082000D13208F0D7C0182FC09138020E941001B1
:100830006B017C018091100281116BC082E080937A
:10084000100210930F028FEF80930E0210920D0290
:10085000D0930C02A8E1B2E0ECEEF1E080E0D81316
:1008600091C01092EB018091EB01CC0FC82BC0938B
:10087000EB018091EA01813009F088C01092EA0111
:100880000E9410016B017C018091EB018093BB0001
:100890008091120290911302A0911402B09115025E
:1008A000892B8A2B8B2BA1F00E9410010091120240
:1008B0001091130220911402309115026C197D09D8
:1008C0008E099F09061717072807390708F442C041
:1008D0008091BC0083FDD8CF85EC8093BC000E9442
:1008E00010016B017C0180911002823009F450C02C
:1008F00080910E028F3F09F46FC080910E0280320A
:1009000009F46CC080910E02803309F469C084E060
:1009100026C08091120290911302A0911402B0910E
:100920001502892B8A2B8B2B09F484CF0E9410018E
:100930008090120290901302A0901402B0901502C1
:100940006C197D098E099F0986169706A806B906B7
:1009500008F070CF809111020E94E10385E01092AF
:1009600017021092390210921602DF91CF911F9157
:100970000F91FF90EF90DF90CF90BF90AF909F903E
:100980008F9008959D9191938F5F69CF85EEA5CF4C
:100990008091120290911302A0911402B09115025D
:1009A000892B8A2B8B2B09F49ECF0E94100100917A
:1009B00012021091130220911402309115026C1949
:1009C0007D098E099F09061717072807390708F0C0
:1009D0008ACFC0CF81E0C3CF80E0C1CF82E0BFCF5C
:1009E00083E0BDCF1F93CF93DF93EA01122FDC0189
:1009F00011968D919C91DC01ED91FC910280F38127
:100A0000E02D0995C817D90729F4812F0E94020407
:100A100091E0811190E0892FDF91CF911F9108958E
:100A2000CF93DF93EC018B818823A1F0888191E043
:100A30009093160280933802109217021092390296
:100A400081E00E94020491E0811190E0892FDF9102
:100A5000CF9108951092C9011092C8011092170207
:100A6000109239020E94C30387E691E09093BC0183
:100A70008093BB0188E691E09093BE018093BD0115
:100A800081E08B83CE010E941005982F8111CECF7B
:100A9000DDCF0895E091C9018091C801E81730F4D5
:100AA000F0E0E653FE4F808190E008958FEF9FEFD6
:100AB00008959091C9018091C8012FEF3FEF9817D9
:100AC00048F4E92FF0E0E653FE4F208130E09F5FCD
:100AD0009093C901C90108958091C8019091C901FD
:100AE000891B990B0895CF92DF92EF92FF920F939B
:100AF0001F93CF93DF937C01CB018A0120911602D3
:100B0000222389F0EB016B01C40ED51ECC15DD0547
:100B100069F06991D701ED91FC910190F081E02D90
:100B2000C7010995F3CF642F0E949C03C801DF9190
:100B3000CF911F910F91FF90EF90DF90CF9008958C
:100B4000CF93DF931F92CDB7DEB769832091160252
:100B50002223F9F020913902203258F021E030E0D0
:100B6000FC013383228390E080E00F90DF91CF91EE
:100B7000089580911702E82FF0E0E85EFD4F99811B
:100B800090838F5F809317028093390281E090E019
:100B9000ECCF61E0CE0101960E949C03F7CF90E07C
:100BA00080E00895FC0101900020E9F73197AF0142
:100BB000481B590BBC018AE392E00C9469018F92A7
:100BC0009F92AF92BF920F931F93CF93DF93CDB7B6
:100BD000DEB7A1970FB6F894DEBF0FBECDBF19A246
:100BE000423008F44AE08E010F5D1F4F842E912C95
:100BF000B12CA12CA50194010E947515E62FB90115
:100C0000CA01EA30F4F4E05DD801EE938D01232BA4
:100C1000242B252B79F790E080E0109719F0CD0177
:100C20000E94D205A1960FB6F894DEBF0FBECDBFCD
:100C3000DF91CF911F910F91BF90AF909F908F90B8
:100C40000895E95CE1CF0F931F93CF93DF9300D01A
:100C5000CDB7DEB76A83E091E302F091E40230970A
:100C6000F9F0898384819581029798F0808191E0E1
:100C70009093160280933802109217021092390254
:100C800021E042E050E0BE016F5F7F4FCF010E9444
:100C9000F2040F900F90DF91CF911F910F91089563
:100CA0008F7789830091E5021091E602C8010E94C6
:100CB0007E026981C8010E9491026A81C8010E9476
:100CC0009102C8010E947602E4CFEF92FF920F9347
:100CD0001F93CF93DF93CCE1D3E08295880F880FE9
:100CE000807C67704770440F440F440F862B842B21
:100CF00088830DE113E0822F8295880F807EF801B2
:100D000020812F71282B20838BE1E82E83E0F82EA1
:100D1000F7018081807C8F77808360E084EF0E9480
:100D20002306F801608162956695677082EF0E94E4
:100D30002306F7018081682F6770F0E26F9FB00192
:100D40001124282F269526952695277094E0299F13
:100D500090011124622B87FB882780F9682B85EF8F
:100D60000E9423068881682F6770E0E26E9FB001C1
:100D70001124282F2695269526952770F4E02F9F7D
:100D800090011124622B8295869586958370682B3D
:100D900084EFDF91CF911F910F91FF90EF900C9412
:100DA00023062F923F924F925F926F927F928F9283
:100DB0009F92AF92BF92CF92DF92EF92FF920F93EA
:100DC0001F93CF93DF93DC011496ED91FC9115975F
:100DD000EF2B09F425C169012A01EC01888191E01A
:100DE00090931602809338021092170210923902E3
:100DF00020E041E050E0CD010E94F204782E8823EB
:100E000009F40EC1F12CE12C332433948C819D81A3
:100E100086010E191F098017910708F48C0128809C
:100E20000E9410014B015C0180911002811173C07E
:100E3000602EB0E2B01710F480E2682E30921002FB
:100E400021E0C601801B910BE816F90608F420E0AA
:100E500020930F02EFEFE0930E0210920D028FEF3E
:100E6000860D80930C023092EB018091EB01220CF5
:100E7000282A2092EB018091EA01813009F090C08C
:100E80001092EA010E9410014B015C018091EB017C
:100E90008093BB008091120290911302A0911402E2
:100EA000B0911502892B8A2B8B2BA1F00E94100187
:100EB00020911202309113024091140250911502B8
:100EC000681979098A099B092617370748075907BE
:100ED00008F442C08091BC0083FDD8CFF5ECF093BC
:100EE000BC000E9410014B015C0180911002813016
:100EF00009F45AC080910D02861510F460900D021D
:100F0000ACEEB1E0EAECF1E080E0861551F19D91A4
:100F100091938F5FFACF8091120290911302A0916A
:100F20001402B0911502892B8A2B8B2B09F47CCFEC
:100F30000E9410012091120230911302409114027C
:100F400050911502681979098A099B0926173707F4
:100F50004807590708F068CF809111020E94E10309
:100F6000612C1092C9016092C8016016110609F047
:100F700057C042018E0C9F1C5401C5018819990964
:100F80008017910798F589819A81DC01ED91FC9198
:100F90000284F385E02D0995F50181935F01EDCF82
:100FA00085EE8093BC009DCF809112029091130238
:100FB000A0911402B0911502892B8A2B8B2B09F476
:100FC00094CF0E941001209112023091130240919F
:100FD000140250911502681979098A099B0926178C
:100FE00037074807590708F080CFB6CFE00EF11E4B
:100FF000EC14FD0408F40ACF872DDF91CF911F91E7
:101000000F91FF90EF90DF90CF90BF90AF909F90A7
:101010008F907F906F905F904F903F902F900895AA
:10102000712CEACFCF93DF931F92CDB7DEB7E0915B
:10103000E302F091E402898321E030E0AE014F5FEA
:101040005F4FBA01309741F0CF010E94D1068981EC
:101050000F90DF91CF9108958091E5029091E60283
:101060000E947203F4CFCF93DF9300D0CDB7DEB7E9
:10107000E091E302F091E402898322E030E0AE01E6
:101080004F5F5F4FBA01309769F0CF010E94D106E0
:1010900089819A819827892798270F900F90DF914F
:1010A000CF9108958091E5029091E6020E9472032B
:1010B000EFCF0E9433089827892798270895CF9368
:1010C000DF9300D01F92CDB7DEB7E091E302F0913D
:1010D000E402898323E030E0AE014F5F5F4FBA0145
:1010E0003097A9F0CF010E94D10629816A8170E072
:1010F00090E080E0982F872F762F6627822B2B8118
:10110000622B0F900F900F90DF91CF9108958091F7
:10111000E5029091E6020E947203E7CF4F925F9240
:101120006F927F928F929F92AF92BF92CF92DF92F7
:10113000EF92FF9280911C03877009F49EC08AEFA2
:101140000E945F082B013C0184E0759467945794DA
:1011500047948A95D1F7C090FA02D090FB02C30160
:10116000B20128E030E040E050E00E949715F12CF9
:10117000E12CD701C601880F991FAA1FBB1F281B8E
:10118000390B4A0B5B0BA091FC02B091FD020E944F
:10119000C1154B015C01C301B20120E130E040E028
:1011A00050E00E949715CA01B9016C197D098E099A
:1011B0009F099B01AC010E9465159B01AC017CE07D
:1011C00055954795379527957A95D1F7A091FE02C9
:1011D000B091FF020E94C1152B013C01C501B40171
:1011E00020E038E040E050E00E94971569017A0164
:1011F000C301B20120E030E440E050E00E949715C6
:101200002C0D3D1D4E1D5F1D8091F6029091F70241
:10121000A091F802B091F902280F391F4A1F5B1FF5
:101220002093F2023093F3024093F4025093F502BC
:10123000A5E0B0E00E94B61560587F4F8F4F9F4FDA
:1012400020E031E040E050E00E949715CA01B9016A
:101250000E94F01320E030E048EC52E40E94471373
:10126000FF90EF90DF90CF90BF90AF909F908F90C6
:101270007F906F905F904F90089560E070E080ECF9
:101280009FE7EECF4F925F926F927F928F929F92E5
:10129000AF92BF92CF92DF92EF92FF920F931F9384
:1012A000CF936B017C01742EAC019B010E946015F1
:1012B000882399F08AE291E0CF911F910F91FF90DE
:1012C000EF90DF90CF90BF90AF909F908F907F90E6
:1012D0006F905F904F900C94D20546015701E894AF
:1012E000B7F82FEF3FEF4FE75FE7C501B4010E946A
:1012F000601581110DC02FEF3FEF4FE75FE7C5018C
:10130000B4010E94421318161CF48EE291E0D4CF6F
:101310002FEF3FEF4FE75FE4C701B6010E94EE14E5
:1013200018161CF482E391E0C7CF2FEF3FEF4FE791
:101330005FECC701B6010E94421387FDF3CF20E0A6
:1013400030E0A901C701B6010E94421310E000E09D
:1013500087FF0AC06DE28AE392E00E9409028C01D5
:10136000F7FAF094F7F8F094C0E060E070E080E005
:101370009FE37C1641F020E030E040E251E40E941F
:101380004713CF5FF6CFA70196010E94D6122B011B
:101390003C010E94B9134B015C014AE00E94DF0549
:1013A0007C01E00EF11ECC23C1F1C501B4010E9405
:1013B000EE139B01AC01C301B2010E94D5124B0197
:1013C0005C016EE28AE392E00E940902E80EF91ED7
:1013D000C15018F120E030E040E251E4C501B40111
:1013E0000E94F3142B013C010E94B9134B01B12C54
:1013F000A12C4AE0C501B4010E94DF05E80EF91EE8
:10140000C501B4010E94EE139B01AC01C301B201FE
:101410000E94D5124B015C01DBCFC701CF911F9118
:101420000F91FF90EF90DF90CF90BF90AF909F9083
:101430008F907F906F905F904F90089585ED80938F
:10144000BC008091120290911302A0911402B091FD
:1014500015020796A11DB11D23E0B695A795979596
:1014600087952A95D1F72091BC0024FD03C01092E6
:1014700010020895409112025091130260911402DB
:1014800070911502452B462B472B69F30097A10558
:10149000B10541F02AE22A95F1F700C00197A109B0
:1014A000B109E1CF809111020C94E1031F920F92D8
:1014B0000FB60F9211242F933F938F939F93AF9367
:1014C000BF938091C0019091C101A091C201B091E0
:1014D000C3013091BF0123E0230F2D3758F501964A
:1014E000A11DB11D2093BF018093C0019093C10144
:1014F000A093C201B093C3018091C4019091C50132
:10150000A091C601B091C7010196A11DB11D8093A4
:10151000C4019093C501A093C601B093C701BF91C8
:10152000AF919F918F913F912F910F900FBE0F9090
:101530001F90189526E8230F0296A11DB11DD2CF4A
:101540001F920F920FB60F9211242F933F934F9338
:101550005F936F937F938F939F93AF93BF93EF931B
:10156000FF938AE392E00E94E701FF91EF91BF9120
:10157000AF919F918F917F916F915F914F913F912B
:101580002F910F900FBE0F901F9018951F920F92E2
:101590000FB60F9211242F938F939F93EF93FF9386
:1015A000E0914A02F0914B028081E0915002F0916B
:1015B000510282FD1BC09081809153028F5F8F7317
:1015C00020915402821741F0E0915302F0E0E65C72
:1015D000FD4F958F80935302FF91EF919F918F91D3
:1015E0002F910F900FBE0F901F9018958081F4CF10
:1015F0001F920F920FB60F9211242F933F934F9388
:101600005F936F937F938F939F93AF93BF93EF936A
:10161000FF938091B900887F803609F44AC0F0F5C5
:10162000883209F4A7C018F5803109F49BC0B8F4DA
:10163000882309F4F9C0883009F494C0FF91EF9130
:10164000BF91AF919F918F917F916F915F914F91DA
:101650003F912F910F900FBE0F901F9018958831DA
:1016600009F488C0803251F780930E0214C0803490
:1016700009F49DC040F48033B9F38833F9F68093C0
:101680000E0285ECB0C0803509F485C0883509F4B8
:1016900096C0883499F60E941E0AD0CF883909F482
:1016A0008CC038F5883729F050F4883611F080372F
:1016B00029F683E0809310021092B90157C0883850
:1016C00009F47BC0803919F0803809F0B7CF8091D8
:1016D000B901803208F071C0E091B90181E08E0F4C
:1016E0008093B9018091BB00F0E0E756FE4F808304
:1016F0003DC0803B39F0E0F4803A09F479C0883A83
:1017000009F09CCF84E0809310021092980110920F
:101710009701E091BB01F091BC010995809197017F
:1017200081110FC081E0809397011092770109C069
:10173000803C09F4A6CF883C09F4A3CF883B09F08C
:101740007DCFE091980181E08E0F80939801F0E0C9
:10175000E958FE4F80818093BB0090919801809161
:10176000970129C08091EB018093BB0085EC8093A9
:10177000BC0064CF90910D0280910C02981758F52F
:10178000E0910D0281E08E0F80930D02F0E0E451B4
:10179000FE4F8081E9CFE0910D0281E08E0F8093B2
:1017A0000D028091BB00F0E0E451FE4F80839091E8
:1017B0000D0280910C029817C8F285E8D8CFE0910D
:1017C0000D0281E08E0F80930D028091BB00F0E04E
:1017D000E451FE4F808380910F0281115CCF81E044
:1017E0008093EA0184EA8093BC001092100226CF15
:1017F00085EC8093BC00109210028091B901803278
:1018000030F4E091B901F0E0E756FE4F10826091AC
:10181000B90170E0E091BD01F091BE0189E991E06C
:1018200009951092B9010ACF10920E0234CFEAE363
:10183000F2E01382128288EE93E0A0E0B0E08483AD
:101840009583A683B7832AE031E03183208325EC9A
:1018500030E03587248724EC30E03787268720EC7A
:1018600030E0318B208B21EC30E0338B228B22EC6B
:1018700030E0358B248B26EC30E0378B268B118EB5
:10188000128E138E148EE7EDF2E01382128284839F
:101890009583A683B7838CE191E091838083E3EE07
:1018A000F2E0118210821382128215821482178252
:1018B000168211861086138A148A158A168A08954C
:1018C000CF93DF93CDB7DEB76B970FB6F894DEBF3B
:1018D0000FBECDBF789484B5826084BD84B581602D
:1018E00084BD85B5826085BD85B5816085BD8091EB
:1018F0006E00816080936E00109281008091810063
:10190000826080938100809181008160809381005A
:10191000809180008160809380008091B10084601C
:101920008093B1008091B00081608093B00080917D
:101930007A00846080937A0080917A00826080933C
:101940007A0080917A00816080937A0080917A0099
:10195000806880937A001092C100E0914A02F09171
:101960004B0282E08083E0914602F09147021082B0
:10197000E0914802F091490280E180831092520286
:10198000E0914E02F0914F0286E08083E0914C029C
:10199000F0914D02808180618083E0914C02F09152
:1019A0004D02808188608083E0914C02F0914D026D
:1019B000808180688083E0914C02F0914D028081AB
:1019C0008F7D80838CE08093B8002091E502309178
:1019D000E6023F8B2E8B232B09F04DC08091E30252
:1019E0009091E402009711F00E94FD1786E090E0CC
:1019F0000E9461179F8B8E8B86E7EE89FF8980831B
:101A000087ED92E092838183138280E290E0958358
:101A10008483F093E402E093E3021092C9011092F0
:101A2000C80110921702109239020E94C30387E680
:101A300091E09093BC018093BB0188E691E0909384
:101A4000BE018093BD0181E0EE89FF898383CF01D0
:101A50000E94100581115BC08BE491E00E94D205C9
:101A600088E491E00E94D2056AE070E080E090E0B6
:101A70000E943501F9CFEE89FF8983858F3F49F0B8
:101A800061E00E94D40061E0EE89FF8983850E94B5
:101A90008800EE89FF8980819181892B09F45EC1DC
:101AA0001FB7F8948091BA01811127C0E6E8F0E0F1
:101AB0008491EAE9F0E09491E82FF0E0EE0FFF1F47
:101AC000E859FF4FA591B491EC91E92321F461E02D
:101AD0008AE00E94880061E08AE00E94D4008CB510
:101AE00080618CBD8CB580648CBD61E08DE00E940E
:101AF000D40061E08BE00E94D4008091BA018F5F36
:101B00008093BA011FBF81E0EE89FF89838F80ED4A
:101B10000E94120890E0B0E0A0E08093EE02909363
:101B2000EF02A093F002B093F10280369105A10577
:101B3000B10509F091CF66EB80EE0E9423066AE0C2
:101B400070E080E090E00E94350183EF0E9412086F
:101B500080FDF5CF88E80E9459089093FB0280939E
:101B6000FA028AE80E9459089093FD028093FC02D1
:101B70008CE80E9459089093FF028093FE028EE841
:101B80000E945908909301038093000380E90E940A
:101B90005908909303038093020382E90E94590835
:101BA000909305038093040384E90E94590890935D
:101BB00007038093060386E90E945908909309035E
:101BC0008093080388E90E94590890930B0380933F
:101BD0000A038AE90E94590890930D0380930C032D
:101BE0008CE90E94590890930F0380930E038EE9AD
:101BF0000E945908909311038093100381EA0E9478
:101C000012088093120381EE0E94590890931403E6
:101C10008093130383EE0E9412088093150384EED1
:101C20000E941208898385EE0E941208F98140E122
:101C3000F402900111248F70282B30931703209306
:101C4000160386EE0E941208898385EE0E94120810
:101C5000F98120E1F202F001112490E004E0959571
:101C600087950A95E1F78E2B9F2B9093190380930C
:101C7000180387EE0E94120880931A0325E030E0D3
:101C800045E050E065E070E083E090E00E9465068A
:101C900064E670E080E090E00E94350121E030E0F1
:101CA00041E050E061E070E081E090E00E94650674
:101CB00086E391E00E94D20588E491E00E94D2057B
:101CC0000E9410016B017C0180911C03982F907C75
:101CD000903409F06DC0682F677030E2639FB001E7
:101CE0001124282F269526952695277044E0249FB9
:101CF00090011124622B8295869586958370682BBE
:101D000084EF0E9423068FB7F8948090C0019090D2
:101D1000C101A090C201B090C3018FBF83EF0E94A8
:101D2000120883FFECC32FB7F8948091C001909103
:101D3000C101A091C201B091C3012FBF88199909B7
:101D4000AA09BB09813D9740A105B10588F561E06D
:101D500070E080E090E00E943501E0CF61E0EE8924
:101D6000FF8984850E94D400EE89FF8982858B7F5C
:101D700060E019F061E0EE89FF8984850E948800A7
:101D8000EE89FF8985858F3F49F061E00E94D4008C
:101D900061E0EE89FF8985850E948800EE89FF89D0
:101DA00086858F3F09F4AFCE60E00E94D400ABCEB1
:101DB00019820E9410019B01AC012C193D094E09AA
:101DC0005F0969017A0180E691E00E94D2053981BC
:101DD000632F70E090E080E04AE00E94DF0584E637
:101DE00091E00E94D2054AE0C701B6010E94DF05DA
:101DF00089E691E00E94D2050E948E0842E00E948E
:101E000042098DE691E00E94D20580911C038873FF
:101E100009F478C30E948E0887EF0E945F086E8BDA
:101E20007F8B888F998F8091F2029091F302A0911D
:101E3000F402B091F5026C017D01FF0CCC08DC2CA2
:101E400076019C01AD016C2D7C2D8C2D9C2D345F79
:101E50004140510961097109810991092B8F3A8F1C
:101E600049835A836B837C838D839E8359016A01E6
:101E70007B018C010E94C9152F83388749875A87B7
:101E80006B877C878D879E873091030320910203A7
:101E9000932F990F990B492F592F692F792F892F3C
:101EA0000E94C9150CE00E94F81619012A013B0195
:101EB0004C013091050320910403932F990F990B46
:101EC000AF80B884C984DA84EB84FC840D851E85D8
:101ED000492F592F692F792F892F0E94C915F22E6A
:101EE000032F142FB52FF62FE72FD82EE92EA0E0C1
:101EF0000E94401784F421503F4F4F4F5F4F6F4F68
:101F00007F4F8F4F9F4FF22E032F142FB52FF62F99
:101F1000E72FD82EE92E2F2D302F412F5B2F6F2F3B
:101F20007E2F8D2D9E2D08E00E9411175101620118
:101F3000730184010E942E1770588F4F9F4F20907D
:101F40000003309001035101C12CD12CE12CF12C64
:101F500000E010E00E94C915F22E032F142FB52FB8
:101F6000F62FE72FD82EE92EA0E00E94401784F428
:101F700021503109410951096E4F7F4F8F4F9F4FBB
:101F8000F22E032F142FB52FF62FE72FD82EE92E80
:101F90002F2D302F412F5B2F6F2F7E2F8D2D9E2DBC
:101FA00001E20E9411172F87388B498B5A8B6B8B5C
:101FB0007C8B8D8B692EA0E00E94401709F4A7C28C
:101FC00030910B0320910A03932F990F990BAF8047
:101FD000B884C984DA84EB84FC840D851E85492F7E
:101FE000592F692F792F892F0E94C91519012A01AC
:101FF0006F83772E4C013091090320910803932FB2
:10200000990F990BAB8CBA8CC980DA80EB80FC807D
:102010000D811E81492F592F692F792F892F0E94F9
:10202000C91501E10E94F81651016201EF80F72CF9
:1020300084010E942E1759016A017B01782E192F05
:102040008E899F89A88DB98D24E0B595A795979520
:1020500087952A95D1F720E030E040E150E0281B39
:10206000390B4A0B5B0BDA01C90119012A01550C26
:102070002208322C21019C01AD01622D722D822D8E
:10208000922D0FE10E94F81649014A835983B62F19
:10209000A72FF82FE92F3091070320910603932FE4
:1020A000990F990B492F592F692F792F892F03E207
:1020B0000E94F816072D0E942E1759016A017B0114
:1020C0008C0194014A8159816B2F7A2F8F2F9E2F7B
:1020D0000E943717E5E3AE2EFCE0BF2EC12CD12CB9
:1020E000E12CF12C00E010E00E94C915AF84B88803
:1020F000C988DA88EB88FC880D89162D0E94231682
:102100002F83232E2A013B014C01022F132F4983D9
:10211000B52DF62FE72D7C01A0E00E94401774F446
:102120002150304E4F4F5F4F6F4F7F4F8F4F9F4F1C
:1021300089014983B52FF62FE72F7C01980149814A
:102140005B2F6F2F7E2FC7010DE00E941117322EDB
:1021500039834A835B836C837D838E839887309138
:10216000110320911003932F990F990BA32CB98081
:102170006A017B01082F1885492F592F692F792F64
:10218000892F0E94C9150E94C91589014983B52F5D
:10219000F62FE72F7C01A0E00E94401774F4215035
:1021A000310941095E4F6F4F7F4F8F4F9F4F89011C
:1021B0004983B52FF62FE72F7C01980149815B2FCA
:1021C0006F2F7E2FC70109E10E941117AF80B22C3B
:1021D0006201730184010E942E17322E39834A83D3
:1021E0005B836C837D838E83988730910F0320916E
:1021F0000E03932F990F990B492F592F692F792F80
:10220000892F0E94C91589014F83B52FF62FE72F1B
:102210007C01A0E00E94401774F421503109484F1E
:102220005F4F6F4F7F4F8F4F9F4F89014F83B52F68
:10223000F62FE72F7C0198014F815B2F6F2F7E2FA8
:10224000C70103E10E94111759016A017B018C014A
:10225000232D39814A815B816C817D818E819885B6
:102260000E942E17122F3A834983B52FF62FE72F9E
:10227000F82E092FA0E00E94401784F421503F4F10
:102280004F4F5F4F6F4F7F4F8F4F9F4F122F3A83AC
:102290004983B52FF62FE72FF82E092F212F3A81EA
:1022A00049815B2F6F2F7E2F8F2D902F08E00E948A
:1022B00011172983F32F6A017B01E82F192F8091D1
:1022C0000C0390910D03092E000CAA0BBB0B4C01C3
:1022D0005D01BB0C8808982C54019C01AD01682D50
:1022E000782D882D982D04E00E94F816A980BF2E25
:1022F0000E2F0E942E170E94E81320E030E040E8E5
:102300005BE30E94F31420E030E048EC52E40E94CA
:10231000471342E00E94420981E791E00E94D20502
:1023200080911D03807E09F4F6C00E948E088DEF17
:102330000E943308C090F202D090F302E090F402C1
:10234000F090F5023CE2D31A31E0E30AF108B0E084
:10235000A0E04C015D013EE0880C991CAA1CBB1C4E
:102360003A95D1F74091160350911703052E000CB2
:10237000660B770BE4E1440F551F661F771FEA9544
:10238000D1F7841A950AA60AB70AA0911803B0914A
:102390001903A70196010E94C115861A970AA80A77
:1023A000B90AC501B401705C8F4F9F4F20E030E83F
:1023B00040E050E00E94971529013A01A0911503D1
:1023C000B0E0A70196010E94B61520E038E040E099
:1023D00050E00E94971549015A0180E8980EA11C0F
:1023E000B11CA0911A030A2E000CBB0BA701960189
:1023F0000E94C11520E034E040E050E00E949715B3
:10240000CA01B901A50194010E94651520E034E0DC
:1024100040E050E00E949715405E5F4FA09113038B
:10242000B09114030E94C115705E8F4F9F4F20E042
:1024300030E440E050E00E949715C301B2010E94D1
:1024400065156B017C0120E030E840E050E00E941F
:102450009715CA01B9010E9465159B01AC01F7E00F
:102460005595479537952795FA95D1F7A091120381
:10247000B0E00E94B61520E130E040E050E00E945C
:102480009715C21AD30AE40AF50AF7FE03C0C12C55
:10249000D12C7601C701B601613071058105E9E1F2
:1024A0009E0724F060E070E080E099E12CE09595D3
:1024B0008795779567952A95D1F70E94EE1320E0CE
:1024C00030E040E85AE30E94F31442E00E944209DF
:1024D00088E491E00E94D20564E670E080E090E03C
:1024E0000E94350120E030E0232B09F4E9CB0E9463
:1024F000D301882309F4E4CB0E940000E1CB81E002
:10250000898357CC60E070E080EC9FE7FCCE60E010
:1025100070E0CB01F8CE60E070E080EC9FE7D5CFB3
:10252000CF93DF93C091E502D091E602209749F066
:102530008A819B81009711F00E94FD17CE010E94B5
:10254000FD178091E3029091E402009711F00E9440
:10255000FD178091E7029091E802009739F0DC01C5
:10256000ED91FC910280F381E02D09958091E902C3
:102570009091EA02009739F0DC01ED91FC91028024
:10258000F381E02D09958091EB029091EC02009788
:1025900049F0DC01ED91FC910280F381E02DDF91A7
:1025A000CF910994DF91CF9108955058BB27AA2766
:1025B0000E94ED120C94B4140E94A61438F00E94EC
:1025C000AD1420F039F49F3F19F426F40C949314C1
:1025D0000EF4E095E7FB0C948D14E92F0E94C514CE
:1025E00058F3BA17620773078407950720F079F448
:1025F000A6F50C94E7140EF4E0950B2EBA2FA02D3F
:102600000B01B90190010C01CA01A0011124FF279F
:10261000591B99F0593F50F4503E68F11A16F0409A
:10262000A22F232F342F4427585FF3CF4695379599
:102630002795A795F0405395C9F77EF41F16BA0B5E
:10264000620B730B840BBAF09150A1F0FF0FBB1F0C
:10265000661F771F881FC2F70EC0BA0F621F731F55
:10266000841F48F4879577956795B795F7959E3FB2
:1026700008F0B0CF9395880F08F09927EE0F979543
:10268000879508950E94691408F481E008950E94D6
:102690005B130C94B4140E94AD1458F00E94A6145D
:1026A00040F029F45F3F29F00C948D1451110C94E3
:1026B000E8140C9493140E94C51468F39923B1F3A1
:1026C000552391F3951B550BBB27AA276217730758
:1026D000840738F09F5F5F4F220F331F441FAA1FEC
:1026E000A9F335D00E2E3AF0E0E832D091505040A8
:1026F000E695001CCAF72BD0FE2F29D0660F771F56
:10270000881FBB1F261737074807AB07B0E809F03B
:10271000BB0B802DBF01FF2793585F4F3AF09E3FC0
:10272000510578F00C948D140C94E8145F3FE4F399
:10273000983ED4F3869577956795B795F7959F5F03
:10274000C9F7880F911D9695879597F90895E1E04F
:10275000660F771F881FBB1F621773078407BA07AE
:1027600020F0621B730B840BBA0BEE1F88F7E09509
:1027700008950E94CD1488F09F5798F0B92F99279B
:10278000B751B0F0E1F0660F771F881F991F1AF05C
:10279000BA95C9F714C0B13091F00E94E714B1E0C6
:1027A00008950C94E714672F782F8827B85F39F0C5
:1027B000B93FCCF3869577956795B395D9F73EF4F5
:1027C00090958095709561957F4F8F4F9F4F08959D
:1027D00097FB16F40E9496140C942C14E89409C0EC
:1027E00097FB3EF490958095709561957F4F8F4F44
:1027F0009F4F9923A9F0F92F96E9BB279395F6955A
:10280000879577956795B795F111F8CFFAF4BB0FD7
:1028100011F460FF1BC06F5F7F4F8F4F9F4F16C03B
:10282000882311F096E911C0772321F09EE8872FC5
:10283000762F05C0662371F096E8862F70E060E081
:102840002AF09A95660F771F881FDAF7880F9695FA
:10285000879597F90895E894F92F96EBFF2381F077
:10286000121613061406440B9395F69587957795E3
:10287000679557954040FF23B9F71BC099270895E6
:10288000882351F49850D2F7872B762F652F542F39
:10289000432F322F20E0B1F3121613061406440B17
:1028A00088233AF09A95440F551F661F771F881F9B
:1028B000CAF755234AF4440F551F11F460FF04C0B2
:1028C0006F5F7F4F8F4F9F4F880F9695879597F932
:1028D0000895990F0008550FAA0BE0E8FEEF1616B1
:1028E0001706E807F907C0F012161306E407F50704
:1028F00098F0621B730B840B950B39F40A2661F078
:10290000232B242B252B21F408950A2609F4A1401A
:10291000A6958FEF811D811D089597F99F6780E827
:1029200070E060E008959FEF80EC089590958095A9
:102930007095609550954095309521953F4F4F4F3C
:102940005F4F6F4F7F4F8F4F9F4F089500240A9422
:102950001616170618060906089500240A9412167A
:102960001306140605060895092E0394000C11F4AD
:10297000882352F0BB0F40F4BF2B11F460FF04C05A
:102980006F5F7F4F8F4F9F4F089557FD9058440FB3
:10299000551F59F05F3F71F04795880F97FB991FBE
:1029A00061F09F3F79F0879508951216130614067B
:1029B000551FF2CF4695F1DF08C016161706180608
:1029C000991FF1CF86957105610508940895E894E3
:1029D000BB2766277727CB0197F908950E946914D2
:1029E00008F48FEF08950E9406150C94B4140E9409
:1029F000A61438F00E94AD1420F0952311F00C9429
:102A00008D140C94931411240C94E8140E94C51492
:102A100070F3959FC1F3950F50E0551F629FF00131
:102A2000729FBB27F00DB11D639FAA27F00DB11D4A
:102A3000AA1F649F6627B00DA11D661F829F2227D3
:102A4000B00DA11D621F739FB00DA11D621F839F5A
:102A5000A00D611D221F749F3327A00D611D231F30
:102A6000849F600D211D822F762F6A2F11249F577E
:102A700050409AF0F1F088234AF0EE0FFF1FBB1F81
:102A8000661F771F881F91505040A9F79E3F510540
:102A900080F00C948D140C94E8145F3FE4F3983E9E
:102AA000D4F3869577956795B795F795E7959F5FEA
:102AB000C1F7FE2B880F911D9695879597F908957C
:102AC0000E946914880B990B0895DB018F939F93E3
:102AD0000E94B615BF91AF91A29F800D911DA39F3B
:102AE000900DB29F900D11240895A1E21A2EAA1BF9
:102AF000BB1BFD010DC0AA1FBB1FEE1FFF1FA217AE
:102B0000B307E407F50720F0A21BB30BE40BF50BAA
:102B1000661F771F881F991F1A9469F76095709533
:102B2000809590959B01AC01BD01CF010895052EC4
:102B300097FB1EF400940E94AE1557FD07D00E942B
:102B4000751507FC03D04EF40C94AE1550954095C6
:102B5000309521953F4F4F4F5F4F08959095809549
:102B6000709561957F4F8F4F9F4F08950E94521728
:102B7000A59F900DB49F900DA49F800D911D1124D1
:102B80000895B7FF0C94B6150E94B615821B930BDF
:102B90000895DF93CF931F930F939A9DF02D219F5C
:102BA000F00D8B9DF00D8A9DE02DF10D039FF00D32
:102BB000029FE00DF11D4E9DE00DF11D5E9DF00D9B
:102BC0004F9DF00D7F936F93BF92AF925F934F93A2
:102BD000D5010E9452178B01AC01D7010E945217F8
:102BE000EB01E80FF91FD6010E9418162F913F91B3
:102BF000D6010E945217C60FD71FE81FF91FAF91C9
:102C0000BF910E9418162F913F910E945217C60F34
:102C1000D71FE81FF91FD6010E945217E60FF71FB2
:102C20009801BE01CF010F911F91CF91DF910895BF
:102C30000E945217460F571FC81FD91F08F431961C
:102C40000895689401C0E894F92FF12B12F00C94C8
:102C50005516A0E0B0E0EFE2F6E10C94C716092E9D
:102C6000059422F40E94B116112392F4F0E80F2685
:102C7000FFEFE094F09400951095B094C094D09438
:102C8000A194BF0ACF0ADF0AEF0AFF0A0F0B1F0B3E
:102C90000E94601607FC0E94B116CDB7DEB7ECE0CB
:102CA0000C94E316689401C0E8948F929F92CF939E
:102CB000DF930E946016DF91CF919F908F900895CF
:102CC00088249924F401E401B0E49F93AA279A157B
:102CD0008B049C04ED05FE05CF05D007A10798F4F1
:102CE000AD2FDC2FCF2FFE2FE92D982C892E982F7A
:102CF000872F762F652F542F432F322F2227B8503E
:102D000031F7BF9127C01B2EBF91BB27220F331F66
:102D1000441F551F661F771F881F991F881C991C09
:102D2000EE1FFF1FCC1FDD1FAA1FBB1F8A149B04B1
:102D3000EC05FD05CE05DF05A007B10748F08A18B0
:102D40009B08EC09FD09CE09DF09A00BB10B21603E
:102D50001A94E1F62EF49401AF01BE01CD01000CEE
:102D60000895609570958095909530954095509513
:102D700021953F4F4F4F5F4F6F4F7F4F8F4F9F4F6B
:102D800008952F923F924F925F926F927F928F920F
:102D90009F92AF92BF92CF92DF92EF92FF920F93EA
:102DA0001F93CF93DF93CDB7DEB7CA1BDB0B0FB6F4
:102DB000F894DEBF0FBECDBF09942A8839884888B1
:102DC0005F846E847D848C849B84AA84B984C88447
:102DD000DF80EE80FD800C811B81AA81B981CE0F3E
:102DE000D11D0FB6F894DEBF0FBECDBFED01089523
:102DF000002E083090F0982F872F762F652F542FB4
:102E0000432F322F22270850F4CF220F331F441FA5
:102E1000551F661F771F881F991F0A95B2F7002D4F
:102E2000089597FD1094002E083098F00850232F35
:102E3000342F452F562F672F782F892F912DF4CFC0
:102E400015949795879577956795579547953795F5
:102E500027950A95AAF71124002D08952A0D3B1DE8
:102E60004C1D5D1D6E1D7F1D801F911F08952A1929
:102E70003B094C095D096E097F09800B910B089590
:102E80000024A7FD00942A17300540055005600571
:102E90007005800590050895EE0FFF1F0590F491D1
:102EA000E02D0994A29FB001B39FC001A39F700DB4
:102EB000811D1124911DB29F700D811D1124911D42
:102EC00008950F931F93CF93DF938230910510F4F1
:102ED00082E090E0E0912003F091210330E020E0D7
:102EE000B0E0A0E0309799F42115310509F44AC00B
:102EF000281B390B24303105D8F58A819B81611557
:102F0000710589F1FB0193838283FE0111C0408129
:102F100051810281138148175907E0F0481759077A
:102F200099F4109761F012960C93129713961C93D4
:102F30003296CF01DF91CF911F910F9108950093A9
:102F4000200310932103F4CF2115310551F04217CE
:102F5000530738F0A901DB019A01BD01DF01F80137
:102F6000C1CFEF01F9CF9093210380932003CDCF00
:102F7000FE01E20FF31F81939193225031093983AF
:102F80002883D7CF20911E0330911F03232B41F4B8
:102F9000209102013091030130931F0320931E03FF
:102FA00020910001309101012115310541F42DB727
:102FB0003EB74091040150910501241B350BE0916F
:102FC0001E03F0911F03E217F307A0F42E1B3F0B23
:102FD0002817390778F0AC014E5F5F4F241735078B
:102FE00048F04E0F5F1F50931F0340931E038193C1
:102FF00091939FCFF0E0E0E09CCFCF93DF930097D9
:10300000E9F0FC01329713821282A0912003B09163
:103010002103ED0130E020E01097A1F420813181FF
:10302000820F931F20911E0330911F032817390729
:1030300009F061C0F0931F03E0931E03DF91CF916D
:103040000895EA01CE17DF07E8F54A815B819E010A
:1030500041155105B1F7E901FB83EA834991599183
:10306000C40FD51FEC17FD0761F480819181029692
:10307000840F951FE90199838883828193819B83C3
:103080008A83F0E0E0E012968D919C91139700976F
:10309000B9F52D913C911197CD010296820F931FA6
:1030A00020911E0330911F032817390739F63097F6
:1030B00051F51092210310922003B0931F03A093A7
:1030C0001E03BCCFD383C28340815181840F951FDF
:1030D000C817D90761F44E5F5F4F88819981480F07
:1030E000591F518340838A819B8193838283211559
:1030F000310509F0B0CFF0932103E09320039ECF78
:10310000FD01DC01C0CF13821282D7CF10E0CDE5E4
:10311000D0E004C0FE010E944C172196CE35D107A5
:06312000C9F7F894FFCF8F
:1031260000002203800000000000090269019601E8
:103136005602C701A501B90100000000A0057305EC
:10314600CF0549056C0559054A056E616E00696E25
:1031560066006F766600424D45323830204F4B2070
:10316600666F727A61646F000D0A00424D4532380F
:1031760030206E6F20656E636F6E747261646F00CF
:103186006F6B3D002075733D0020543D0020503D7F
:063196000020483D00008E
:00000001FF
