:100000000C9462000C948A000C948A000C948A0070
:100010000C948A000C948A000C948A000C948A0038
:100020000C948A000C948A000C948A000C948A0028
:100030000C948A000C948A000C948A000C948A0018
:100040000C94F4010C948A000C9464020C943E020B
:100050000C948A000C948A000C948A000C948A00F8
:100060000C948A000C948A000000000024002700F1
:100070002A000000000023002600290000000000E4
:10008000250028002B0004040404040404040202D4
:100090000202020203030303030301020408102007
:1000A0004080010204081020010204081020000012
:1000B0000008000201000003040700000000000027
:1000C0000000ED0311241FBECFEFD8E0DEBFCDBF8F
:1000D00011E0A0E0B1E0E4E4F8E002C005900D9288
:1000E000A234B107D9F721E0A2E4B1E001C01D922A
:1000F000A83EB207E1F710E0C2E6D0E004C02197C5
:10010000FE010E941A04C136D107C9F70E94960267
:100110000C9420040C940000833081F028F481308A
:1001200099F08230A9F008958730A9F08830C9F09D
:100130008430B1F4809180008F7D03C08091800075
:100140008F7780938000089584B58F7784BD08955C
:1001500084B58F7DFBCF8091B0008F778093B00006
:1001600008958091B0008F7DF9CF3FB7F8948091CA
:10017000470190914801A0914901B0914A0126B5EB
:10018000A89B05C02F3F19F00196A11DB11D3FBFCF
:10019000BA2FA92F982F8827BC01CD01620F711D9E
:1001A000811D911D42E0660F771F881F991F4A9598
:1001B000D1F70895AF92BF92CF92DF92EF92FF9264
:1001C0000F931F93CF93DF936C017B018B01040F7F
:1001D000151FEB015E01AE18BF08C017D10759F01B
:1001E0006991D601ED91FC910190F081E02DC6015D
:1001F0000995892B79F7C501DF91CF911F910F9157
:10020000FF90EF90DF90CF90BF90AF900895FC01EA
:10021000538D448D252F30E0842F90E0821B930B6B
:10022000541710F0CF96089501970895FC01918D11
:10023000828D981761F0A28DAE0FBF2FB11D5D9614
:100240008C91928D9F5F9F73928F90E008958FEFB6
:100250009FEF0895FC01918D828D981731F0828D6A
:10026000E80FF11D858D90E008958FEF9FEF0895C1
:10027000FC01918D228D892F90E0805C9F4F821B25
:1002800091098F73992708958BE491E00E943801BA
:1002900021E0892B09F420E0822F089580E090E08E
:1002A000892B29F00E94440181110C9400000895CB
:1002B000FC01A48DA80FB92FB11DA35ABF4F2C91DB
:1002C000848D90E001968F739927848FA689B789D2
:1002D0002C93A089B1898C91837080648C93938DC9
:1002E000848D981306C00288F389E02D80818F7D6C
:1002F00080830895EF92FF920F931F93CF93DF9324
:10030000EC0181E0888F9B8D8C8D98131AC0E88951
:10031000F989808185FF15C09FB7F894EE89FF8920
:100320006083E889F98980818370806480839FBFBE
:1003300081E090E0DF91CF911F910F91FF90EF90BE
:100340000895F62E0B8D10E00F5F1F4F0F731127CE
:10035000E02E8C8D8E110CC00FB607FCFACFE88909
:10036000F989808185FFF5CFCE010E945801F1CF38
:10037000EB8DEC0FFD2FF11DE35AFF4FF0829FB77D
:10038000F8940B8FEA89FB8980818062CFCFCF936D
:10039000DF93EC01888D8823B9F0AA89BB89E889AD
:1003A000F9898C9185FD03C0808186FD0DC00FB653
:1003B00007FCF7CF8C9185FFF2CF808185FFEDCFD1
:1003C000CE010E945801E9CFDF91CF910895FC0141
:1003D00001900020E9F73197AF01481B590BBC0190
:1003E0008BE491E00C94DA001F920F920FB60F92FB
:1003F00011242F933F938F939F93AF93BF9380913B
:10040000430190914401A0914501B0914601309182
:10041000420123E0230F2D3758F50196A11DB11D90
:10042000209342018093430190934401A09345019E
:10043000B09346018091470190914801A0914901F4
:10044000B0914A010196A11DB11D8093470190937F
:100450004801A0934901B0934A01BF91AF919F9188
:100460008F913F912F910F900FBE0F901F90189575
:1004700026E8230F0296A11DB11DD2CF1F920F9225
:100480000FB60F9211242F933F934F935F936F9367
:100490007F938F939F93AF93BF93EF93FF938BE4DF
:1004A00091E00E945801FF91EF91BF91AF919F9110
:1004B0008F917F916F915F914F913F912F910F900D
:1004C0000FBE0F901F9018951F920F920FB60F92AC
:1004D00011242F938F939F93EF93FF93E0915B01F0
:1004E000F0915C018081E0916101F091620182FDF7
:1004F0001BC09081809164018F5F8F732091650193
:10050000821741F0E0916401F0E0E55BFE4F958FCA
:1005100080936401FF91EF919F918F912F910F90A4
:100520000FBE0F901F9018958081F4CF789484B5FA
:10053000826084BD84B5816084BD85B5826085BDDF
:1005400085B5816085BD80916E00816080936E006D
:10055000109281008091810082608093810080915F
:100560008100816080938100809180008160809310
:1005700080008091B10084608093B1008091B000D0
:1005800081608093B00080917A00846080937A00CB
:1005900080917A00826080937A0080917A008160F5
:1005A00080937A0080917A00806880937A0010921C
:1005B000C100E0915B01F0915C0182E08083E091F9
:1005C0005701F09158011082E0915901F0915A01C0
:1005D00080E1808310926301E0915F01F0916001FE
:1005E00086E08083E0915D01F0915E018081806111
:1005F0008083E0915D01F0915E018081886080835D
:10060000E0915D01F0915E01808180688083E091DE
:100610005D01F0915E0180818F7D8083CCE9D0E027
:10062000FE01249108E810E0F80184918823C9F0C4
:1006300090E0880F991FFC01E859FF4FA591B491F4
:10064000FC01E458FF4F459154919FB7F8943C91B9
:10065000822F809583238C93FA018081282B20831D
:100660009FBF57EA252E50E0352EF101249163E912
:10067000862E60E0962EF4018491882399F090E014
:10068000880F991FFC01E859FF4FA591B491FC0117
:10069000E458FF4F859194918FB7F8949C91292B42
:1006A0002C938FBF86E291E00E94E70188E391E0FE
:1006B0000E94E70130E0A32E30E0B32EE0EBF0E043
:1006C0008491FE01F490F801E490EE2009F480C0DA
:1006D00081110E948C00EE2DF0E0EE0FFF1FEE580E
:1006E000FF4FA591B4918C91F82291E080E009F43C
:1006F00090E0E92EF82E6701F1E0CF26EBEBF0E079
:100700008491F1016490F40174907720B1F081112B
:100710000E948C00E72DF0E0EE0FFF1FE458FF4F22
:10072000A591B4918FB7F8949C91E114F10409F468
:1007300052C0609469226C928FBF809100019091A9
:100740000101C816D906A1F08BE391E00E94E701F0
:1007500084E191E0EF2811F48BE191E00E94E70140
:1007600088E391E00E94E701D0920101C09200016C
:100770000E94B5002B013C0184E1C82ED12CE12C54
:10078000F12C0E94B5006419750986099709683E25
:10079000734081059105A8F3F1E0CF1AD108E10873
:1007A000F10828EE420E23E0521E611C711CC11498
:1007B000D104E104F10429F7A114B10409F47ECFB6
:1007C0000E944401882309F479CF0E94000076CF6B
:1007D000F12CE12C90CF692AAECFEBE4F1E013824B
:1007E000128288EE93E0A0E0B0E084839583A68334
:1007F000B78386E091E09183808385EC90E09587D4
:10080000848784EC90E09787868780EC90E0918BDA
:10081000808B81EC90E0938B828B82EC90E0958BC7
:10082000848B86EC90E0978B868B118E128E138EC4
:10083000148E0895EE0FFF1F0590F491E02D09949A
:04084000F894FFCF5A
:10084400FFFF000000007A01DA000701C701380148
:1008540016012A017375656C746F00505245534933
:100864004F4E41444F00486F6C612064657364656A
:1008740020656C20556E6F000D0A00426F746F6E18
:02088400200052
:00000001FF
