:100000000C945E000C9486000C9486000C94860080
:100010000C9486000C9486000C9486000C94860048
:100020000C9486000C9486000C9486000C94860038
:100030000C9486000C9486000C9486000C94860028
:100040000C9454060C9486000C94C4060C949E06E2
:100050000C9486000C9486000C9486000C94860008
:100060000C94F6060C9486001F1C1F1E1F1E1F1FDB
:100070001E1F1E00000000250028002B00040404A1
:100080000404040404020202020202030303030341
:10009000030102040810204080010204081020011E
:1000A0000204081020000000080002010000030400
:1000B00007000000000000000000150811241FBE0A
:1000C000CFEFD8E0DEBFCDBF23E0A8E9B1E001C0AB
:1000D0001D92AA30B207E1F711E0A0E0B1E0EAE733
:1000E000F2E202C005900D92A839B107D9F710E0ED
:1000F000CEE5D0E004C02197FE010E94620DCD350F
:10010000D107C9F70E944E080C943B110C940000D3
:1001100090E0FC01EB55FF4F2491FC01EF56FF4F9F
:100120003491FC01E358FF4FE491EE23C9F0222300
:1001300039F0233001F1A8F4213019F1223029F1EE
:10014000F0E0EE0FFF1FED58FF4FA591B4918FB770
:10015000F894EC91611126C030953E233C938FBFFB
:1001600008952730A9F02830C9F0243049F780914C
:1001700080008F7D03C0809180008F778093800006
:10018000DFCF84B58F7784BDDBCF84B58F7DFBCF88
:100190008091B0008F778093B000D2CF8091B00073
:1001A0008F7DF9CF3E2BDACF3FB7F8948091E501F0
:1001B0009091E601A091E701B091E80126B5A89BD6
:1001C00005C02F3F19F00196A11DB11D3FBFBA2FE9
:1001D000A92F982F8827BC01CD01620F711D811DA9
:1001E000911D42E0660F771F881F991F4A95D1F72E
:1001F00008958F929F92AF92BF92CF92DF92EF922B
:10020000FF924B015C010E94D4006B017C010E94B3
:10021000D4006C197D098E099F09683E73408105E1
:100220009105A8F321E0821A9108A108B10888EE8F
:10023000C80E83E0D81EE11CF11C81149104A104B6
:10024000B10429F7FF90EF90DF90CF90BF90AF906F
:100250009F908F90089508950895AF92BF92CF9286
:10026000DF92EF92FF920F931F93CF93DF936C0176
:100270007B018B01040F151FEB015E01AE18BF0857
:10028000C017D10759F06991D601ED91FC91019009
:10029000F081E02DC6010995892B79F7C501DF9121
:1002A000CF911F910F91FF90EF90DF90CF90BF9073
:1002B000AF900895FC01538D448D252F30E0842F9D
:1002C00090E0821B930B541710F0CF96089501977E
:1002D0000895FC01918D828D981761F0A28DAE0F6B
:1002E000BF2FB11D5D968C91928D9F5F9F73928FF2
:1002F00090E008958FEF9FEF0895FC01918D828D1E
:10030000981731F0828DE80FF11D858D90E00895EA
:100310008FEF9FEF0895FC01918D228D892F90E042
:10032000805C9F4F821B91098F73992708958DE5FB
:1003300092E00E948B0121E0892B09F420E0822FBA
:10034000089580E090E0892B29F00E9497018111A7
:100350000C9400000895FC01A48DA80FB92FB11DC5
:10036000A35ABF4F2C91848D90E001968F739927EB
:10037000848FA689B7892C93A089B1898C918370C9
:1003800080648C93938D848D981306C00288F389C2
:10039000E02D80818F7D80830895EF92FF920F93EF
:1003A0001F93CF93DF93EC0181E0888F9B8D8C8D21
:1003B00098131AC0E889F989808185FF15C09FB715
:1003C000F894EE89FF896083E889F98980818370D8
:1003D000806480839FBF81E090E0DF91CF911F9187
:1003E0000F91FF90EF900895F62E0B8D10E00F5FA8
:1003F0001F4F0F731127E02E8C8D8E110CC00FB67E
:1004000007FCFACFE889F989808185FFF5CFCE0115
:100410000E94AB01F1CFEB8DEC0FFD2FF11DE35AE4
:10042000FF4FF0829FB7F8940B8FEA89FB89808198
:100430008062CFCFCF93DF93EC01888D8823B9F012
:10044000AA89BB89E889F9898C9185FD03C08081DF
:1004500086FD0DC00FB607FCF7CF8C9185FFF2CF5C
:10046000808185FFEDCFCE010E94AB01E9CFDF9106
:10047000CF9108952091B901260F3327331F2132E0
:100480003105ECF420913302FC0190E080E024304F
:1004900069F082E00895A091B9012191AC0147561D
:1004A0005E4FA40FB52FB11D2C930196861798F3BC
:1004B0008091B901680F6093B90180E0089581E0EF
:1004C00008951092330281E08093320210920D025F
:1004D00061E082E10E94880061E083E10E9488007F
:1004E000E9EBF0E080818E7F808380818D7F808347
:1004F00088E48093B80085E48093BC000895CF938E
:10050000DF9391E0909398018823B9F0C091B800EF
:10051000D091BA008091BC008A7B8093BC0060E0DF
:1005200082E10E94880060E083E10E9488000E94CE
:100530006102D093BA00C093B800DF91CF910895C3
:100540008F929F92AF92BF92CF92DF92EF92FF92E3
:100550000F931F93CF93DF93D0915C02D13208F0B9
:10056000D7C0182FC0915B020E94D4006B017C01A0
:100570008091330281116BC082E08093330210932B
:1005800032028FEF8093310210923002D0932F020B
:10059000ABE3B2E0EFE0F2E080E0D81391C010925C
:1005A0000E0280910E02CC0FC82BC0930E028091D8
:1005B0000D02813009F088C010920D020E94D40013
:1005C0006B017C0180910E028093BB00809135020B
:1005D00090913602A0913702B0913802892B8A2B74
:1005E0008B2BA1F00E94D4000091350210913602AD
:1005F00020913702309138026C197D098E099F09CC
:10060000061717072807390708F442C08091BC0075
:1006100083FDD8CF85EC8093BC000E94D4006B0191
:100620007C0180913302823009F450C08091310204
:100630008F3F09F46FC080913102803209F46CC0A1
:1006400080913102803309F469C084E026C0809132
:10065000350290913602A0913702B0913802892B71
:100660008A2B8B2B09F484CF0E94D4008090350212
:1006700090903602A0903702B09038026C197D0934
:100680008E099F0986169706A806B90608F070CF4E
:10069000809134020E947F0285E010923A0210920B
:1006A0005C0210923902DF91CF911F910F91FF9060
:1006B000EF90DF90CF90BF90AF909F908F90089574
:1006C0009D9191938F5F69CF85EEA5CF8091350283
:1006D00090913602A0913702B0913802892B8A2B73
:1006E0008B2B09F49ECF0E94D4000091350210910B
:1006F000360220913702309138026C197D098E093B
:100700009F09061717072807390708F08ACFC0CFB7
:1007100081E0C3CF80E0C1CF82E0BFCF83E0BDCF17
:100720000895E091EC018091EB01E81730F4F0E0DE
:10073000E351FE4F808190E008958FEF9FEF089581
:100740009091EC018091EB012FEF3FEF981748F467
:10075000E92FF0E0E351FE4F208130E09F5F90935E
:10076000EC01C90108958091EB019091EC01891B86
:10077000990B0895CF92DF92EF92FF920F931F9300
:10078000CF93DF937C01CB018A0120913902222390
:1007900089F0EB016B01C40ED51ECC15DD0569F0A7
:1007A0006991D701ED91FC910190F081E02DC70195
:1007B0000995F3CF642F0E943A02C801DF91CF91CF
:1007C0001F910F91FF90EF90DF90CF900895CF93FE
:1007D000DF931F92CDB7DEB76983209139022223C0
:1007E000F9F020915C02203258F021E030E0FC0169
:1007F0003383228390E080E00F90DF91CF910895C2
:1008000080913A02E82FF0E0E55CFD4F99819083FA
:100810008F5F80933A0280935C0281E090E0ECCF9E
:1008200061E0CE0101960E943A02F7CF90E080E0AD
:100830000895CF93DF93EC018B818823A1F0888109
:1008400091E09093390280935B0210923A021092E9
:100850005C0281E00E94A00291E0811190E0892F6A
:10086000DF91CF9108951092EC011092EB0110925C
:100870003A0210925C020E9461028BE291E0909336
:10088000DF018093DE018CE291E09093DD018093A3
:10089000DC0181E08B83CE010E941904982F811125
:1008A000CECFDDCFFC0101900020E9F73197AF01F9
:1008B000481B590BBC018DE592E00C942D018F92E1
:1008C0009F92AF92BF920F931F93CF93DF93CDB7B9
:1008D000DEB7A1970FB6F894DEBF0FBECDBF19A249
:1008E000423008F44AE08E010F5D1F4F842E912C98
:1008F000B12CA12CA50194010E94400DE62FB90155
:10090000CA01EA30F4F4E05DD801EE938D01232BA7
:10091000242B252B79F790E080E0109719F0CD017A
:100920000E945204A1960FB6F894DEBF0FBECDBF51
:10093000DF91CF911F910F91BF90AF909F908F90BB
:100940000895E95CE1CF2F923F924F925F926F92B0
:100950007F928F929F92AF92BF92CF92DF92EF924F
:10096000FF920F931F93CF93DF935C011B016A01EA
:10097000F12CE12CD50114968D919C9186010E19D4
:100980001F098017910708F48C01F501D0810E949E
:10099000D4002B013C0180913302811172C0C02F21
:1009A000013208F0C0E2F1E0F093330221E0C60129
:1009B000801B910BE816F90608F420E02093320220
:1009C0008FEF80933102109230028C0F80932F02B0
:1009D000A1E0A0930E0280910E02DD0FD82BD093E0
:1009E0000E0280910D02813009F090C010920D022C
:1009F0000E94D4002B013C0180910E028093BB0029
:100A00008091350290913602A0913702B091380260
:100A1000892B8A2B8B2BA1F00E94D40020913502C8
:100A200030913602409137025091380264197509AD
:100A300086099709261737074807590708F442C05F
:100A40008091BC0083FDD8CFB5ECB093BC000E9470
:100A5000D4002B013C0180913302813009F45AC04B
:100A6000809130028C1710F4C0913002AFE0B2E0F8
:100A7000EDEEF1E080E08C1751F19D9191938F5F45
:100A8000FACF8091350290913602A0913702B09151
:100A90003802892B8A2B8B2B09F47DCF0E94D4003E
:100AA0002091350230913602409137025091380240
:100AB00064197509860997092617370748075907E2
:100AC00008F069CF809134020E947F02C0E010924A
:100AD000EC01C093EB01C017110609F057C04101AA
:100AE0008E0C9F1CE401CE0188199909801791078B
:100AF00098F5D50111968D919C91DC01ED91FC91B9
:100B00000284F385E02D09958993EDCFE5EEE0931E
:100B1000BC009DCF8091350290913602A0913702A2
:100B2000B0913802892B8A2B8B2B09F494CF0E9429
:100B3000D400209135023091360240913702509115
:100B40003802641975098609970926173707480777
:100B5000590708F080CFB6CFE00EF11EEC14FD046B
:100B600008F408CF81E0DF91CF911F910F91FF90A2
:100B7000EF90DF90CF90BF90AF909F908F907F903D
:100B80006F905F904F903F902F90089580E0EBCF53
:100B90001F93CF93DF93DC011496ED91FC91E41742
:100BA000F50710F490E01FC0122FEA01FC018181CB
:100BB0009281208131E03093390220935B021092C0
:100BC0003A0210925C02DC01ED91FC910280F3810B
:100BD000E02D0995C817D90729F7812F0E94A00297
:100BE00091E08111DFCF892FDF91CF911F9108957F
:100BF000CF93DF9300D0CDB7DEB78FE08A8321E0BB
:100C000041E050E0BE016E5F7F4F8091E90190911D
:100C1000EA010E94C80541E050E0BE016F5F7F4FCE
:100C20008091E9019091EA010E94A30489810F90CB
:100C30000F90DF91CF91089585ED8093BC00809156
:100C4000350290913602A0913702B0913802079692
:100C5000A11DB11D23E0B695A795979587952A9577
:100C6000D1F72091BC0024FD03C0109233020895F7
:100C700040913502509136026091370270913802EE
:100C8000452B462B472B69F30097A105B10541F091
:100C90002AE22A95F1F700C00197A109B109E1CF35
:100CA000809134020C947F021F920F920FB60F9224
:100CB00011242F933F938F939F93AF93BF93809172
:100CC000E1019091E201A091E301B091E401309142
:100CD000E00123E0230F2D3758F50196A11DB11D2A
:100CE0002093E0018093E1019093E201A093E3015E
:100CF000B093E4018091E5019091E601A091E701B4
:100D0000B091E8010196A11DB11D8093E50190937A
:100D1000E601A093E701B093E801BF91AF919F91E5
:100D20008F913F912F910F900FBE0F901F901895AC
:100D300026E8230F0296A11DB11DD2CF1F920F925C
:100D40000FB60F9211242F933F934F935F936F939E
:100D50007F938F939F93AF93BF93EF93FF938DE513
:100D600092E00E94AB01FF91EF91BF91AF919F91F3
:100D70008F917F916F915F914F913F912F910F9044
:100D80000FBE0F901F9018951F920F920FB60F92E3
:100D900011242F938F939F93EF93FF93E0916D0214
:100DA000F0916E028081E0917302F091740282FDF5
:100DB0001BC09081809176028F5F8F7320917702A4
:100DC000821741F0E0917602F0E0E35AFD4F958FF3
:100DD00080937602FF91EF919F918F912F910F90C9
:100DE0000FBE0F901F9018958081F4CF1F920F9225
:100DF0000FB60F9211242F933F934F935F936F93EE
:100E00007F938F939F93AF93BF93EF93FF938091C3
:100E1000B900887F803609F44AC0F0F5883209F4B9
:100E2000A7C018F5803109F49BC0B8F4882309F4F1
:100E3000F9C0883009F494C0FF91EF91BF91AF9150
:100E40009F918F917F916F915F914F913F912F91E2
:100E50000F900FBE0F901F901895883109F488C02D
:100E6000803251F78093310214C0803409F49DC060
:100E700040F48033B9F38833F9F68093310285EC7E
:100E8000B0C0803509F485C0883509F496C088342F
:100E900099F60E941C06D0CF883909F48CC038F529
:100EA000883729F050F4883611F0803729F683E02E
:100EB000809333021092DB0157C0883809F47BC05D
:100EC000803919F0803809F0B7CF8091DB0180328A
:100ED00008F071C0E091DB0181E08E0F8093DB01AF
:100EE0008091BB00F0E0E554FE4F80833DC0803B25
:100EF00039F0E0F4803A09F479C0883A09F09CCFDF
:100F000084E0809333021092BA011092B901E0910B
:100F1000DE01F091DF0109958091B90181110FC0C7
:100F200081E08093B9011092990109C0803C09F4D5
:100F3000A6CF883C09F4A3CF883B09F07DCFE09190
:100F4000BA0181E08E0F8093BA01F0E0E756FE4FC0
:100F500080818093BB009091BA018091B90129C032
:100F600080910E028093BB0085EC8093BC0064CF1F
:100F70009091300280912F02981758F5E09130023D
:100F800081E08E0F80933002F0E0E15FFD4F8081C1
:100F9000E9CFE091300281E08E0F809330028091A2
:100FA000BB00F0E0E15FFD4F8083909130028091C3
:100FB0002F029817C8F285E8D8CFE091300281E07F
:100FC0008E0F809330028091BB00F0E0E15FFD4F17
:100FD00080838091320281115CCF81E080930D0289
:100FE00084EA8093BC001092330226CF85EC809374
:100FF000BC00109233028091DB01803230F4E0912A
:10100000DB01F0E0E554FE4F10826091DB0170E0FF
:10101000E091DC01F091DD018BEB91E009951092FC
:10102000DB010ACF1092310234CFEDE5F2E01382FA
:10103000128288EE93E0A0E0B0E084839583A683DB
:10104000B7832BE031E03183208325EC30E0358716
:10105000248724EC30E03787268720EC30E0318B82
:10106000208B21EC30E0338B228B22EC30E0358B6F
:10107000248B26EC30E0378B268B118E128E138E4C
:10108000148EEAEFF2E01382128284839583A683A2
:10109000B7838DE191E0918380830895CF93DF93AF
:1010A000CDB7DEB76A970FB6F894DEBF0FBECDBFDF
:1010B000789484B5826084BD84B5816084BD85B533
:1010C000826085BD85B5816085BD80916E0081603F
:1010D00080936E00109281008091810082608093E5
:1010E00081008091810081608093810080918000E7
:1010F0008160809380008091B10084608093B10012
:101100008091B00081608093B00080917A0084600B
:1011100080937A0080917A00826080937A00809137
:101120007A00816080937A0080917A008068809351
:101130007A001092C100E0916D02F0916E0282E09F
:101140008083E0916902F0916A021082E0916B0263
:10115000F0916C0280E1808310927502E09171023F
:10116000F091720286E08083E0916F02F09170024C
:10117000808180618083E0916F02F09170028081B4
:1011800088608083E0916F02F091700280818068B6
:101190008083E0916F02F091700280818F7D808367
:1011A0008091E9019091EA01009711F00E94040EEC
:1011B00086E090E00E94680D8C0188E6F80180834B
:1011C0008AEF92E092838183138280E290E095839C
:1011D00084831093EA010093E9011092EC011092CC
:1011E000EB0110923A0210925C020E9461028BE2C3
:1011F00091E09093DF018093DE018CE291E0909387
:10120000DD018093DC0181E0F8018383C8010E9445
:10121000190481110FC08BE291E00E9452048DE30A
:1012200091E00E9452046AE070E080E090E00E9449
:10123000F900F9CF0E94F80590E0880F892F881FE8
:10124000990B892B09F449C080E491E00E94520473
:101250008DE391E00E94520419821A821B821C8243
:1012600082E18C83E8E6F0E021E730E081E090E085
:101270004491840F911D31962E173F07C9F7825E66
:101280009A4D67E070E00E942C0D811101C087E04B
:101290008D8381E08E8380E18F8386E2888721E0E1
:1012A00048E050E0BE016F5F7F4F8091E90190916F
:1012B000EA010E94C8050E94F8059FE0998F8F7788
:1012C0008A8F21E042E050E0BE01675E7F4F80914F
:1012D000E9019091EA010E94C8058AE591E00E9427
:1012E00052040E94F805682F70E0660F672F661F92
:1012F000770B072E000C880B990B4AE00E945F04C5
:101300008DE391E00E9452048E010F5F1F4FA5E60E
:101310002A2EA1E03A2E1982E090E901F090EA012C
:1013200020E041E050E0B801C7010E94C8058823D1
:1013300031F047E050E0B801C7010E94A3042981C1
:101340002F77822F90E0E4E095958795EA95E1F775
:10135000982F990F990FF82FF91B9F2F990F920F24
:101360008A816B813D814E81EF8120910001291797
:1013700009F4CAC0242F2F77909300011F929F93E6
:10138000482F50E094E0559547959A95E1F7942FB2
:10139000990F990F491B440F480F1F924F93862FA7
:1013A00090E044E0959587954A95E1F7982F990F3D
:1013B000990F891B880F860F1F928F93632F70E000
:1013C00054E0759567955A95E1F7862F880F880F39
:1013D000681B660F630F1F926F93422F50E064E00B
:1013E000559547956A95E1F7842F880F880F481B1C
:1013F000440F420F1F924F932E2F30E074E035952B
:1014000027957A95E1F7822F880F880F922F981BE6
:10141000892F880F8E0F90E08053984F9F938F9362
:101420003F922F921F92E8E1EF931F930F930E9438
:101430008D0EC8010E94520483E891E00E9452047C
:101440002FB7F8946091E1017091E2018091E3017E
:101450009091E4012FBF4AE00E945F0488E891E088
:101460000E945204F1E1F98F1A8EE090E901F090A8
:10147000EA0120E041E050E0BE01675E7F4FC70116
:101480000E94C8050FB6F894DEBF0FBECDBF8823FB
:1014900041F042E050E0BE01675E7F4FC7010E940D
:1014A000A3046A8D70E086E0759567958A95E1F7EB
:1014B000072E000C880B990B0E94320B20E030E0C5
:1014C00040E85EE30E94910B6B017C01698D70E046
:1014D00090E080E00E94300B9B01AC01C701B60197
:1014E0000E94870C6B017C014B015C01AC019B01EC
:1014F0000E94270D8823D9F08CE891E00E945204C5
:101500008DE391E00E94520464E170E080E090E09D
:101510000E94F90080E090E0892B09F4FCCE0E9443
:101520009701882309F4F7CE0E940000F4CE26012B
:101530003701E89477F82FEF3FEF4FE75FE7C301FC
:10154000B2010E94270D81110DC02FEF3FEF4FE731
:101550005FE7C301B2010E942B0B18161CF480E94F
:1015600091E0CCCF2FEF3FEF4FE75FE4C701B6012B
:101570000E94220D18161CF484E991E0BFCF2FEFD2
:101580003FEF4FE75FECC701B6010E942B0B87FDD1
:10159000F3CF20E030E0A901C701B6010E942B0B78
:1015A00087FF0BC06DE28DE592E00E94CD01460100
:1015B0005701B7FAB094B7F8B0942AE037ED43EA90
:1015C0005BE3C501B4010E94870C4B015C010E94E2
:1015D000F30C6B017C010E94300B9B01AC01C50137
:1015E000B4010E94860C4B015C014AE0C701B601C0
:1015F0000E945F046EE28DE592E00E94CD0120E042
:1016000030E040E251E4C501B4010E94910B4B016E
:101610005C010E94F30C6B01F12CE12C4AE0C70144
:10162000B6010E945F04C701B6010E94300B9B0106
:10163000AC01C501B4010E94860C20E030E040E21C
:1016400051E40E94910B0E94F30C90E080E04AE08C
:101650000E945F0455CF0E946D0B08F481E008954D
:10166000E89409C097FB3EF490958095709561953C
:101670007F4F8F4F9F4F9923A9F0F92F96E9BB27F2
:101680009395F695879577956795B795F111F8CF6E
:10169000FAF4BB0F11F460FF1BC06F5F7F4F8F4FD9
:1016A0009F4F16C0882311F096E911C0772321F0CF
:1016B0009EE8872F762F05C0662371F096E8862F67
:1016C00070E060E02AF09A95660F771F881FDAF7BE
:1016D000880F9695879597F90895990F0008550FEB
:1016E000AA0BE0E8FEEF16161706E807F907C0F0A8
:1016F00012161306E407F50798F0621B730B840BB0
:10170000950B39F40A2661F0232B242B252B21F489
:1017100008950A2609F4A140A6958FEF811D811D29
:1017200008950E94A40B0C94150C0E94070C38F02D
:101730000E940E0C20F0952311F00C94FE0B0C94DB
:10174000040C11240C94490C0E94260C70F3959FF4
:10175000C1F3950F50E0551F629FF001729FBB27A8
:10176000F00DB11D639FAA27F00DB11DAA1F649F44
:101770006627B00DA11D661F829F2227B00DA11DF7
:10178000621F739FB00DA11D621F839FA00D611D7D
:10179000221F749F3327A00D611D231F849F600D9E
:1017A000211D822F762F6A2F11249F5750409AF0C7
:1017B000F1F088234AF0EE0FFF1FBB1F661F771F53
:1017C000881F91505040A9F79E3F510580F00C941E
:1017D000FE0B0C94490C5F3FE4F3983ED4F38695DE
:1017E00077956795B795F795E7959F5FC1F7FE2BBE
:1017F000880F911D9695879597F9089597F99F679A
:1018000080E870E060E008959FEF80EC0895002488
:101810000A941616170618060906089500240A9455
:1018200012161306140605060895092E0394000CDB
:1018300011F4882352F0BB0F40F4BF2B11F460FF6A
:1018400004C06F5F7F4F8F4F9F4F089557FD905893
:10185000440F551F59F05F3F71F04795880F97FB74
:10186000991F61F09F3F79F087950895121613062E
:101870001406551FF2CF4695F1DF08C0161617065D
:101880001806991FF1CF8695710561050894089592
:10189000E894BB2766277727CB0197F908952F9205
:1018A0003F924F925F926F927F928F929F92AF92F0
:1018B000BF92CF92DF92EF92FF920F931F93CF933D
:1018C000DF93CDB7DEB7CA1BDB0B0FB6F894DEBFD4
:1018D0000FBECDBF09942A88398848885F846E84FA
:1018E0007D848C849B84AA84B984C884DF80EE8044
:1018F000FD800C811B81AA81B981CE0FD11D0FB64D
:10190000F894DEBF0FBECDBFED0108955058BB2740
:10191000AA270E949E0C0C94150C0E94070C38F00C
:101920000E940E0C20F039F49F3F19F426F40C9419
:10193000040C0EF4E095E7FB0C94FE0BE92F0E94DB
:10194000260C58F3BA17620773078407950720F02F
:1019500079F4A6F50C94480C0EF4E0950B2EBA2FF2
:10196000A02D0B01B90190010C01CA01A0011124A5
:10197000FF27591B99F0593F50F4503E68F11A1651
:10198000F040A22F232F342F4427585FF3CF4695E2
:1019900037952795A795F0405395C9F77EF41F1604
:1019A000BA0B620B730B840BBAF09150A1F0FF0FCE
:1019B000BB1F661F771F881FC2F70EC0BA0F621FBA
:1019C000731F841F48F4879577956795B795F795AA
:1019D0009E3F08F0B0CF9395880F08F09927EE0F3F
:1019E0009795879508950E942E0C88F09F5798F040
:1019F000B92F9927B751B0F0E1F0660F771F881F14
:101A0000991F1AF0BA95C9F714C0B13091F00E942D
:101A1000480CB1E008950C94480C672F782F882764
:101A2000B85F39F0B93FCCF3869577956795B39554
:101A3000D9F73EF490958095709561957F4F8F4FC3
:101A40009F4F08950E946D0B08F48FEF08950E9438
:101A50006D0B880B990B0895AA1BBB1B51E107C0A6
:101A6000AA1FBB1FA617B70710F0A61BB70B881F2E
:101A7000991F5A95A9F780959095BC01CD010895BD
:101A8000A1E21A2EAA1BBB1BFD010DC0AA1FBB1F82
:101A9000EE1FFF1FA217B307E407F50720F0A21BF4
:101AA000B30BE40BF50B661F771F881F991F1A9461
:101AB00069F760957095809590959B01AC01BD018B
:101AC000CF010895EE0FFF1F0590F491E02D0994CA
:101AD0000F931F93CF93DF938230910510F482E030
:101AE00090E0E0910803F091090330E020E0B0E0DD
:101AF000A0E0309799F42115310509F44AC0281B5C
:101B0000390B24303105D8F58A819B816115710527
:101B100089F1FB0193838283FE0111C040815181D1
:101B20000281138148175907E0F04817590799F4C3
:101B3000109761F012960C93129713961C9332969D
:101B4000CF01DF91CF911F910F910895009308036A
:101B500010930903F4CF2115310551F042175307B3
:101B600038F0A901DB019A01BD01DF01F801C1CF05
:101B7000EF01F9CF9093090380930803CDCFFE01C5
:101B8000E20FF31F81939193225031093983288307
:101B9000D7CF2091060330910703232B41F42091E6
:101BA0000301309104013093070320930603209131
:101BB0000101309102012115310541F42DB73EB7E5
:101BC0004091050150910601241B350BE09106035D
:101BD000F0910703E217F307A0F42E1B3F0B281721
:101BE000390778F0AC014E5F5F4F2417350748F096
:101BF0004E0F5F1F50930703409306038193919309
:101C00009FCFF0E0E0E09CCFCF93DF930097E9F027
:101C1000FC01329713821282A0910803B09109034C
:101C2000ED0130E020E01097A1F420813181820F96
:101C3000931F20910603309107032817390709F0F5
:101C400061C0F0930703E0930603DF91CF910895FD
:101C5000EA01CE17DF07E8F54A815B819E01411555
:101C60005105B1F7E901FB83EA8349915991C40F0A
:101C7000D51FEC17FD0761F4808191810296840FD6
:101C8000951FE90199838883828193819B838A834D
:101C9000F0E0E0E012968D919C9113970097B9F5D2
:101CA0002D913C911197CD010296820F931F2091A7
:101CB0000603309107032817390739F6309751F595
:101CC0001092090310920803B0930703A093060330
:101CD000BCCFD383C28340815181840F951FC81725
:101CE000D90761F44E5F5F4F88819981480F591F72
:101CF000518340838A819B8193838283211531059F
:101D000009F0B0CFF0930903E09308039ECFFD01E3
:101D1000DC01C0CF13821282D7CFAEE0B0E0E3E99E
:101D2000FEE00C945D0C0D891E898F89988D26E04C
:101D30002C831A83098397FF02C080E090E8019703
:101D40009E838D83AE01455E5F4F698D7A8DCE0196
:101D500001960E94BD0E4D815E8157FD0AC02F8104
:101D60003885421753070CF49A01020F131FF8012C
:101D700010822E96E4E00C94790CABE0B0E0E3EC3A
:101D8000FEE00C944F0C7C013B018A01FC011782A0
:101D90001682838181FFC8C1CE0101965C01F701E3
:101DA0009381F30193FD859193FF81913F018823F6
:101DB00009F453C1853239F493FD859193FF8191E4
:101DC0003F01853229F4B70190E00E94AD10E7CFC2
:101DD000912C212C312CFFE1F31538F08B3211F1CD
:101DE00090F4803209F1833229F137FC3CC020EDB8
:101DF000280F2A3050F536FE20C08AE0989E200D2C
:101E00001124922E06C08D3291F0803371F76894C0
:101E100030F8F30193FD859193FF81913F0181118A
:101E2000DACF21C0689431F8689432F8F2CF689420
:101E300033F8EFCF689434F8ECCFEAE02E9E200D13
:101E40001124222E689435F8E4CF8E3229F436FC22
:101E500004C1689436F8DDCF8C3619F4689437F8ED
:101E6000D8CF8836B1F2982F9F7D95549330E0F00B
:101E70008336A1F18337C1F1833509F063C02801AE
:101E8000F2E04F0E511CF801C080D180692D70E046
:101E900036FC02C06FEF7FEFC6010E9497104C0125
:101EA000689437F882010AC00C5F1F4FFFE3F98383
:101EB00088248394912C6501E89437F833FE2DC073
:101EC000522C8114910471F5552009F468CFB701A3
:101ED00080E290E00E94AD105A94F6CFF801808124
:101EE00089830E5F1F4FE4CF2801F2E04F0E511C93
:101EF000F801C080D180692D70E036FC02C06FEF20
:101F00007FEFC6010E94A2104C018201D5CFB7011C
:101F100080E290E00E94AD102A942814190409F080
:101F2000B0F7CECFF60137FC859137FE81916F0176
:101F3000B70190E00E94AD1051105A94F1E08F1A51
:101F40009108BFCF843619F0893609F077C0F801BF
:101F500037FE6BC060817181828193810C5F1F4F5E
:101F6000F32DFF763F2E97FF09C0909580957095D1
:101F700061957F4F8F4F9F4F689437F82AE030E08C
:101F8000A5010E94DD10C82ECA188C2C432C36FEE9
:101F90000CC0E89440F8C91440F434FE05C032FC8B
:101FA00003C0F32DFE7E4F2E892C44FE95C0FE010A
:101FB000EC0DF11D8081803309F087C0242D297E2E
:101FC000422E842D8870582E43FC95C040FE8FC051
:101FD0009C2C821418F42C0C922C981844FE91C05E
:101FE000B70180E390E00E94AD1042FE09C088E78F
:101FF00090E041FE02C088E590E0B7010E94AD107C
:10200000C91408F48AC0CA94D12C9FEFC91AD90AFE
:10201000CA0CDB1CF60182916F01B70190E00E94AF
:10202000AD10AC14BD04B1F74FCF60817181072EA4
:10203000000C880B990B0E5F1F4F92CFD32CE894A6
:10204000D4F82AE030E0853739F1232D297FD22ECC
:102050008F3601F148F48835A9F0F7018681978120
:102060002B96E2E10C946B0C803749F08837A9F786
:10207000D4FE02C06894D2F820E130E00DC068942C
:10208000D4F8F6CF34FE03C0822F8660D82E20E12C
:1020900032E002C028E030E0F801D7FE0FC06081D6
:1020A0007181828193810C5F1F4FA5010E94DD1019
:1020B000C82ECA183D2CE89437F867CF608171812B
:1020C00090E080E00E5F1F4FF0CF42FC02C083948F
:1020D00078CF8394839475CF842D867809F471CF5B
:1020E000F6CFB70180E290E00E94AD108394821495
:1020F000C0F3512C73CF522C5818821408F46ECFB1
:10210000F8CF842D867809F47BCF8BE241FE80E204
:1021100047FC8DE2B70190E071CFB70180E390E01A
:102120000E94AD109A946CCF8FEF9FEF99CFFC0176
:102130000590615070400110D8F7809590958E0FF2
:102140009F1F0895FC016150704001900110D8F765
:10215000809590958E0F9F1F08950F931F93CF9397
:10216000DF93182F092FEB018B8181FD09C01FEF31
:102170000FEF812F902FDF91CF911F910F91089535
:1021800082FF14C02E813F818C819D8128173907E1
:102190003CF4E881F981CF0101969983888310830B
:1021A0008E819F8101969F838E83E3CFE885F98599
:1021B000812F0995892BA1F3DACFFA01AA272830BC
:1021C00051F1203181F1E8946F936E7F6E5F7F4F04
:1021D0008F4F9F4FAF4FB1E03ED0B4E03CD0670F80
:1021E000781F891F9A1FA11D680F791F8A1F911DD3
:1021F000A11D6A0F711D811D911DA11D20D009F423
:1022000068943F912AE0269F11243019305D319364
:10221000DEF6CF010895462F4770405D4193B3E04D
:102220000FD0C9F7F6CF462F4F70405D4A3318F0F4
:10223000495D31FD4052419302D0A9F7EACFB4E0A5
:10224000A6959795879577956795BA95C9F700975D
:102250006105710508959B01AC010A2E06945795FE
:10226000479537952795BA95C9F7620F731F841F55
:0A227000951FA01D0895F894FFCFFC
:10227A00FF00000A03800000000000CD012D015A72
:10228A00011A028B0169017D0100000000E703BA0F
:10229A000316049003B303A0039103525443206E20
:1022AA006F20656E636F6E747261646F000D0A0051
:1022BA0070657264696F206C6120686F72613A2080
:1022CA00616A757374616E646F006C6F7374506FBA
:1022DA007765723D00253034642D253032642D2512
:1022EA0030326420253032643A253032643A25305F
:1022FA00326400206D733D0020543D006E616E0013
:08230A00696E66006F76660043
:00000001FF
