:100000000C9462000C948A000C948A000C948A0070
:100010000C948A000C948A000C948A000C948A0038
:100020000C948A000C948A000C948A000C948A0028
:100030000C948A000C948A000C948A000C948A0018
:100040000C9438020C948A000C94A8020C9482023E
:100050000C948A000C948A000C948A000C948A00F8
:100060000C948A000C948A000000000024002700F1
:100070002A000000000023002600290000000000E4
:10008000250028002B0004040404040404040202D4
:100090000202020203030303030301020408102007
:1000A0004080010204081020010204081020000012
:1000B0000008000201000003040700000000000027
:1000C0000000E10411241FBECFEFD8E0DEBFCDBF9A
:1000D00011E0A0E0B1E0E4E0FEE002C005900D9286
:1000E000A833B107D9F721E0A8E3B1E001C01D9220
:1000F000A23EB207E1F710E0C2E6D0E004C02197CB
:10010000FE010E94FA06C136D107C9F70E94DA0241
:100110000C9400070C940000833081F028F48130A7
:1001200099F08230A9F008958730A9F08830C9F09D
:100130008430B1F4809180008F7D03C08091800075
:100140008F7780938000089584B58F7784BD08955C
:1001500084B58F7DFBCF8091B0008F778093B00006
:1001600008958091B0008F7DF9CF3FB7F8948091CA
:10017000410190914201A0914301B091440126B503
:10018000A89B05C02F3F19F00196A11DB11D3FBFCF
:10019000BA2FA92F982F8827BC01CD01620F711D9E
:1001A000811D911D42E0660F771F881F991F4A9598
:1001B000D1F70895AF92BF92CF92DF92EF92FF9264
:1001C0000F931F93CF93DF936C017B018B01040F7F
:1001D000151FEB015E01AE18BF08C017D10759F01B
:1001E0006991D601ED91FC910190F081E02DC6015D
:1001F0000995892B79F7C501DF91CF911F910F9157
:10020000FF90EF90DF90CF90BF90AF900895FC01EA
:10021000538D448D252F30E0842F90E0821B930B6B
:10022000541710F0CF96089501970895FC01918D11
:10023000828D981761F0A28DAE0FBF2FB11D5D9614
:100240008C91928D9F5F9F73928F90E008958FEFB6
:100250009FEF0895FC01918D828D981731F0828D6A
:10026000E80FF11D858D90E008958FEF9FEF0895C1
:10027000FC01918D228D892F90E0805C9F4F821B25
:1002800091098F739927089585E491E00E943801C0
:1002900021E0892B09F420E0822F089580E090E08E
:1002A000892B29F00E94440181110C9400000895CB
:1002B000FC01A48DA80FB92FB11DA35ABF4F2C91DB
:1002C000848D90E001968F739927848FA689B789D2
:1002D0002C93A089B1898C91837080648C93938DC9
:1002E000848D981306C00288F389E02D80818F7D6C
:1002F00080830895EF92FF920F931F93CF93DF9324
:10030000EC0181E0888F9B8D8C8D98131AC0E88951
:10031000F989808185FF15C09FB7F894EE89FF8920
:100320006083E889F98980818370806480839FBFBE
:1003300081E090E0DF91CF911F910F91FF90EF90BE
:100340000895F62E0B8D10E00F5F1F4F0F731127CE
:10035000E02E8C8D8E110CC00FB607FCFACFE88909
:10036000F989808185FFF5CFCE010E945801F1CF38
:10037000EB8DEC0FFD2FF11DE35AFF4FF0829FB77D
:10038000F8940B8FEA89FB8980818062CFCFCF936D
:10039000DF93EC01888D8823B9F0AA89BB89E889AD
:1003A000F9898C9185FD03C0808186FD0DC00FB653
:1003B00007FCF7CF8C9185FFF2CF808185FFEDCFD1
:1003C000CE010E945801E9CFDF91CF910895FC0141
:1003D00001900020E9F73197AF01481B590BBC0190
:1003E00085E491E00C94DA008F929F92AF92BF92D5
:1003F0000F931F93CF93DF93CDB7DEB7A1970FB6BF
:10040000F894DEBF0FBECDBF19A2423008F44AE017
:100410008E010F5D1F4F842E912CB12CA12CA501B4
:1004200094010E94D806E62FB901CA01EA30F4F41B
:10043000E05DD801EE938D01232B242B252B79F73A
:1004400090E080E0109719F0CD010E94E701A1969D
:100450000FB6F894DEBF0FBECDBFDF91CF911F91D5
:100460000F91BF90AF909F908F900895E95CE1CF7E
:100470001F920F920FB60F9211242F933F938F93D9
:100480009F93AF93BF9380913D0190913E01A091C6
:100490003F01B091400130913C0123E0230F2D3703
:1004A00058F50196A11DB11D20933C0180933D019B
:1004B00090933E01A0933F01B09340018091410190
:1004C00090914201A0914301B09144010196A11D78
:1004D000B11D8093410190934201A0934301B093D9
:1004E0004401BF91AF919F918F913F912F910F90B8
:1004F0000FBE0F901F90189526E8230F0296A11D9E
:10050000B11DD2CF1F920F920FB60F9211242F93CD
:100510003F934F935F936F937F938F939F93AF938B
:10052000BF93EF93FF9385E491E00E945801FF9100
:10053000EF91BF91AF919F918F917F916F915F915B
:100540004F913F912F910F900FBE0F901F901895D4
:100550001F920F920FB60F9211242F938F939F9398
:10056000EF93FF93E0915501F09156018081E09166
:100570005B01F0915C0182FD1BC0908180915E0166
:100580008F5F8F7320915F01821741F0E0915E01D0
:10059000F0E0EB5BFE4F958F80935E01FF91EF9152
:1005A0009F918F912F910F900FBE0F901F901895D4
:1005B0008081F4CF789484B5826084BD84B58160F5
:1005C00084BD85B5826085BD85B5816085BD80911E
:1005D0006E00816080936E00109281008091810096
:1005E000826080938100809181008160809381008E
:1005F000809180008160809380008091B100846050
:100600008093B1008091B00081608093B0008091B0
:100610007A00846080937A0080917A00826080936F
:100620007A0080917A00816080937A0080917A00CC
:10063000806880937A001092C100E0915501F0919A
:10064000560182E08083E0915101F09152011082C5
:10065000E0915301F09154018FEC808310925D0181
:10066000E0915901F0915A0186E08083E0915701B1
:10067000F0915801808180618083E0915701F09171
:100680005801808188608083E0915701F091580182
:10069000808180688083E0915701F09158018081CA
:1006A0008F7D80836CE9262E60E0362EF101249147
:1006B00008E810E0F80184918823C1F090E0880FE9
:1006C000991FFC01E859FF4FA591B491FC01E45832
:1006D000FF4FC591D4919FB7F8943C91822F80959C
:1006E00083238C938881282B28839FBFE7EAF0E03F
:1006F0002491E3E9F0E08491882399F090E0880F59
:10070000991FFC01E859FF4FA591B491FC01E458F1
:10071000FF4F859194918FB7F8949C91292B2C933E
:100720008FBF80E091E00E94E7018EE191E00E949E
:10073000E70132E3832E912CA12CB12CC0E0D0E054
:100740008091380190913901A0913A01B0913B011B
:100750000196A11DB11D8093380190933901A0939A
:100760003A01B0933B018091380190913901A091F9
:100770003A01B0913B018091380190913901A091EB
:100780003A01B0913B01E0EBF0E08491F101F4908B
:10079000F801E490EE2009F493C081110E948C00CE
:1007A000EE2DF0E0EE0FFF1FEE58FF4FA591B49134
:1007B0008C91F822EE24E394F110E12CEBEBF0E0C5
:1007C0008491E7EAF0E0F490E3E9F0E0D490DD20F2
:1007D000A1F081110E948C00ED2DF0E0EE0FFF1FC3
:1007E000E458FF4FA591B4918FB7F8949C91E11014
:1007F0006AC0F094F922FC928FBF60913801709129
:10080000390180913A0190913B01A50194010E9428
:10081000D806672B682B692B21F581E291E00E94B5
:10082000E701609138017091390180913A0190910E
:100830003B010E94AF0520E030E040EC5FE30E9406
:1008400066066B017C01AC019B010E94D3068823E4
:10085000E1F18BE291E00E94E7018EE191E00E94DC
:10086000E7010E94B5002B013C0184E1C82ED12C88
:10087000E12CF12C0E94B5006419750986099709CD
:10088000683E734081059105A8F3F1E0CF1AD108C5
:10089000E108F10828EE420E23E0521E611C711C93
:1008A000C114D104E104F10429F7209709F448CFD9
:1008B0000E944401882309F443CF0E94000040CFE6
:1008C000EE24E3947BCFF92A96CF2FEF3FEF4FE74B
:1008D0005FE7C701B6010E94D30681110DC02FEF5B
:1008E0003FEF4FE75FE7C701B6010E947B0518168F
:1008F0001CF48FE291E0AFCF2FEF3FEF4FE75FE4C3
:10090000C701B6010E94610618161CF483E391E04A
:10091000A2CF2FEF3FEF4FE75FECC701B6010E9478
:100920007B0587FDF3CF2AE037ED43EA5BE3C701A0
:10093000B6010E940F052B013C010E9480056B014E
:100940007C010E94AF059B01AC01C301B2010E9472
:100950000E052B013C014AE0C701B6010E94F401DB
:100960006EE285E491E00E947A0120E030E040E20E
:1009700051E4C301B2010E9466062B013C010E94B2
:1009800080056B01F12CE12C4AE0C701B6010E9401
:10099000F401C701B6010E94AF059B01AC01C30180
:1009A000B2010E940E0520E030E040E251E40E94D6
:1009B00066060E94800590E080E04AE00E94F40113
:1009C0004CCFE5E4F1E01382128288EE93E0A0E0E0
:1009D000B0E084839583A683B78380E191E091831F
:1009E000808385EC90E09587848784EC90E09787FE
:1009F000868780EC90E0918B808B81EC90E0938BEC
:100A0000828B82EC90E0958B848B86EC90E0978BC8
:100A1000868B118E128E138E148E08955058BB271C
:100A2000AA270E9426050C9427060E94190638F072
:100A30000E94200620F039F49F3F19F426F40C940C
:100A400016060EF4E095E7FB0C941006E92F0E94C1
:100A5000380658F3BA17620773078407950720F022
:100A600079F4A6F50C945A060EF4E0950B2EBA2FE5
:100A7000A02D0B01B90190010C01CA01A0011124A4
:100A8000FF27591B99F0593F50F4503E68F11A1650
:100A9000F040A22F232F342F4427585FF3CF4695E1
:100AA00037952795A795F0405395C9F77EF41F1603
:100AB000BA0B620B730B840BBAF09150A1F0FF0FCD
:100AC000BB1F661F771F881FC2F70EC0BA0F621FB9
:100AD000731F841F48F4879577956795B795F795A9
:100AE0009E3F08F0B0CF9395880F08F09927EE0F3E
:100AF0009795879508950E94EC0508F481E0089584
:100B00000E94400688F09F5798F0B92F9927B75157
:100B1000B0F0E1F0660F771F881F991F1AF0BA95A1
:100B2000C9F714C0B13091F00E945A06B1E008959F
:100B30000C945A06672F782F8827B85F39F0B93F91
:100B4000CCF3869577956795B395D9F73EF4909554
:100B50008095709561957F4F8F4F9F4F0895E894D2
:100B600009C097FB3EF490958095709561957F4FF5
:100B70008F4F9F4F9923A9F0F92F96E9BB279395A3
:100B8000F695879577956795B795F111F8CFFAF4B3
:100B9000BB0F11F460FF1BC06F5F7F4F8F4F9F4FE4
:100BA00016C0882311F096E911C0772321F09EE842
:100BB000872F762F05C0662371F096E8862F70E0A8
:100BC00060E02AF09A95660F771F881FDAF7880F82
:100BD0009695879597F90895990F0008550FAA0BD8
:100BE000E0E8FEEF16161706E807F907C0F0121640
:100BF0001306E407F50798F0621B730B840B950B43
:100C000039F40A2661F0232B242B252B21F4089597
:100C10000A2609F4A140A6958FEF811D811D089534
:100C200097F99F6780E870E060E008959FEF80EC9F
:100C3000089500240A941616170618060906089542
:100C400000240A9412161306140605060895092EA8
:100C50000394000C11F4882352F0BB0F40F4BF2B17
:100C600011F460FF04C06F5F7F4F8F4F9F4F089557
:100C700057FD9058440F551F59F05F3F71F047954D
:100C8000880F97FB991F61F09F3F79F08795089532
:100C9000121613061406551FF2CF4695F1DF08C051
:100CA000161617061806991FF1CF8695710561056E
:100CB00008940895E894BB2766277727CB0197F916
:100CC00008950E94EC0508F48FEF08950E947906BC
:100CD0000C9427060E94190638F00E94200620F086
:100CE000952311F00C9410060C94160611240C9404
:100CF0005B060E94380670F3959FC1F3950F50E094
:100D0000551F629FF001729FBB27F00DB11D639FBD
:100D1000AA27F00DB11DAA1F649F6627B00DA11D63
:100D2000661F829F2227B00DA11D621F739FB00D09
:100D3000A11D621F839FA00D611D221F749F332779
:100D4000A00D611D231F849F600D211D822F762F12
:100D50006A2F11249F5750409AF0F1F088234AF0EF
:100D6000EE0FFF1FBB1F661F771F881F915050405B
:100D7000A9F79E3F510580F00C9410060C945B0679
:100D80005F3FE4F3983ED4F3869577956795B795E2
:100D9000F795E7959F5FC1F7FE2B880F911D9695FC
:100DA000879597F908950E94EC05880B990B089593
:100DB000A1E21A2EAA1BBB1BFD010DC0AA1FBB1F5F
:100DC000EE1FFF1FA217B307E407F50720F0A21BD1
:100DD000B30BE40BF50B661F771F881F991F1A943E
:100DE00069F760957095809590959B01AC01BD0168
:100DF000CF010895EE0FFF1F0590F491E02D0994A7
:040E0000F894FFCF94
:100E0400756E6F2D64656275670000000000000058
:100E14007A01DA000701C701380116012A010D0A17
:100E240000636F6E7461646F723D006E616E006981
:080E34006E66006F7666000097
:00000001FF
