:100000000C945E000C9486000C9486000C94860080
:100010000C9486000C9486000C9486000C94860048
:100020000C9486000C9486000C9486000C94860038
:100030000C9486000C9486000C9486000C94860028
:100040000C948E080C9486000C94FE080C94D8082E
:100050000C9486000C9486000C9486000C94860008
:100060000C9430090C948600000000002400270046
:100070002A0000000000250028002B0004040404CE
:100080000404040402020202020203030303030342
:10009000010204081020408001020408102001021F
:1000A00004081020000000080002010000030407FB
:1000B00000000000000000004F0A970E11241FBE30
:1000C000CFEFD8E0DEBFCDBF11E0A0E0B1E0E6E8C1
:1000D000F5E202C005900D92AE36B107D9F723E0E4
:1000E000AEE6B1E001C01D92AA31B207E1F710E01F
:1000F000CDE5D0E004C02197FE010E947C11CC35F3
:10010000D107C9F70E94980A0C94B6120C9400000B
:1001100090E0FC01EC55FF4F2491FC01E057FF4FAC
:100120003491FC01E458FF4FE491EE23C9F02223FF
:1001300039F0233001F1A8F4213019F1223029F1EE
:10014000F0E0EE0FFF1FEE58FF4FA591B4918FB76F
:10015000F894EC91611126C030953E233C938FBFFB
:1001600008952730A9F02830C9F0243049F780914C
:1001700080008F7D03C0809180008F778093800006
:10018000DFCF84B58F7784BDDBCF84B58F7DFBCF88
:100190008091B0008F778093B000D2CF8091B00073
:1001A0008F7DF9CF3E2BDACFCF93DF9390E0FC0128
:1001B000E057FF4F249184589F4FFC01849188237E
:1001C000D1F090E0880F991FFC01E859FF4FA591ED
:1001D000B491FC01EE58FF4FC591D49161110EC04E
:1001E0009FB7F8948C91E22FE0958E238C93288111
:1001F000E223E8839FBFDF91CF9108958FB7F894F2
:10020000EC91E22BEC938FBFF6CF8230910538F062
:10021000880F991F880F991F05970197F1F7089587
:100220003FB7F8948091BC019091BD01A091BE01AF
:10023000B091BF0126B5A89B05C02F3F19F00196CC
:10024000A11DB11D3FBFBA2FA92F982F8827BC0130
:10025000CD01620F711D811D911D42E0660F771F58
:10026000881F991F4A95D1F708958F929F92AF9258
:10027000BF92CF92DF92EF92FF924B015C010E94FE
:1002800010016B017C010E9410016C197D098E091F
:100290009F09683E734081059105A8F321E0821A09
:1002A0009108A108B10888EEC80E83E0D81EE11CB1
:1002B000F11C81149104A104B10429F7FF90EF907F
:1002C000DF90CF90BF90AF909F908F90089508954A
:1002D0000895AF92BF92CF92DF92EF92FF920F9369
:1002E0001F93CF93DF936C017B018B01040F151FCC
:1002F000EB015E01AE18BF08C017D10759F0699134
:10030000D601ED91FC910190F081E02DC601099597
:10031000892B79F7C501DF91CF911F910F91FF9044
:10032000EF90DF90CF90BF90AF900895FC01538D78
:10033000448D252F30E0842F90E0821B930B5417BF
:1003400010F0CF96089501970895FC01918D828D4C
:10035000981761F0A28DAE0FBF2FB11D5D968C91E5
:10036000928D9F5F9F73928F90E008958FEF9FEF24
:100370000895FC01918D828D981731F0828DE80FE0
:10038000F11D858D90E008958FEF9FEF0895FC019A
:10039000918D228D892F90E0805C9F4F821B910967
:1003A0008F739927089582E392E00E94C70121E0AC
:1003B000892B09F420E0822F089580E090E0892BBA
:1003C00029F00E94D30181110C9400000895FC01D2
:1003D000A48DA80FB92FB11DA35ABF4F2C91848DA6
:1003E00090E001968F739927848FA689B7892C9303
:1003F000A089B1898C91837080648C93938D848D56
:10040000981306C00288F389E02D80818F7D808358
:100410000895EF92FF920F931F93CF93DF93EC0118
:1004200081E0888F9B8D8C8D98131AC0E889F9899B
:10043000808185FF15C09FB7F894EE89FF8960839E
:10044000E889F98980818370806480839FBF81E01F
:1004500090E0DF91CF911F910F91FF90EF90089561
:10046000F62E0B8D10E00F5F1F4F0F731127E02E3C
:100470008C8D8E110CC00FB607FCFACFE889F98974
:10048000808185FFF5CFCE010E94E701F1CFEB8D92
:10049000EC0FFD2FF11DE35AFF4FF0829FB7F89448
:1004A0000B8FEA89FB8980818062CFCFCF93DF9366
:1004B000EC01888D8823B9F0AA89BB89E889F9897C
:1004C0008C9185FD03C0808186FD0DC00FB607FCB1
:1004D000F7CF8C9185FFF2CF808185FFEDCFCE01E4
:1004E0000E94E701E9CFDF91CF910895FC01838558
:1004F0008F3F19F061E00C9488000895FC01808121
:100500009181892B39F0A281B3819C9111968C91B4
:100510009CBD8DBD83858F3F19F060E00C948800F1
:100520000895BF92CF92DF92EF92FF920F931F93A5
:10053000CF93DF93EC0188819981892B81F06EBD87
:100540000DB407FEFDCF0EB5802FDF91CF911F9127
:100550000F91FF90EF90DF90CF90BF900895888526
:10056000998511E0892B09F010E8BB24B394862FFC
:10057000812309F0B12CF62E2C813D814E815F81C3
:1005800060E271EA87E090E00E942811E22E00E02C
:10059000C22ED12CEE2019F0C6010E9405018A85D9
:1005A000982F977F09F044C08D858F3F89F09F2D4C
:1005B000912381E009F480E08B1551F0EF85F889F3
:1005C0008F89992379F19081892B8083BB24B394FF
:1005D000E989FA898081998D892B8083EE2019F031
:1005E000C6010E9405018E858F3F39F0EB89FC8999
:1005F0008081988D892309F0012BE989FA899081FE
:10060000898D80958923808388859985892B09F038
:1006100067C0110F1111BECF8E858F3F09F094CFA7
:100620000F2D92CF9081809589238083B12CD0CFDC
:100630008C3099F58D858F3F49F0EF85F8898F894A
:100640009F2D912331F19081892B8083E989FA894B
:100650009081898D809589238083EE2019F0C601D1
:100660000E940501E989FA898081998D892B80830F
:10067000EE2019F0C6010E9405018E858F3F21F200
:10068000EB89FC898081988D892309F4BDCF012BEA
:10069000BBCF908180958923D8CFE989FA89808161
:1006A000998D892B8083EE2019F0C6010E940501E7
:1006B0008D858F3F49F0EF85F8898F899F2D912394
:1006C00059F09081892B8083E989FA899081898DFD
:1006D000809589238083D1CF908180958923F3CF22
:1006E000169598CFCF92DF92EF92FF920F931F93C0
:1006F000CF93DF938C01EB016A0179010E947E02A6
:100700006881C8010E949102E601EC0CFD1C6FEFAC
:10071000C8010E9491028993CE15DF05C1F7C80177
:100720000E94760281E0DF91CF911F910F91FF909F
:10073000EF90DF90CF90089520918F01260F3327FF
:10074000331F21323105ECF420910802FC0190E0C6
:1007500080E0243069F082E00895A0918F0121911A
:10076000AC0141595E4FA40FB52FB11D2C930196DA
:10077000861798F380918F01680F60938F0180E056
:10078000089581E008951092080281E080930702A5
:100790001092E20161E082E10E94880061E083E161
:1007A0000E948800E9EBF0E080818E7F8083808169
:1007B0008D7F808388E48093B80085E48093BC00BB
:1007C0000895CF93DF9391E090936E018823B9F061
:1007D000C091B800D091BA008091BC008A7B809310
:1007E000BC0060E082E10E94880060E083E10E943A
:1007F00088000E94C303D093BA00C093B800DF9171
:10080000CF9108958F929F92AF92BF92CF92DF9235
:10081000EF92FF920F931F93CF93DF93D09131020A
:10082000D13208F0D7C0182FC09130020E941001B9
:100830006B017C018091080281116BC082E0809382
:100840000802109307028FEF8093060210920502B0
:10085000D0930402A0E1B2E0E4EEF1E080E0D8132E
:1008600091C01092E3018091E301CC0FC82BC0939B
:10087000E3018091E201813009F088C01092E20129
:100880000E9410016B017C018091E3018093BB0009
:1008900080910A0290910B02A0910C02B0910D027E
:1008A000892B8A2B8B2BA1F00E94100100910A0248
:1008B00010910B0220910C0230910D026C197D09F0
:1008C0008E099F09061717072807390708F442C041
:1008D0008091BC0083FDD8CF85EC8093BC000E9442
:1008E00010016B017C0180910802823009F450C034
:1008F000809106028F3F09F46FC08091060280321A
:1009000009F46CC080910602803309F469C084E068
:1009100026C080910A0290910B02A0910C02B09126
:100920000D02892B8A2B8B2B09F484CF0E94100196
:1009300080900A0290900B02A0900C02B0900D02E1
:100940006C197D098E099F0986169706A806B906B7
:1009500008F070CF809109020E94E10385E01092B7
:100960000F021092310210920E02DF91CF911F916F
:100970000F91FF90EF90DF90CF90BF90AF909F903E
:100980008F9008959D9191938F5F69CF85EEA5CF4C
:1009900080910A0290910B02A0910C02B0910D027D
:1009A000892B8A2B8B2B09F49ECF0E94100100917A
:1009B0000A0210910B0220910C0230910D026C1969
:1009C0007D098E099F09061717072807390708F0C0
:1009D0008ACFC0CF81E0C3CF80E0C1CF82E0BFCF5C
:1009E00083E0BDCF1F93CF93DF93EA01122FDC0189
:1009F00011968D919C91DC01ED91FC910280F38127
:100A0000E02D0995C817D90729F4812F0E94020407
:100A100091E0811190E0892FDF91CF911F9108958E
:100A2000CF93DF93EC018B818823A1F0888191E043
:100A300090930E028093300210920F0210923102B6
:100A400081E00E94020491E0811190E0892FDF9102
:100A5000CF9108951092C1011092C00110920F021F
:100A6000109231020E94C30387E691E09093B40193
:100A70008093B30188E691E09093B6018093B5012D
:100A800081E08B83CE010E941005982F8111CECF7B
:100A9000DDCF0895E091C1018091C001E81730F4E5
:100AA000F0E0EE53FE4F808190E008958FEF9FEFCE
:100AB00008959091C1018091C0012FEF3FEF9817E9
:100AC00048F4E92FF0E0EE53FE4F208130E09F5FC5
:100AD0009093C101C90108958091C0019091C10115
:100AE000891B990B0895CF92DF92EF92FF920F939B
:100AF0001F93CF93DF937C01CB018A0120910E02DB
:100B0000222389F0EB016B01C40ED51ECC15DD0547
:100B100069F06991D701ED91FC910190F081E02D90
:100B2000C7010995F3CF642F0E949C03C801DF9190
:100B3000CF911F910F91FF90EF90DF90CF9008958C
:100B4000CF93DF931F92CDB7DEB7698320910E025A
:100B50002223F9F020913102203258F021E030E0D8
:100B6000FC013383228390E080E00F90DF91CF91EE
:100B7000089580910F02E82FF0E0E05FFD4F99812A
:100B800090838F5F80930F028093310281E090E029
:100B9000ECCF61E0CE0101960E949C03F7CF90E07C
:100BA00080E00895FC0101900020E9F73197AF0142
:100BB000481B590BBC0182E392E00C9469018F92AF
:100BC0009F92AF92BF920F931F93CF93DF93CDB7B6
:100BD000DEB7A1970FB6F894DEBF0FBECDBF19A246
:100BE000423008F44AE08E010F5D1F4F842E912C95
:100BF000B12CA12CA50194010E942811E62FB90166
:100C0000CA01EA30F4F4E05DD801EE938D01232BA4
:100C1000242B252B79F790E080E0109719F0CD0177
:100C20000E94D205A1960FB6F894DEBF0FBECDBFCD
:100C3000DF91CF911F910F91BF90AF909F908F90B8
:100C40000895E95CE1CF0F931F93CF93DF9300D01A
:100C5000CDB7DEB76A83E091DB02F091DC0230971A
:100C6000F9F0898384819581029798F0808191E0E1
:100C700090930E028093300210920F021092310274
:100C800021E042E050E0BE016F5F7F4FCF010E9444
:100C9000F2040F900F90DF91CF911F910F91089563
:100CA0008F7789830091DD021091DE02C8010E94D6
:100CB0007E026981C8010E9491026A81C8010E9476
:100CC0009102C8010E947602E4CFEF92FF920F9347
:100CD0001F93CF93DF93C4E1D3E08295880F880FF1
:100CE000807C67704770440F440F440F862B842B21
:100CF000888305E113E0822F8295880F807EF801BA
:100D000020812F71282B208383E1E82E83E0F82EA9
:100D1000F7018081807C8F77808360E084EF0E9480
:100D20002306F801608162956695677082EF0E94E4
:100D30002306F7018081682F6770F0E26F9FB00192
:100D40001124282F269526952695277094E0299F13
:100D500090011124622B87FB882780F9682B85EF8F
:100D60000E9423068881682F6770E0E26E9FB001C1
:100D70001124282F2695269526952770F4E02F9F7D
:100D800090011124622B8295869586958370682B3D
:100D900084EFDF91CF911F910F91FF90EF900C9412
:100DA00023062F923F924F925F926F927F928F9283
:100DB0009F92AF92BF92CF92DF92EF92FF920F93EA
:100DC0001F93CF93DF93DC011496ED91FC9115975F
:100DD000EF2B09F425C169012A01EC01888191E01A
:100DE00090930E028093300210920F021092310203
:100DF00020E041E050E0CD010E94F204782E8823EB
:100E000009F40EC1F12CE12C332433948C819D81A3
:100E100086010E191F098017910708F48C0128809C
:100E20000E9410014B015C0180910802811173C086
:100E3000602EB0E2B01710F480E2682E3092080203
:100E400021E0C601801B910BE816F90608F420E0AA
:100E500020930702EFEFE0930602109205028FEF56
:100E6000860D809304023092E3018091E301220C0D
:100E7000282A2092E3018091E201813009F090C09C
:100E80001092E2010E9410014B015C018091E3018C
:100E90008093BB0080910A0290910B02A0910C02FA
:100EA000B0910D02892B8A2B8B2BA1F00E9410018F
:100EB00020910A0230910B0240910C0250910D02D8
:100EC000681979098A099B092617370748075907BE
:100ED00008F442C08091BC0083FDD8CFF5ECF093BC
:100EE000BC000E9410014B015C018091080281301E
:100EF00009F45AC080910502861510F4609005022D
:100F0000A4EEB1E0E2ECF1E080E0861551F19D91B4
:100F100091938F5FFACF80910A0290910B02A0917A
:100F20000C02B0910D02892B8A2B8B2B09F47CCFFC
:100F30000E94100120910A0230910B0240910C0294
:100F400050910D02681979098A099B0926173707FC
:100F50004807590708F068CF809109020E94E10311
:100F6000612C1092C1016092C0016016110609F057
:100F700057C042018E0C9F1C5401C5018819990964
:100F80008017910798F589819A81DC01ED91FC9198
:100F90000284F385E02D0995F50181935F01EDCF82
:100FA00085EE8093BC009DCF80910A0290910B0248
:100FB000A0910C02B0910D02892B8A2B8B2B09F486
:100FC00094CF0E94100120910A0230910B024091AF
:100FD0000C0250910D02681979098A099B0926179C
:100FE00037074807590708F080CFB6CFE00EF11E4B
:100FF000EC14FD0408F40ACF872DDF91CF911F91E7
:101000000F91FF90EF90DF90CF90BF90AF909F90A7
:101010008F907F906F905F904F903F902F900895AA
:10102000712CEACFCF93DF931F92CDB7DEB7E0915B
:10103000DB02F091DC02898321E030E0AE014F5FFA
:101040005F4FBA01309741F0CF010E94D1068981EC
:101050000F90DF91CF9108958091DD029091DE0293
:101060000E947203F4CFCF93DF9300D0CDB7DEB7E9
:10107000E091DB02F091DC02898322E030E0AE01F6
:101080004F5F5F4FBA01309751F0CF010E94D106F8
:1010900089819A810F900F90DF91CF91089580916F
:1010A000DD029091DE020E947203F2CF85ED809303
:1010B000BC0080910A0290910B02A0910C02B091A9
:1010C0000D020796A11DB11D23E0B695A795979532
:1010D00087952A95D1F72091BC0024FD03C010927A
:1010E0000802089540910A0250910B0260910C028F
:1010F00070910D02452B462B472B69F30097A105F4
:10110000B10541F02AE22A95F1F700C00197A10943
:10111000B109E1CF809109020C94E1031F920F9273
:101120000FB60F9211242F933F938F939F93AF93FA
:10113000BF938091B8019091B901A091BA01B0918B
:10114000BB013091B70123E0230F2D3758F50196ED
:10115000A11DB11D2093B7018093B8019093B901EF
:10116000A093BA01B093BB018091BC019091BD01E5
:10117000A091BE01B091BF010196A11DB11D809348
:10118000BC019093BD01A093BE01B093BF01BF917C
:10119000AF919F918F913F912F910F900FBE0F9024
:1011A0001F90189526E8230F0296A11DB11DD2CFDE
:1011B0001F920F920FB60F9211242F933F934F93CC
:1011C0005F936F937F938F939F93AF93BF93EF93AF
:1011D000FF9382E392E00E94E701FF91EF91BF91BC
:1011E000AF919F918F917F916F915F914F913F91BF
:1011F0002F910F900FBE0F901F9018951F920F9276
:101200000FB60F9211242F938F939F93EF93FF9319
:10121000E0914202F09143028081E0914802F09116
:10122000490282FD1BC0908180914B028F5F8F73BA
:1012300020914C02821741F0E0914B02F0E0EE5C0D
:10124000FD4F958F80934B02FF91EF919F918F916E
:101250002F910F900FBE0F901F9018958081F4CFA3
:101260001F920F920FB60F9211242F933F934F931B
:101270005F936F937F938F939F93AF93BF93EF93FE
:10128000FF938091B900887F803609F44AC0F0F559
:10129000883209F4A7C018F5803109F49BC0B8F46E
:1012A000882309F4F9C0883009F494C0FF91EF91C4
:1012B000BF91AF919F918F917F916F915F914F916E
:1012C0003F912F910F900FBE0F901F90189588316E
:1012D00009F488C0803251F78093060214C080342C
:1012E00009F49DC040F48033B9F38833F9F6809354
:1012F000060285ECB0C0803509F485C0883509F454
:1013000096C0883499F60E945608D0CF883909F4DF
:101310008CC038F5883729F050F4883611F08037C2
:1013200029F683E0809308021092B10157C08838F3
:1013300009F47BC0803919F0803809F0B7CF80916B
:10134000B101803208F071C0E091B10181E08E0FEF
:101350008093B1018091BB00F0E0EF56FE4F808397
:101360003DC0803B39F0E0F4803A09F479C0883A16
:1013700009F09CCF84E080930802109290011092B3
:101380008F01E091B301F091B401099580918F0133
:1013900081110FC081E080938F0110926F0109C00D
:1013A000803C09F4A6CF883C09F4A3CF883B09F020
:1013B0007DCFE091900181E08E0F80939001F0E06D
:1013C000E159FE4F80818093BB0090919001809104
:1013D0008F0129C08091E3018093BB0085EC80934D
:1013E000BC0064CF9091050280910402981758F5D3
:1013F000E091050281E08E0F80930502F0E0EC5150
:10140000FE4F8081E9CFE091050281E08E0F80934D
:1014100005028091BB00F0E0EC51FE4F808390917B
:101420000502809104029817C8F285E8D8CFE091B0
:10143000050281E08E0F809305028091BB00F0E0F1
:10144000EC51FE4F80838091070281115CCF81E0D7
:101450008093E20184EA8093BC001092080226CFB8
:1014600085EC8093BC00109208028091B10180321B
:1014700030F4E091B101F0E0EF56FE4F1082609140
:10148000B10170E0E091B501F091B60181E991E020
:1014900009951092B1010ACF1092060234CFE2E30F
:1014A000F2E01382128288EE93E0A0E0B0E0848341
:1014B0009583A683B7832AE031E03183208325EC2E
:1014C00030E03587248724EC30E03787268720EC0E
:1014D00030E0318B208B21EC30E0338B228B22ECFF
:1014E00030E0358B248B26EC30E0378B268B118E49
:1014F000128E138E148EEFECF2E01382128284832C
:101500009583A683B7838CE191E091838083EBED93
:10151000F2E01182108213821282158214821782E5
:10152000168211861086138A148A158A168A0895DF
:10153000CF93DF9300D01F92CDB7DEB7789484B5F8
:10154000826084BD84B5816084BD85B5826085BDBF
:1015500085B5816085BD80916E00816080936E004D
:10156000109281008091810082608093810080913F
:1015700081008160809381008091800081608093F0
:1015800080008091B10084608093B1008091B000B0
:1015900081608093B00080917A00846080937A00AB
:1015A00080917A00826080937A0080917A008160D5
:1015B00080937A0080917A00806880937A001092FC
:1015C000C100E0914202F091430282E08083E09109
:1015D0003E02F0913F021082E0914002F091410200
:1015E00080E1808310924A02E0914602F091470226
:1015F00086E08083E0914402F09145028081806121
:101600008083E0914402F09145028081886080836C
:10161000E0914402F0914502808180688083E091EE
:101620004402F091450280818F7D80838CE080931D
:10163000B8000091DD021091DE020115110509F0DC
:101640004AC08091DB029091DC02009711F00E9469
:101650002D1286E090E00E9491118C0186E7F8013E
:1016600080838FEC92E092838183138280E290E00A
:10167000958384831093DC020093DB021092C101F6
:101680001092C00110920F02109231020E94C30307
:1016900087E691E09093B4018093B30188E691E0EE
:1016A0009093B6018093B50181E0F8018383C8016E
:1016B0000E941005811157C08FE391E00E94D2056E
:1016C0008CE391E00E94D2056AE070E080E090E057
:1016D0000E943501F9CFF80183858F3F41F061E029
:1016E0000E94D40061E0F80183850E948800F8011F
:1016F00080819181892B09F470C1FFB6F8948091A3
:10170000B201811127C0E6E8F0E08491EAE9F0E057
:101710009491E82FF0E0EE0FFF1FE859FF4FA591DD
:10172000B491EC91E92321F461E08AE00E94880001
:1017300061E08AE00E94D4008CB580618CBD8CB5DC
:1017400080648CBD61E08DE00E94D40061E08BE09C
:101750000E94D4008091B2018F5F8093B201FFBEDE
:1017600081E0F801838F80ED0E94120890E0B0E0E4
:10177000A0E08093E6029093E702A093E802B09382
:10178000E90280369105A105B10509F095CF66EB18
:1017900080EE0E9423066AE070E080E090E00E9404
:1017A000350183EF0E94120880FDF5CF88E80E9482
:1017B00033089093F3028093F2028AE80E94330880
:1017C0009093F5028093F4028CE80E943308909382
:1017D000F7028093F6028EE80E9433089093F90294
:1017E0008093F80280E90E9433089093FB02809373
:1017F000FA0282E90E9433089093FD028093FC0272
:1018000084E90E9433089093FF028093FE0286E9E8
:101810000E943308909301038093000388E90E949B
:10182000330890930303809302038AE90E943308EC
:1018300090930503809304038CE90E9433089093EE
:101840000703809306038EE90E94330890930903EF
:101850008093080381EA0E94120880930A0381EEB4
:101860000E94330890930C0380930B0383EE0E9435
:10187000120880930D0384EE0E941208182F85EE43
:101880000E941208F0E11F02900111248F70282B92
:1018900030930F0320930E0386EE0E941208182F38
:1018A00085EE0E94120840E114029001112490E09C
:1018B000A4E095958795AA95E1F7822B932B9093B9
:1018C00011038093100387EE0E9412088093120385
:1018D00025E030E045E050E065E070E083E090E036
:1018E0000E94650664E670E080E090E00E943501A9
:1018F00025E030E045E050E065E070E090E080E019
:101900000E9465066EE670E080E090E00E9435017E
:1019100021E030E041E050E061E070E081E090E003
:101920000E9465068AE291E00E94D2058CE391E074
:101930000E94D205B0E02B2EB0E03B2E1AEF0E94A1
:1019400010016B017C0180911403982F907C9034DE
:1019500009F065C0682F677050E2659FB0011124DF
:10196000282F269526952695277094E0299F90018B
:101970001124622B8295869586958370682B84EF5F
:101980000E9423068FB7F8948090B8019090B90117
:10199000A090BA01B090BB018FBF83EF0E941208E4
:1019A00083FF7EC02FB7F8948091B8019091B90160
:1019B000A091BA01B091BB012FBF88199909AA095A
:1019C000BB09813D9740A105B10548F561E070E094
:1019D00080E090E00E943501E0CF61E084850E94C4
:1019E000D400F80182858B7F60E009F061E0848596
:1019F0000E948800F80185858F3F41F061E00E94D8
:101A0000D40061E0F80185850E948800F801868590
:101A10008F3F09F4A5CE60E00E94D400A1CE00E083
:101A20000E9410019B01AC012C193D094E095F0970
:101A300069017A0184E591E00E94D205602F70E08F
:101A400090E080E04AE00E94DF0588E591E00E9496
:101A5000D2054AE0C701B6010E94DF058DE591E09D
:101A60000E94D205809114038770E1F481E691E031
:101A70000E94D2058CE391E00E94D20564E670E0FA
:101A800080E090E00E9435012114310409F457CF21
:101A90000E94D301882309F452CF0E9400004FCF47
:101AA00001E0BECF8091DB029091DC02198323E03C
:101AB00030E0AE014F5F5F4FBA01009709F4B7C045
:101AC0000E94D1068981CA80D12CF12CE12CFE2CF8
:101AD000ED2CDC2CCC24E82A8B81C82A8090F202E1
:101AE0009090F302A701960167E0559547953795C9
:101AF00027956A95D1F7B12CA12CD501C401880F87
:101B0000991FAA1FBB1F281B390B4A0B5B0BA09107
:101B1000F402B091F5020E9474112B013C01CD2C0E
:101B2000DE2CEF2CFF24E7FCFA94C701B6016819FC
:101B300079098A099B099B01AC010E9418119B013C
:101B4000AC01FCE05595479537952795FA95D1F767
:101B5000A091F602B091F7020E9474116B017C0112
:101B6000C301B20120E038E040E050E00E944A1199
:101B700049015A01C701B60120E030E440E050E0DD
:101B80000E944A11280D391D4A1D5B1D8090EE02EE
:101B90009090EF02A090F002B090F102280D391D54
:101BA0004A1D5B1D2093EA023093EB024093EC0246
:101BB0005093ED02A5E0B0E00E94691160587F4F9C
:101BC0008F4F9F4F20E031E040E050E00E944A11EB
:101BD000CA01B9010E94F10F20E030E048EC52E464
:101BE0000E944E0F6B017C014B015C01AC019B011B
:101BF0000E94131181113ACF26013701E89477F83A
:101C00002FEF3FEF4FE75FE7C301B2010E941311CF
:101C1000811114C02FEF3FEF4FE75FE7C301B2011F
:101C20000E94490F181654F485E691E021CF809167
:101C3000DD029091DE020E94720344CF2FEF3FEF4E
:101C40004FE75FE4C701B6010E94A11018161CF40B
:101C500089E691E00DCF2FEF3FEF4FE75FECC70133
:101C6000B6010E94490F87FDF3CF20E030E0A901C3
:101C7000C701B6010E94490F87FF0BC06DE282E3E6
:101C800092E00E94090246015701B7FAB094B7F8F2
:101C9000B0942AE037ED43EA5BE3C501B4010E944A
:101CA000DD0E4B015C010E94C00F6B017C010E94A4
:101CB000EF0F9B01AC01C501B4010E94DC0E4B018A
:101CC0005C014AE0C701B6010E94DF056EE282E3D3
:101CD00092E00E94090220E030E040E251E4C501B8
:101CE000B4010E94A6104B015C010E94C00F6B0161
:101CF000F12CE12C4AE0C701B6010E94DF05C701C3
:101D0000B6010E94EF0F9B01AC01C501B4010E9416
:101D1000DC0E20E030E040E251E40E94A6100E9478
:101D2000C00F90E080E04AE00E94DF05A3CECF9391
:101D3000DF93C091DD02D091DE02209749F08A81C5
:101D40009B81009711F00E942D12CE010E942D124E
:101D50008091DB029091DC02009711F00E942D121D
:101D60008091DF029091E002009739F0DC01ED9163
:101D7000FC910280F381E02D09958091E102909120
:101D8000E202009739F0DC01ED91FC910280F381D1
:101D9000E02D09958091E3029091E402009749F0CB
:101DA000DC01ED91FC910280F381E02DDF91CF9178
:101DB0000994DF91CF9108955058BB27AA270E941C
:101DC000F40E0C9467100E94591038F00E946010B5
:101DD00020F039F49F3F19F426F40C9456100EF4B9
:101DE000E095E7FB0C945010E92F0E94781058F30F
:101DF000BA17620773078407950720F079F4A6F5F0
:101E00000C949A100EF4E0950B2EBA2FA02D0B0116
:101E1000B90190010C01CA01A0011124FF27591B2F
:101E200099F0593F50F4503E68F11A16F040A22F35
:101E3000232F342F4427585FF3CF469537952795A6
:101E4000A795F0405395C9F77EF41F16BA0B620BA5
:101E5000730B840BBAF09150A1F0FF0FBB1F661FEC
:101E6000771F881FC2F70EC0BA0F621F731F841F2F
:101E700048F4879577956795B795F7959E3F08F055
:101E8000B0CF9395880F08F09927EE0F9795879517
:101E900008950E942C1008F481E008950E94620FBA
:101EA0000C9467100E94601058F00E94591040F086
:101EB00029F45F3F29F00C94501051110C949B10A1
:101EC0000C9456100E94781068F39923B1F35523AF
:101ED00091F3951B550BBB27AA276217730784073D
:101EE00038F09F5F5F4F220F331F441FAA1FA9F3D3
:101EF00035D00E2E3AF0E0E832D091505040E695C1
:101F0000001CCAF72BD0FE2F29D0660F771F881F21
:101F1000BB1F261737074807AB07B0E809F0BB0B14
:101F2000802DBF01FF2793585F4F3AF09E3F510528
:101F300078F00C9450100C949B105F3FE4F3983EA3
:101F4000D4F3869577956795B795F7959F5FC9F711
:101F5000880F911D9695879597F90895E1E0660F92
:101F6000771F881FBB1F621773078407BA0720F00B
:101F7000621B730B840BBA0BEE1F88F7E095089574
:101F80000E94801088F09F5798F0B92F9927B75179
:101F9000B0F0E1F0660F771F881F991F1AF0BA950D
:101FA000C9F714C0B13091F00E949A10B1E00895C1
:101FB0000C949A10672F782F8827B85F39F0B93FB3
:101FC000CCF3869577956795B395D9F73EF49095C0
:101FD0008095709561957F4F8F4F9F4F0895E8943E
:101FE00009C097FB3EF490958095709561957F4F61
:101FF0008F4F9F4F9923A9F0F92F96E9BB2793950F
:10200000F695879577956795B795F111F8CFFAF41E
:10201000BB0F11F460FF1BC06F5F7F4F8F4F9F4F4F
:1020200016C0882311F096E911C0772321F09EE8AD
:10203000872F762F05C0662371F096E8862F70E013
:1020400060E02AF09A95660F771F881FDAF7880FED
:102050009695879597F90895990F0008550FAA0B43
:10206000E0E8FEEF16161706E807F907C0F01216AB
:102070001306E407F50798F0621B730B840B950BAE
:1020800039F40A2661F0232B242B252B21F4089503
:102090000A2609F4A140A6958FEF811D811D0895A0
:1020A00097F99F6780E870E060E008959FEF80EC0B
:1020B000089500240A9416161706180609060895AE
:1020C00000240A9412161306140605060895092E14
:1020D0000394000C11F4882352F0BB0F40F4BF2B83
:1020E00011F460FF04C06F5F7F4F8F4F9F4F0895C3
:1020F00057FD9058440F551F59F05F3F71F04795B9
:10210000880F97FB991F61F09F3F79F0879508959D
:10211000121613061406551FF2CF4695F1DF08C0BC
:10212000161617061806991FF1CF869571056105D9
:1021300008940895E894BB2766277727CB0197F981
:1021400008950E942C1008F48FEF08950E94B91092
:102150000C9467100E94591038F00E94601020F013
:10216000952311F00C9450100C94561011240C94DB
:102170009B100E94781070F3959FC1F3950F50E06B
:10218000551F629FF001729FBB27F00DB11D639F29
:10219000AA27F00DB11DAA1F649F6627B00DA11DCF
:1021A000661F829F2227B00DA11D621F739FB00D75
:1021B000A11D621F839FA00D611D221F749F3327E5
:1021C000A00D611D231F849F600D211D822F762F7E
:1021D0006A2F11249F5750409AF0F1F088234AF05B
:1021E000EE0FFF1FBB1F661F771F881F91505040C7
:1021F000A9F79E3F510580F00C9450100C949B1051
:102200005F3FE4F3983ED4F3869577956795B7954D
:10221000F795E7959F5FC1F7FE2B880F911D969567
:10222000879597F908950E942C10880B990B0895B3
:10223000DB018F939F930E946911BF91AF91A29F81
:10224000800D911DA39F900DB29F900D11240895B4
:10225000A1E21A2EAA1BBB1BFD010DC0AA1FBB1FAA
:10226000EE1FFF1FA217B307E407F50720F0A21B1C
:10227000B30BE40BF50B661F771F881F991F1A9489
:1022800069F760957095809590959B01AC01BD01B3
:10229000CF010895052E97FB1EF400940E94611152
:1022A00057FD07D00E94281107FC03D04EF40C9470
:1022B000611150954095309521953F4F4F4F5F4F9D
:1022C000089590958095709561957F4F8F4F9F4FA2
:1022D00008950E948211A59F900DB49F900DA49F18
:1022E000800D911D11240895B7FF0C9469110E946F
:1022F0006911821B930B0895EE0FFF1F0590F49157
:10230000E02D0994A29FB001B39FC001A39F700D5F
:10231000811D1124911DB29F700D811D1124911DED
:1023200008950F931F93CF93DF938230910510F49C
:1023300082E090E0E0911803F091190330E020E092
:10234000B0E0A0E0309799F42115310509F44AC0B6
:10235000281B390B24303105D8F58A819B81611502
:10236000710589F1FB0193838283FE0111C04081D5
:1023700051810281138148175907E0F04817590726
:1023800099F4109761F012960C93129713961C9380
:102390003296CF01DF91CF911F910F910895009355
:1023A000180310931903F4CF2115310551F042178A
:1023B000530738F0A901DB019A01BD01DF01F801E3
:1023C000C1CFEF01F9CF9093190380931803CDCFBC
:1023D000FE01E20FF31F819391932250310939835B
:1023E0002883D7CF2091160330911703232B41F474
:1023F00020910201309103013093170320931603BB
:1024000020910001309101012115310541F42DB7D2
:102410003EB74091040150910501241B350BE0911A
:102420001603F0911703E217F307A0F42E1B3F0BDE
:102430002817390778F0AC014E5F5F4F2417350736
:1024400048F04E0F5F1F509317034093160381937C
:1024500091939FCFF0E0E0E09CCFCF93DF93009784
:10246000E9F0FC01329713821282A0911803B09117
:102470001903ED0130E020E01097A1F420813181B3
:10248000820F931F209116033091170328173907E5
:1024900009F061C0F0931703E0931603DF91CF9129
:1024A0000895EA01CE17DF07E8F54A815B819E01B6
:1024B00041155105B1F7E901FB83EA83499159912F
:1024C000C40FD51FEC17FD0761F48081918102963E
:1024D000840F951FE90199838883828193819B836F
:1024E0008A83F0E0E0E012968D919C91139700971B
:1024F000B9F52D913C911197CD010296820F931F52
:1025000020911603309117032817390739F63097B1
:1025100051F51092190310921803B0931703A0936A
:102520001603BCCFD383C28340815181840F951F92
:10253000C817D90761F44E5F5F4F88819981480FB2
:10254000591F518340838A819B8193838283211504
:10255000310509F0B0CFF0931903E09318039ECF33
:10256000FD01DC01C0CF13821282D7CF10E0CDE590
:10257000D0E004C0FE010E947C112196CE35D10727
:06258000C9F7F894FFCF3B
:1025860000001A038000000000000902690196019C
:102596005602C701A501B90100000000A005730598
:1025A600CF0549056C0559054A05424D4532383077
:1025B600204F4B20666F727A61646F000D0A0042ED
:1025C6004D45323830206E6F20656E636F6E7472C3
:1025D60061646F006F6B3D002075733D0020543DB4
:0E25E600006E616E00696E66006F7666000022
:00000001FF
