:100000000C9458000C9480000C9480000C94800098
:100010000C9480000C9480000C9480000C94800060
:100020000C9480000C9480000C9480000C94800050
:100030000C9480000C9480000C9480000C94800040
:100040000C9436030C9480000C94A6030C9480034B
:100050000C9480000C9480000C9480000C94800020
:100060000C94D8030C9480000000000025002800A8
:100070002B00040404040404040402020202020229
:10008000030303030303010204081020408001025C
:1000900004081020010204081020000000080002DB
:1000A0000100000304070000000000000000F70446
:1000B00011241FBECFEFD8E0DEBFCDBF11E0A0E01E
:1000C000B1E0E0E4FEE002C005900D92AA33B10772
:1000D000D9F722E0AAE3B1E001C01D92A63AB20727
:1000E000E1F710E0C8E5D0E004C02197FE010E94CE
:1000F0001807C735D107C9F70E9430050C941E07B1
:100100000C94000090E0FC01E656FF4F2491FC01A6
:10011000EA57FF4F3491FC01EE58FF4FE491EE2374
:10012000C9F0222339F0233001F1A8F4213019F16C
:10013000223029F1F0E0EE0FFF1FE859FF4FA591A3
:10014000B4918FB7F894EC91611126C030953E239D
:100150003C938FBF08952730A9F02830C9F0243090
:1001600049F7809180008F7D03C0809180008F7758
:1001700080938000DFCF84B58F7784BDDBCF84B5DB
:100180008F7DFBCF8091B0008F778093B000D2CF6E
:100190008091B0008F7DF9CF3E2BDACF3FB7F89436
:1001A0008091F9019091FA01A091FB01B091FC01BD
:1001B00026B5A89B05C02F3F19F00196A11DB11DC2
:1001C0003FBFBA2FA92F982F8827BC01CD01620FFE
:1001D000711D811D911D42E0660F771F881F991FB9
:1001E0004A95D1F7089508950895AF92BF92CF929E
:1001F000DF92EF92FF920F931F93CF93DF936C01E7
:100200007B018B01040F151FEB015E01AE18BF08C7
:10021000C017D10759F06991D601ED91FC91019079
:10022000F081E02DC6010995892B79F7C501DF9191
:10023000CF911F910F91FF90EF90DF90CF90BF90E3
:10024000AF900895FC01538D448D252F30E0842F0D
:1002500090E0821B930B541710F0CF9608950197EE
:100260000895FC01918D828D981761F0A28DAE0FDB
:10027000BF2FB11D5D968C91928D9F5F9F73928F62
:1002800090E008958FEF9FEF0895FC01918D828D8E
:10029000981731F0828DE80FF11D858D90E008955B
:1002A0008FEF9FEF0895FC01918D228D892F90E0B3
:1002B000805C9F4F821B91098F73992708958DEF62
:1002C00091E00E94530121E0892B09F420E0822F64
:1002D000089580E090E0892B29F00E945F01811150
:1002E0000C9400000895FC01A48DA80FB92FB11D36
:1002F000A35ABF4F2C91848D90E001968F7399275C
:10030000848FA689B7892C93A089B1898C91837039
:1003100080648C93938D848D981306C00288F38932
:10032000E02D80818F7D80830895EF92FF920F935F
:100330001F93CF93DF93EC0181E0888F9B8D8C8D91
:1003400098131AC0E889F989808185FF15C09FB785
:10035000F894EE89FF896083E889F9898081837048
:10036000806480839FBF81E090E0DF91CF911F91F7
:100370000F91FF90EF900895F62E0B8D10E00F5F18
:100380001F4F0F731127E02E8C8D8E110CC00FB6EE
:1003900007FCFACFE889F989808185FFF5CFCE0186
:1003A0000E947301F1CFEB8DEC0FFD2FF11DE35A8D
:1003B000FF4FF0829FB7F8940B8FEA89FB89808109
:1003C0008062CFCFCF93DF93EC01888D8823B9F083
:1003D000AA89BB89E889F9898C9185FD03C0808150
:1003E00086FD0DC00FB607FCF7CF8C9185FFF2CFCD
:1003F000808185FFEDCFCE010E947301E9CFDF91AF
:10040000CF91089520917B01260F3327331F21328E
:100410003105ECF42091CA01FC0190E080E0243029
:1004200069F082E00895A0917B012191AC01455AC9
:100430005E4FA40FB52FB11D2C930196861798F32C
:1004400080917B01680F60937B0180E0089581E0DB
:1004500008951092CA0181E08093C9011092A4010D
:1004600061E082E10E94820061E083E10E948200FB
:10047000E9EBF0E080818E7F808380818D7F8083B7
:1004800088E48093B80085E48093BC000895CF93FE
:10049000DF9391E090935A018823B9F0C091B8009E
:1004A000D091BA008091BC008A7B8093BC0060E050
:1004B00082E10E94820060E083E10E9482000E944B
:1004C0002902D093BA00C093B800DF91CF9108956C
:1004D0000895E091A3018091A201E81730F4F0E0C3
:1004E000E65CFE4F808190E008958FEF9FEF0895C6
:1004F0009091A3018091A2012FEF3FEF981748F44C
:10050000E92FF0E0E65CFE4F208130E09F5F9093A2
:10051000A301C90108958091A2019091A301891BB3
:10052000990B0895CF92DF92EF92FF920F931F9352
:10053000CF93DF937C01CB018A012091D00122234C
:1005400089F0EB016B01C40ED51ECC15DD0569F0F9
:100550006991D701ED91FC910190F081E02DC701E7
:100560000995F3CF642F0E940202C801DF91CF9159
:100570001F910F91FF90EF90DF90CF900895CF9350
:10058000DF931F92CDB7DEB769832091D00122237C
:10059000F9F02091F301203258F021E030E0FC0125
:1005A0003383228390E080E00F90DF91CF91089514
:1005B0008091D101E82FF0E0EE52FE4F99819083B7
:1005C0008F5F8093D1018093F30181E090E0ECCFC5
:1005D00061E0CE0101960E940202F7CF90E080E038
:1005E0000895FC0101900020E9F73197AF01481B05
:1005F000590BBC018DEF91E00C94F50085ED8093D3
:10060000BC008091CC019091CD01A091CE01B09120
:10061000CF010796A11DB11D23E0B695A79597952B
:1006200087952A95D1F72091BC0024FD03C0109234
:10063000CA0108954091CC015091CD016091CE0145
:100640007091CF01452B462B472B69F30097A105ED
:10065000B10541F02AE22A95F1F700C00197A109FE
:10066000B109E1CF8091CB010C9447021F920F9208
:100670000FB60F9211242F933F938F939F93AF93B5
:10068000BF938091F5019091F601A091F701B0918F
:10069000F8013091F40123E0230F2D3758F501962E
:1006A000A11DB11D2093F4018093F5019093F601F3
:1006B000A093F701B093F8018091F9019091FA01AC
:1006C000A091FB01B091FC010196A11DB11D809389
:1006D000F9019093FA01A093FB01B093FC01BF9143
:1006E000AF919F918F913F912F910F900FBE0F90DF
:1006F0001F90189526E8230F0296A11DB11DD2CF99
:100700001F920F920FB60F9211242F933F934F9386
:100710005F936F937F938F939F93AF93BF93EF9369
:10072000FF938DEF91E00E947301FF91EF91BF91D4
:10073000AF919F918F917F916F915F914F913F9179
:100740002F910F900FBE0F901F9018951F920F9230
:100750000FB60F9211242F938F939F93EF93FF93D4
:10076000E0910D02F0910E028081E0911302F09170
:10077000140282FD1BC09081809116028F5F8F73DF
:1007800020911702821741F0E0911602F0E0E35049
:10079000FE4F958F80931602FF91EF919F918F915D
:1007A0002F910F900FBE0F901F9018958081F4CF5E
:1007B0001F920F920FB60F9211242F933F934F93D6
:1007C0005F936F937F938F939F93AF93BF93EF93B9
:1007D000FF938091B900887F803609F44AC0F0F514
:1007E000883209F4A7C018F5803109F49BC0B8F429
:1007F000882309F4F9C0883009F494C0FF91EF917F
:10080000BF91AF919F918F917F916F915F914F9128
:100810003F912F910F900FBE0F901F901895883128
:1008200009F488C0803251F78093C80114C0803425
:1008300009F49DC040F48033B9F38833F9F680930E
:10084000C80185ECB0C0803509F485C0883509F44D
:1008500096C0883499F60E94FE02D0CF883909F4F8
:100860008CC038F5883729F050F4883611F080377D
:1008700029F683E08093CA0110929D0157C0883801
:1008800009F47BC0803919F0803809F0B7CF809126
:100890009D01803208F071C0E0919D0181E08E0FD2
:1008A00080939D018091BB00F0E0E358FE4F808370
:1008B0003DC0803B39F0E0F4803A09F479C0883AD1
:1008C00009F09CCF84E08093CA0110927C011092C1
:1008D0007B01E091A001F091A101099580917B013C
:1008E00081110FC081E080937B0110925B0109C0F0
:1008F000803C09F4A6CF883C09F4A3CF883B09F0DB
:100900007DCFE0917C0181E08E0F80937C01F0E04F
:10091000E55AFE4F80818093BB0090917C018091CD
:100920007B0129C08091A5018093BB0085EC809359
:10093000BC0064CF9091C7018091C601981758F50B
:10094000E091C70181E08E0F8093C701F0E0EA5586
:10095000FE4F8081E9CFE091C70181E08E0F809347
:10096000C7018091BB00F0E0EA55FE4F8083909173
:10097000C7018091C6019817C8F285E8D8CFE091E9
:10098000C70181E08E0F8093C7018091BB00F0E02A
:10099000EA55FE4F80838091C90181115CCF81E0CF
:1009A0008093A40184EA8093BC001092CA0126CFF0
:1009B00085EC8093BC001092CA0180919D01803229
:1009C00030F4E0919D01F0E0E358FE4F1082609119
:1009D0009D0170E0E0919E01F0919F018DE791E013
:1009E000099510929D010ACF1092C80134CFEDEF06
:1009F000F1E01382128288EE93E0A0E0B0E08483FD
:100A00009583A683B78324E031E03183208325ECEE
:100A100030E03587248724EC30E03787268720ECC8
:100A200030E0318B208B21EC30E0338B228B22ECB9
:100A300030E0358B248B26EC30E0378B268B118E03
:100A4000128E138E148EEAE9F2E0138212828483EE
:100A50009583A683B78386E191E09183808308958F
:100A6000CF93DF93CDB7DEB7A1970FB6F894DEBF73
:100A70000FBECDBF789484B5826084BD84B581609B
:100A800084BD85B5826085BD85B5816085BD809159
:100A90006E00816080936E001092810080918100D1
:100AA00082608093810080918100816080938100C9
:100AB000809180008160809380008091B10084608B
:100AC0008093B1008091B00081608093B0008091EC
:100AD0007A00846080937A0080917A0082608093AB
:100AE0007A0080917A00816080937A0080917A0008
:100AF000806880937A001092C100E0910D02F0911D
:100B00000E0282E08083E0910902F0910A021082D5
:100B1000E0910B02F0910C0280E1808310921502AB
:100B2000E0911102F091120286E08083E0910F02C1
:100B3000F0911002808180618083E0910F02F0913A
:100B40001002808188608083E0910F02F091100292
:100B5000808180688083E0910F02F0911002808193
:100B60008F7D80831092A3011092A2011092D10177
:100B70001092F3010E94290283EF90E09093A1016B
:100B80008093A00184EF90E090939F0180939E0159
:100B900045EE242E55EC352E60E0A62E60E0B62EF4
:100BA00072E0872E99249A9484E291E00E94F102E7
:100BB000C12CD12C7601C39411E00C2D1093D001DF
:100BC000C092F2011092D1011092F3010E94CE0066
:100BD0002B013C018091CA01811162C08092CA013F
:100BE0001093C9019092C8011092C7011092C601DA
:100BF0001092A5019091A501802F880F892B8093D9
:100C0000A5018091A401813009F0E5C01092A401F2
:100C10000E94CE002B013C018091A5018093BB0076
:100C20008091CC019091CD01A091CE01B091CF01E6
:100C3000892B8A2B8B2BA1F00E94CE002091CC0116
:100C40003091CD014091CE015091CF0164197509C9
:100C500086099709261737074807590708F441C03E
:100C60008091BC0083FDD8CF3092BC000E94CE00A2
:100C70002B013C018091CA01823009F4AFC0809100
:100C8000C8018F3F09F4CCC08091C801803209F4BB
:100C9000C9C08091C801803309F0C6C083E026C076
:100CA0008091CC019091CD01A091CE01B091CF0166
:100CB000892B8A2B8B2B09F48DCF0E94CE0020919B
:100CC000CC013091CD014091CE015091CF016419FA
:100CD000750986099709261737074807590708F045
:100CE00079CF8091CB010E94470285E01092D1011B
:100CF0001092F3011092D00181112CC081E391E098
:100D00000E94F102003120F485E391E00E94F1029B
:100D100019A226013701CE018196B301A2014F70BD
:100D200055276627772724E076946794579447944D
:100D30002A95D1F74A300CF079C0405DFC0142930E
:100D4000CF01411451046104710439F7EF2B11F004
:100D50000E94F102FFEFCF1ADF0AEF0AFF0A2FE726
:100D6000C216D104E104F10409F027CF87E391E032
:100D70000E94F1020E94CE002B013C0184EFC82E9C
:100D8000DD24D394E12CF12C0E94CE006419750966
:100D900086099709683E734081059105A8F381E0B3
:100DA000C81AD108E108F108E8EE4E0EE3E05E1E35
:100DB000611C711CC114D104E104F10429F7A114D0
:100DC000B10409F4F1CE0E945F01882309F4ECCE4E
:100DD0000E940000E9CE2092BC0048CF8091CC0157
:100DE0009091CD01A091CE01B091CF01892B8A2B9A
:100DF0008B2B09F43FCF0E94CE002091CC01309183
:100E0000CD014091CE015091CF0164197509860939
:100E10009709261737074807590708F02BCF61CFE6
:100E200080E064CF82E062CF84E060CF495C86CF0F
:100E3000EE0FFF1F0590F491E02D0994F894FFCF79
:100E4000000000009501F5002201E201530131018B
:100E5000450100000000BF029202EE0268028B0210
:100E600078026902656E636F6E747261646F733AC3
:0A0E7000002030780030000D0A0069
:00000001FF
