:100000000C9468000C949A070C9473070C9490005D
:100010000C9490000C9490000C9490000C94900020
:100020000C9490000C9490000C9490000C94900010
:100030000C9490000C9490000C9490000C94900000
:100040000C9429070C9490000C94E7070C94C107BA
:100050000C9490000C9490000C9490000C949000E0
:100060000C9419080C949000000000002400270054
:100070002A001F1C1F1E1F1E1F1F1E1F1E00000008
:1000800000250028002B0000000000230026002986
:100090000004040404040404040202020202020331
:1000A000030303030301020408102040800102043B
:1000B00008102001020408102000000008000201BE
:1000C00000000304070000000000000000003809E1
:1000D00011241FBECFEFD8E0DEBFCDBF22E0A8E8DD
:1000E000B1E001C01D92AF3FB207E1F711E0A0E01F
:1000F000B1E0E4E6FBE102C005900D92A838B1073B
:10010000D9F710E0C8E6D0E004C02197FE010E94B4
:10011000850CC736D107C9F70E9471090C94B00D40
:100120000C940000833081F028F4813099F0823003
:10013000A9F008958730A9F08830C9F08430B1F46F
:10014000809180008F7D03C0809180008F778093A5
:100150008000089584B58F7784BD089584B58F7D20
:10016000FBCF8091B0008F778093B000089580918D
:10017000B0008F7DF9CFCF93DF93EBEBF0E084916C
:10018000E7EAF0E0D491E3E9F0E0C491CC23A1F0F8
:1001900081110E949200EC2FF0E0EE0FFF1FE95753
:1001A000FF4FA591B491EC91ED2381E090E009F42B
:1001B00080E0DF91CF91089580E090E0FACF1F9327
:1001C000CF93DF93282F30E0F901E754FF4F84915C
:1001D000F901EB55FF4FD491F901EF56FF4FC49150
:1001E000CC23A9F0162F81110E949200EC2FF0E091
:1001F000EE0FFF1FE358FF4FA591B4918FB7F8940E
:10020000EC91111108C0D095DE23DC938FBFDF91F4
:10021000CF911F910895DE2BF8CF3FB7F8948091CE
:10022000DA019091DB01A091DC01B091DD0126B5EE
:10023000A89B05C02F3F19F00196A11DB11D3FBF1E
:10024000BA2FA92F982F8827BC01CD01620F711DED
:10025000811D911D42E0660F771F881F991F4A95E7
:10026000D1F708958F929F92AF92BF92CF92DF9273
:10027000EF92FF924B015C010E940D016B017C012A
:100280000E940D016C197D098E099F09683E73401B
:1002900081059105A8F321E0821A9108A108B1080F
:1002A00088EEC80E83E0D81EE11CF11C8114910475
:1002B000A104B10429F7FF90EF90DF90CF90BF9099
:1002C000AF909F908F900895089508950895AF92EC
:1002D000BF92CF92DF92EF92FF920F931F93CF9333
:1002E000DF936C017B018B01040F151FEB015E0195
:1002F000AE18BF08C017D10759F06991D601ED912A
:10030000FC910190F081E02DC6010995892B79F7C8
:10031000C501DF91CF911F910F91FF90EF90DF907A
:10032000CF90BF90AF900895FC01538D448D252F41
:1003300030E0842F90E0821B930B541710F0CF967F
:10034000089501970895FC01918D828D981761F0B1
:10035000A28DAE0FBF2FB11D5D968C91928D9F5FC8
:100360009F73928F90E008958FEF9FEF0895FC01A7
:10037000918D828D981731F0828DE80FF11D858D5A
:1003800090E008958FEF9FEF0895FC01918D228DED
:10039000892F90E0805C9F4F821B91098F73992772
:1003A000089582E592E00E94C50121E0892B09F4BD
:1003B00020E0822F089580E090E0892B29F00E94B0
:1003C000D10181110C9400000895FC01A48DA80FA7
:1003D000B92FB11DA35ABF4F2C91848D90E0019687
:1003E0008F739927848FA689B7892C93A089B189A7
:1003F0008C91837080648C93938D848D981306C048
:100400000288F389E02D80818F7D80830895EF92AB
:10041000FF920F931F93CF93DF93EC0181E0888FBE
:100420009B8D8C8D98131AC0E889F989808185FF8E
:1004300015C09FB7F894EE89FF896083E889F98930
:1004400080818370806480839FBF81E090E0DF9132
:10045000CF911F910F91FF90EF900895F62E0B8D85
:1004600010E00F5F1F4F0F731127E02E8C8D8E1140
:100470000CC00FB607FCFACFE889F989808185FFA7
:10048000F5CFCE010E94E501F1CFEB8DEC0FFD2FF2
:10049000F11DE35AFF4FF0829FB7F8940B8FEA8962
:1004A000FB8980818062CFCFCF93DF93EC01888D71
:1004B0008823B9F0AA89BB89E889F9898C9185FDDF
:1004C00003C0808186FD0DC00FB607FCF7CF8C916D
:1004D00085FFF2CF808185FFEDCFCE010E94E5013F
:1004E000E9CFDF91CF9108952091A901260F3327FD
:1004F000331F21323105ECF420912802FC0190E0F9
:1005000080E0243069F082E00895A091A901219152
:10051000AC0147575E4FA40FB52FB11D2C93019628
:10052000861798F38091A901680F6093A90180E074
:10053000089581E008951092280281E080932702B7
:100540001092020261E082E10E94DF0061E083E13B
:100550000E94DF00E9EBF0E080818E7F8083808164
:100560008D7F808388E48093B80085E48093BC000D
:100570000895CF93DF9391E0909388018823B9F099
:10058000C091B800D091BA008091BC008A7B809362
:10059000BC0060E082E10E94DF0060E083E10E9435
:1005A000DF000E949B02D093BA00C093B800DF9195
:1005B000CF9108958F929F92AF92BF92CF92DF9288
:1005C000EF92FF920F931F93CF93DF93D09151023D
:1005D000D13208F0D7C0182FC09150020E940D01EF
:1005E0006B017C018091280281116BC082E08093B5
:1005F0002802109327028FEF809326021092250283
:10060000D0932402A0E3B2E0E4E0F2E080E0D8136B
:1006100091C01092030280910302CC0FC82BC093AB
:10062000030280910202813009F088C01092020218
:100630000E940D016B017C01809103028093BB003D
:1006400080912A0290912B02A0912C02B0912D0250
:10065000892B8A2B8B2BA1F00E940D0100912A027D
:1006600010912B0220912C0230912D026C197D09E2
:100670008E099F09061717072807390708F442C093
:100680008091BC0083FDD8CF85EC8093BC000E9494
:100690000D016B017C0180912802823009F450C069
:1006A000809126028F3F09F46FC08091260280322C
:1006B00009F46CC080912602803309F469C084E09B
:1006C00026C080912A0290912B02A0912C02B09119
:1006D0002D02892B8A2B8B2B09F484CF0E940D01CC
:1006E00080902A0290902B02A0902C02B0902D02B4
:1006F0006C197D098E099F0986169706A806B9060A
:1007000008F070CF809129020E94B90285E0109212
:100710002F021092510210922E02DF91CF911F9161
:100720000F91FF90EF90DF90CF90BF90AF909F9090
:100730008F9008959D9191938F5F69CF85EEA5CF9E
:1007400080912A0290912B02A0912C02B0912D024F
:10075000892B8A2B8B2B09F49ECF0E940D010091CF
:100760002A0210912B0220912C0230912D026C193B
:100770007D098E099F09061717072807390708F012
:100780008ACFC0CF81E0C3CF80E0C1CF82E0BFCFAE
:1007900083E0BDCF0895E091E1018091E001E81789
:1007A00030F4F0E0EE51FE4F808190E008958FEF3D
:1007B0009FEF08959091E1018091E0012FEF3FEFCD
:1007C000981748F4E92FF0E0EE51FE4F208130E019
:1007D0009F5F9093E101C90108958091E00190919C
:1007E000E101891B990B0895CF92DF92EF92FF925E
:1007F0000F931F93CF93DF937C01CB018A0120914C
:100800002E02222389F0EB016B01C40ED51ECC15FC
:10081000DD0569F06991D701ED91FC910190F081BE
:10082000E02DC7010995F3CF642F0E947402C8011F
:10083000DF91CF911F910F91FF90EF90DF90CF90BC
:100840000895CF93DF931F92CDB7DEB769832091D0
:100850002E022223F9F020915102203258F021E09B
:1008600030E0FC013383228390E080E00F90DF9141
:10087000CF91089580912F02E82FF0E0E05DFD4FC9
:10088000998190838F5F80932F028093510281E042
:1008900090E0ECCF61E0CE0101960E947402F7CFA8
:1008A00090E080E00895CF93DF93EC018B81882363
:1008B000A1F0888191E090932E02809350021092D3
:1008C0002F021092510281E00E94DA0291E0811120
:1008D00090E0892FDF91CF9108951092E10110925D
:1008E000E00110922F02109251020E949B0284E6B6
:1008F00091E09093CF018093CE0185E691E09093B3
:10090000CD018093CC0181E08B83CE010E94530402
:10091000982F8111CECFDDCFDC0150E0E2E7F0E08F
:1009200081E0861730F49491490F511D8F5F319605
:10093000F8CF633038F0CD0183709927892B11F4FB
:100940004F5F5F4F9D012D5F3F4F36952795369541
:1009500027956DE671E0A69FC001A79F900DB69FF9
:10096000900D11240197820F931F840F951F0895F6
:1009700081E08093D4012FB7F8948091D6019091B3
:10098000D701A091D801B091D9012FBF8093D00198
:100990009093D101A093D201B093D3010895FC01AB
:1009A00001900020E9F73197AF01481B590BBC01BA
:1009B00082E592E00C9467018F929F92AF92BF9272
:1009C0000F931F93CF93DF93CDB7DEB7A1970FB6E9
:1009D000F894DEBF0FBECDBF19A2423008F44AE042
:1009E0008E010F5D1F4F842E912CB12CA12CA501DF
:1009F00094010E94630CE62FB901CA01EA30F4F4B5
:100A0000E05DD801EE938D01232B242B252B79F764
:100A100090E080E0109719F0CD010E94CF04A196DC
:100A20000FB6F894DEBF0FBECDBFDF91CF911F91FF
:100A30000F91BF90AF909F908F900895E95CE1CFA8
:100A40002F923F924F925F926F927F928F929F92DE
:100A5000AF92BF92CF92DF92EF92FF920F931F93CC
:100A6000CF93DF935C011B016A01F12CE12CD501CE
:100A700014968D919C9186010E191F09801791077C
:100A800008F48C01F501D0810E940D012B013C017D
:100A900080912802811172C0C02F013208F0C0E29B
:100AA000F1E0F093280221E0C601801B910BE816CB
:100AB000F90608F420E0209327028FEF80932602A6
:100AC000109225028C0F80932402A1E0A0930302D0
:100AD00080910302DD0FD82BD09303028091020294
:100AE000813009F090C0109202020E940D012B018A
:100AF0003C01809103028093BB0080912A02909177
:100B00002B02A0912C02B0912D02892B8A2B8B2BCA
:100B1000A1F00E940D0120912A0230912B024091F8
:100B20002C0250912D026419750986099709261720
:100B300037074807590708F442C08091BC0083FD7D
:100B4000D8CFB5ECB093BC000E940D012B013C0145
:100B500080912802813009F45AC0809125028C17B7
:100B600010F4C0912502A4E0B2E0E2EEF1E080E0F2
:100B70008C1751F19D9191938F5FFACF80912A024A
:100B800090912B02A0912C02B0912D02892B8A2BDF
:100B90008B2B09F47DCF0E940D0120912A02309108
:100BA0002B0240912C0250912D026419750986097F
:100BB0009709261737074807590708F069CF80912A
:100BC00029020E94B902C0E01092E101C093E00145
:100BD000C017110609F057C041018E0C9F1CE4019B
:100BE000CE01881999098017910798F5D5011196BA
:100BF0008D919C91DC01ED91FC910284F385E02DB7
:100C000009958993EDCFE5EEE093BC009DCF8091EF
:100C10002A0290912B02A0912C02B0912D02892BD7
:100C20008A2B8B2B09F494CF0E940D0120912A026C
:100C300030912B0240912C0250912D0264197509BC
:100C400086099709261737074807590708F080CF04
:100C5000B6CFE00EF11EEC14FD0408F408CF81E0DD
:100C6000DF91CF911F910F91FF90EF90DF90CF9088
:100C7000BF90AF909F908F907F906F905F904F90BC
:100C80003F902F90089580E0EBCF1F93CF93DF9399
:100C9000DC011496ED91FC91E417F50710F490E057
:100CA0001FC0122FEA01FC0181819281208131E075
:100CB00030932E022093500210922F021092510274
:100CC000DC01ED91FC910280F381E02D0995C817BC
:100CD000D90729F7812F0E94DA0291E08111DFCF35
:100CE000892FDF91CF911F910895CF93DF9300D08B
:100CF000CDB7DEB78A8321E041E050E0BE016E5FF0
:100D00007F4F8091DE019091DF010E94450641E016
:100D100050E0BE016F5F7F4F8091DE019091DF0157
:100D20000E94200589810F900F90DF91CF91089547
:100D3000CF93DF9300D0CDB7DEB789836A8321E0FC
:100D400042E050E0BE016F5F7F4F8091DE019091E5
:100D5000DF010E9445060F900F90DF91CF9108951B
:100D6000CF93DF93C82F8FE00E947506C150DD0B33
:100D700061E070E001C0660FCA95EAF760956823EC
:100D80008FE0DF91CF910C949806CF92DF92EF9293
:100D9000FF92CF93DF9397FF1BC06B017C016DE245
:100DA00082E592E00E940702EC0166277727CB01DB
:100DB0006C197D098E099F094AE00E94DC048C0FA2
:100DC0009D1FDF91CF91FF90EF90DF90CF9008951E
:100DD0004AE0DF91CF91FF90EF90DF90CF900C949D
:100DE000DC0485ED8093BC0080912A0290912B0257
:100DF000A0912C02B0912D020796A11DB11D23E0F8
:100E0000B695A795979587952A95D1F72091BC001F
:100E100024FD03C010922802089540912A025091A7
:100E20002B0260912C0270912D02452B462B472BF3
:100E300069F30097A105B10541F02AE22A95F1F77F
:100E400000C00197A109B109E1CF809129020C945A
:100E5000B9021F920F920FB60F9211242F933F9356
:100E60008F939F93AF93BF938091D6019091D701B9
:100E7000A091D801B091D9013091D50123E0230F81
:100E80002D3758F50196A11DB11D2093D5018093F2
:100E9000D6019093D701A093D801B093D901809146
:100EA000DA019091DB01A091DC01B091DD010196A6
:100EB000A11DB11D8093DA019093DB01A093DC01A9
:100EC000B093DD01BF91AF919F918F913F912F9191
:100ED0000F900FBE0F901F90189526E8230F0296D3
:100EE000A11DB11DD2CF1F920F920FB60F921124E8
:100EF0002F933F934F935F936F937F938F939F9322
:100F0000AF93BF93EF93FF93E0910201F091030140
:100F10000995FF91EF91BF91AF919F918F917F9133
:100F20006F915F914F913F912F910F900FBE0F9056
:100F30001F9018951F920F920FB60F9211242F93A6
:100F40003F934F935F936F937F938F939F93AF9351
:100F5000BF93EF93FF93E0910001F0910101099598
:100F6000FF91EF91BF91AF919F918F917F916F9181
:100F70005F914F913F912F910F900FBE0F901F9057
:100F800018951F920F920FB60F9211242F933F9333
:100F90004F935F936F937F938F939F93AF93BF9381
:100FA000EF93FF9382E592E00E94E501FF91EF91BC
:100FB000BF91AF919F918F917F916F915F914F9171
:100FC0003F912F910F900FBE0F901F9018951F9279
:100FD0000F920FB60F9211242F938F939F93EF933D
:100FE000FF93E0916202F09163028081E0916802D8
:100FF000F091690282FD1BC0908180916B028F5F2E
:101000008F7320916C02821741F0E0916B02F0E047
:10101000EE5AFD4F958F80936B02FF91EF919F9158
:101020008F912F910F900FBE0F901F901895808178
:10103000F4CF1F920F920FB60F9211242F933F936C
:101040004F935F936F937F938F939F93AF93BF93D0
:10105000EF93FF938091B900887F803609F44AC0EE
:10106000F0F5883209F4A7C018F5803109F49BC067
:10107000B8F4882309F4F9C0883009F494C0FF91CA
:10108000EF91BF91AF919F918F917F916F915F9100
:101090004F913F912F910F900FBE0F901F90189579
:1010A000883109F488C0803251F78093260214C039
:1010B000803409F49DC040F48033B9F38833F9F6E5
:1010C0008093260285ECB0C0803509F485C0883550
:1010D00009F496C0883499F60E94F106D0CF883979
:1010E00009F48CC038F5883729F050F4883611F0AF
:1010F000803729F683E0809328021092CB0157C0F5
:10110000883809F47BC0803919F0803809F0B7CFEE
:101110008091CB01803208F071C0E091CB0181E079
:101120008E0F8093CB018091BB00F0E0E555FE4F20
:1011300080833DC0803B39F0E0F4803A09F479C007
:10114000883A09F09CCF84E0809328021092AA018B
:101150001092A901E091CE01F091CF010995809103
:10116000A90181110FC081E08093A901109289012A
:1011700009C0803C09F4A6CF883C09F4A3CF883B82
:1011800009F07DCFE091AA0181E08E0F8093AA0142
:10119000F0E0E757FE4F80818093BB009091AA0159
:1011A0008091A90129C0809103028093BB0085EC46
:1011B0008093BC0064CF90912502809124029817FF
:1011C00058F5E091250281E08E0F80932502F0E032
:1011D000EC5FFD4F8081E9CFE091250281E08E0F29
:1011E000809325028091BB00F0E0EC5FFD4F80838F
:1011F00090912502809124029817C8F285E8D8CFF3
:10120000E091250281E08E0F809325028091BB0042
:10121000F0E0EC5FFD4F80838091270281115CCF6D
:1012200081E08093020284EA8093BC00109228023D
:1012300026CF85EC8093BC00109228028091CB01D0
:10124000803230F4E091CB01F0E0E555FE4F1082A2
:101250006091CB0170E0E091CC01F091CD018BEA7F
:1012600091E009951092CB010ACF1092260234CF5B
:10127000E2E5F2E01382128288EE93E0A0E0B0E0B3
:1012800084839583A683B7832EE031E03183208366
:1012900025EC30E03587248724EC30E0378726873B
:1012A00020EC30E0318B208B21EC30E0338B228B33
:1012B00022EC30E0358B248B26EC30E0378B268B0C
:1012C000118E128E138E148EEFEEF2E013821282C4
:1012D00084839583A683B78380E291E091838083A2
:1012E0000895CF93DF9300D000D000D01F92CDB7E8
:1012F000DEB7789484B5826084BD84B5816084BD96
:1013000085B5826085BD85B5816085BD80916E00A3
:10131000816080936E0010928100809181008260D4
:101320008093810080918100816080938100809111
:1013300080008160809380008091B1008460809300
:10134000B1008091B00081608093B00080917A00FC
:10135000846080937A0080917A00826080937A0022
:1013600080917A00816080937A0080917A00806811
:1013700080937A001092C100E0916202F0916302C2
:1013800082E08083E0915E02F0915F021082E09142
:101390006002F091610280E1808310926A02E09124
:1013A0006602F091670286E08083E0916402F0912A
:1013B0006502808180618083E0916402F091650222
:1013C000808188608083E0916402F0916502808171
:1013D00080688083E0916402F091650280818F7D56
:1013E0008083E7EAF0E02491E3E9F0E08491882348
:1013F000C9F090E0880F991FFC01E859FF4F459113
:101400005491FC01E358FF4FA591B4919FB7F89414
:10141000FA0180812095822380838C91E22FE8233A
:10142000EC939FBF8091DE019091DF01009711F056
:101430000E94270D86E090E00E948B0C8C0188E6CC
:10144000F80180838FEE92E092838183138280E2A1
:1014500090E0958384831093DF010093DE01109266
:10146000E1011092E00110922F02109251020E94AD
:101470009B0284E691E09093CF018093CE0185E6B4
:1014800091E09093CD018093CC0181E0F8018383BA
:10149000C8010E945304282E81110FC08EE291E0F2
:1014A0000E94CF0480E491E00E94CF046AE070E0E3
:1014B00080E090E00E943201F9CF8FE00E94750633
:1014C000682F677F8FE00E94980681E00E94B00637
:1014D00082E00E94B0068EE00E947506682F6C6163
:1014E0008EE00E94980619820091DE011091DF01C2
:1014F00020E041E050E0BE016F5F7F4FC8010E94D5
:101500004506882341F047E050E0BE016F5F7F4F02
:10151000C8010E94200529812F77822F90E034E0B6
:10152000959587953A95E1F7982F990F990F182F70
:10153000191B110F120F2A81822F90E044E095951C
:1015400087954A95E1F7982F990F990F082F091B56
:10155000000F020F2B81822F90E054E09595879524
:101560005A95E1F7982F990F990FF82EF91AFF0C59
:10157000F20E8D819E819F775F81A82FB0E064E09D
:10158000B595A7956A95E1F72A2F220F220F4A2FCA
:10159000421B440F480FE92FF0E074E0F595E79502
:1015A0007A95E1F78E2F880F880F6E2F681B660FD4
:1015B000690F252F30E0E4E035952795EA95E1F7AE
:1015C000822F880F880FF22FF81B8F2F880F850F1F
:1015D00090E00E948C04812E912CB12CA12C9C01B6
:1015E000A8E1B0E00E94480C9B01AC012F0D311D19
:1015F000411D511DACE3B0E00E943D0C9B01AC01CC
:10160000200F311D411D511D0E943D0C950184018B
:101610000D5F1F4F2F4F3F4F2B013C01400E511EBE
:10162000621E731EC301B20120E831E541E050E0C3
:101630000E94630C690120E043E95EEF322F3370B2
:1016400081E090E011F090E080E02F5FBC016359F1
:101650007E4FC616D70608F008C1E2E7F0E021E0A9
:101660008491311103C0223009F48F5F90E03196EC
:10167000C816D90628F0C81AD90A2F5F2C3081F76E
:101680008EE00E947506382E82FFF5C01CE3E12E25
:10169000F12C00E010E0C301B201A80197010E9403
:1016A000630CD62ECA01B901A80197010E94630CF0
:1016B000062FC301B20120E13EE040E050E00E946D
:1016C000630CCA01B90128E130E040E050E00E941B
:1016D000630C362FC39487E089832AE08D2D622F17
:1016E0000E94570C682F660F680F660F6D0D6A8396
:1016F000802F622F0E94570C982F990F980F990FE7
:10170000900F90689B83832F0E94570C982F990FFE
:10171000980F990F930F90689C838C2D0E94570C03
:10172000282F880F820F880F8C0D80688D8321E011
:1017300045E050E0BE016F5F7F4F8091DE019091E8
:10174000DF010E944506632D61608EE00E949806CD
:1017500083E491E00E94CF04622D70E090E080E08D
:101760000E94C50689E591E00E94CF044AE0C501C8
:10177000B4010E94DC0481E691E00E94CF042FB7FF
:10178000F8946091D6017091D7018091D801909121
:10179000D9012FBF4AE00E94DC0480E491E00E945E
:1017A000CF0488EB94E09093010180930001809135
:1017B00069008C7F826080936900E89A00E010E005
:1017C0008091D401882309F444C01092D40188E6A2
:1017D00091E00E94CF046091D0017091D10180917D
:1017E000D2019091D3014AE00E94DC0483E791E0AA
:1017F0000E94CF048FE00E9475068170682F70E010
:1018000090E080E00E94C50683E891E00E94CF044A
:101810000E94BB00BC01990F880B990B0E94C50662
:1018200081E00E94B00661E070E080E090E00E94FC
:1018300032018BE791E00E94CF040E94BB00BC0103
:10184000990F880B990B0E94C50680E491E00E94D5
:10185000CF040115110509F4B3CF0E94D1018823EB
:1018600009F4AECF0E940000ABCFBA01681B790B20
:10187000C60ED71EE3CE212C6BCF0E94480CA59F2D
:10188000900DB49F900DA49F800D911D112408957B
:10189000A29FB001B39FC001A39F700D811D1124B1
:1018A000911DB29F700D811D1124911D0895991BEA
:1018B00079E004C0991F961708F0961B881F7A9547
:1018C000C9F780950895A1E21A2EAA1BBB1BFD0142
:1018D0000DC0AA1FBB1FEE1FFF1FA217B307E4070F
:1018E000F50720F0A21BB30BE40BF50B661F771F67
:1018F000881F991F1A9469F7609570958095909547
:101900009B01AC01BD01CF010895EE0FFF1F0590B3
:10191000F491E02D09940F931F93CF93DF938230BE
:10192000910510F482E090E0E091FD02F091FE025A
:1019300030E020E0B0E0A0E0309799F421153105C7
:1019400009F44AC0281B390B24303105D8F58A81A7
:101950009B816115710589F1FB0193838283FE01EF
:1019600011C0408151810281138148175907E0F06D
:101970004817590799F4109761F012960C93129733
:1019800013961C933296CF01DF91CF911F910F9147
:1019900008950093FD021093FE02F4CF2115310546
:1019A00051F04217530738F0A901DB019A01BD013C
:1019B000DF01F801C1CFEF01F9CF9093FE028093D0
:1019C000FD02CDCFFE01E20FF31F819391932250D0
:1019D000310939832883D7CF2091FB023091FC0253
:1019E000232B41F420910601309107013093FC0232
:1019F0002093FB022091040130910501211531054E
:101A000041F42DB73EB74091080150910901241BC4
:101A1000350BE091FB02F091FC02E217F307A0F412
:101A20002E1B3F0B2817390778F0AC014E5F5F4F34
:101A30002417350748F04E0F5F1F5093FC02409368
:101A4000FB02819391939FCFF0E0E0E09CCFCF9396
:101A5000DF930097E9F0FC01329713821282A09184
:101A6000FD02B091FE02ED0130E020E01097A1F4FC
:101A700020813181820F931F2091FB023091FC0263
:101A80002817390709F061C0F093FC02E093FB02CC
:101A9000DF91CF910895EA01CE17DF07E8F54A817B
:101AA0005B819E0141155105B1F7E901FB83EA8392
:101AB00049915991C40FD51FEC17FD0761F480813E
:101AC00091810296840F951FE90199838883828111
:101AD00093819B838A83F0E0E0E012968D919C9144
:101AE00013970097B9F52D913C911197CD0102966E
:101AF000820F931F2091FB023091FC0228173907B7
:101B000039F6309751F51092FE021092FD02B09313
:101B1000FC02A093FB02BCCFD383C28340815181DE
:101B2000840F951FC817D90761F44E5F5F4F8881F6
:101B30009981480F591F518340838A819B819383E8
:101B400082832115310509F0B0CFF093FE02E093B6
:101B5000FD029ECFFD01DC01C0CF13821282D7CFE0
:041B6000F894FFCF27
:101B6400660166010000FF02800000000000070219
:101B7400670194015402C501A301B70100000000EC
:101B84002104F4035004CA03ED03DA03CB035254D3
:101B940043206E6F20656E636F6E747261646F00B4
:101BA4000D0A00616C61726D612070726F67726101
:101BB4006D616461206F6B3D002061206C61732056
:101BC400002B33206D733D00414C41524D41206D3B
:101BD400733D002066697265643D0020646573701E
:081BE4007565732044323D00D9
:00000001FF
