:100000000C945E000C9486000C9486000C94860080
:100010000C9486000C9486000C9486000C94860048
:100020000C9486000C9486000C9486000C94860038
:100030000C9486000C9486000C9486000C94860028
:100040000C94ED090C9486000C945D0A0C94370A0C
:100050000C9486000C9486000C9486000C94860008
:100060000C948F0A0C9486000000000024002700E6
:100070002A0000000000250028002B0004040404CE
:100080000404040402020202020203030303030342
:10009000010204081020408001020408102001021F
:1000A00004081020000000080002010000030407FB
:1000B0000000000000000000AE0B3A1211241FBE29
:1000C000CFEFD8E0DEBFCDBF11E0A0E0B1E0EAE7BE
:1000D000F0E302C005900D92AA38B107D9F723E0EA
:1000E000AAE8B1E001C01D92A733B207E1F710E022
:1000F000CDE5D0E004C02197FE010E94F616CC3574
:10010000D107C9F70E94280C0C9430180C940000F9
:100110000895089590E0FC01EC55FF4F2491FC01F7
:10012000E057FF4F3491FC01E458FF4FE491EE2378
:10013000C9F0222339F0233001F1A8F4213019F15C
:10014000223029F1F0E0EE0FFF1FEE58FF4FA5918E
:10015000B4918FB7F894EC91611126C030953E238D
:100160003C938FBF08952730A9F02830C9F0243080
:1001700049F7809180008F7D03C0809180008F7748
:1001800080938000DFCF84B58F7784BDDBCF84B5CB
:100190008F7DFBCF8091B0008F778093B000D2CF5E
:1001A0008091B0008F7DF9CF3E2BDACFCF93DF93D4
:1001B00090E0FC01E057FF4F249184589F4FFC01D1
:1001C00084918823D1F090E0880F991FFC01E859B1
:1001D000FF4FA591B491FC01EE58FF4FC591D4910A
:1001E00061110EC09FB7F8948C91E22FE0958E2399
:1001F0008C932881E223E8839FBFDF91CF910895FC
:100200008FB7F894EC91E22BEC938FBFF6CF82304E
:10021000910538F0880F991F880F991F059701974E
:10022000F1F708953FB7F8948091D4019091D501EA
:10023000A091D601B091D70126B5A89B05C02F3F4C
:1002400019F00196A11DB11D3FBFBA2FA92F982FFC
:100250008827BC01CD01620F711D811D911D42E0F7
:10026000660F771F881F991F4A95D1F708958F92BF
:100270009F92AF92BF92CF92DF92EF92FF924B018B
:100280005C010E9412016B017C010E9412016C1939
:100290007D098E099F09683E734081059105A8F389
:1002A00021E0821A9108A108B10888EEC80E83E007
:1002B000D81EE11CF11C81149104A104B10429F79A
:1002C000FF90EF90DF90CF90BF90AF909F908F9076
:1002D0000895AF92BF92CF92DF92EF92FF920F9369
:1002E0001F93CF93DF936C017B018B01040F151FCC
:1002F000EB015E01AE18BF08C017D10759F0699134
:10030000D601ED91FC910190F081E02DC601099597
:10031000892B79F7C501DF91CF911F910F91FF9044
:10032000EF90DF90CF90BF90AF900895FC01538D78
:10033000448D252F30E0842F90E0821B930B5417BF
:1003400010F0CF96089501970895FC01918D828D4C
:10035000981761F0A28DAE0FBF2FB11D5D968C91E5
:10036000928D9F5F9F73928F90E008958FEF9FEF24
:100370000895FC01918D828D981731F0828DE80FE0
:10038000F11D858D90E008958FEF9FEF0895FC019A
:10039000918D228D892F90E0805C9F4F821B910967
:1003A0008F73992708958EE492E00E94C70121E09F
:1003B000892B09F420E0822F089580E090E0892BBA
:1003C00029F00E94D30181110C9400000895FC01D2
:1003D000A48DA80FB92FB11DA35ABF4F2C91848DA6
:1003E00090E001968F739927848FA689B7892C9303
:1003F000A089B1898C91837080648C93938D848D56
:10040000981306C00288F389E02D80818F7D808358
:100410000895EF92FF920F931F93CF93DF93EC0118
:1004200081E0888F9B8D8C8D98131AC0E889F9899B
:10043000808185FF15C09FB7F894EE89FF8960839E
:10044000E889F98980818370806480839FBF81E01F
:1004500090E0DF91CF911F910F91FF90EF90089561
:10046000F62E0B8D10E00F5F1F4F0F731127E02E3C
:100470008C8D8E110CC00FB607FCFACFE889F98974
:10048000808185FFF5CFCE010E94E701F1CFEB8D92
:10049000EC0FFD2FF11DE35AFF4FF0829FB7F89448
:1004A0000B8FEA89FB8980818062CFCFCF93DF9366
:1004B000EC01888D8823B9F0AA89BB89E889F9897C
:1004C0008C9185FD03C0808186FD0DC00FB607FCB1
:1004D000F7CF8C9185FFF2CF808185FFEDCFCE01E4
:1004E0000E94E701E9CFDF91CF910895FC01838558
:1004F0008F3F19F061E00C948A000895FC0180811F
:100500009181892B39F0A281B3819C9111968C91B4
:100510009CBD8DBD83858F3F19F060E00C948A00EF
:100520000895BF92CF92DF92EF92FF920F931F93A5
:10053000CF93DF93EC0188819981892B81F06EBD87
:100540000DB407FEFDCF0EB5802FDF91CF911F9127
:100550000F91FF90EF90DF90CF90BF900895888526
:10056000998511E0892B09F010E8BB24B394862FFC
:10057000812309F0B12CF62E2C813D814E815F81C3
:1005800060E271EA87E090E00E941F15E22E00E031
:10059000C22ED12CEE2019F0C6010E9407018A85D7
:1005A000982F977F09F044C08D858F3F89F09F2D4C
:1005B000912381E009F480E08B1551F0EF85F889F3
:1005C0008F89992379F19081892B8083BB24B394FF
:1005D000E989FA898081998D892B8083EE2019F031
:1005E000C6010E9407018E858F3F39F0EB89FC8997
:1005F0008081988D892309F0012BE989FA899081FE
:10060000898D80958923808388859985892B09F038
:1006100067C0110F1111BECF8E858F3F09F094CFA7
:100620000F2D92CF9081809589238083B12CD0CFDC
:100630008C3099F58D858F3F49F0EF85F8898F894A
:100640009F2D912331F19081892B8083E989FA894B
:100650009081898D809589238083EE2019F0C601D1
:100660000E940701E989FA898081998D892B80830D
:10067000EE2019F0C6010E9407018E858F3F21F2FE
:10068000EB89FC898081988D892309F4BDCF012BEA
:10069000BBCF908180958923D8CFE989FA89808161
:1006A000998D892B8083EE2019F0C6010E940701E5
:1006B0008D858F3F49F0EF85F8898F899F2D912394
:1006C00059F09081892B8083E989FA899081898DFD
:1006D000809589238083D1CF908180958923F3CF22
:1006E000169598CFCF92DF92EF92FF920F931F93C0
:1006F000CF93DF938C01EB016A0179010E947E02A6
:100700006881C8010E949102E601EC0CFD1C6FEFAC
:10071000C8010E9491028993CE15DF05C1F7C80177
:100720000E94760281E0DF91CF911F910F91FF909F
:10073000EF90DF90CF9008952091AB01260F3327E3
:10074000331F21323105ECF420912402FC0190E0AA
:1007500080E0243069F082E00895A091AB012191FE
:10076000AC0145575E4FA40FB52FB11D2C930196D8
:10077000861798F38091AB01680F6093AB0180E01E
:10078000089581E008951092240281E0809323026D
:100790001092FE0161E082E10E948A0061E083E143
:1007A0000E948A00E9EBF0E080818E7F8083808167
:1007B0008D7F808388E48093B80085E48093BC00BB
:1007C00008951092FD011092FC0110922B021092DC
:1007D0004D020E94C30388E890E09093FB01809350
:1007E000FA0189E890E09093F9018093F801089567
:1007F000CF93DF9391E090938A018823B9F0C09161
:10080000B800D091BA008091BC008A7B8093BC0074
:1008100060E082E10E948A0060E083E10E948A0039
:100820000E94C303D093BA00C093B800DF91CF9168
:1008300008958F929F92AF92BF92CF92DF92EF92E4
:10084000FF920F931F93CF93DF93D0914D02D1323C
:1008500008F0D7C0182FC0914C020E9412016B0102
:100860007C018091240281116BC082E0809324027C
:10087000109323028FEF8093220210922102D093D3
:100880002002ACE2B2E0E0E0F2E080E0D81391C0F8
:100890001092FF018091FF01CC0FC82BC093FF0184
:1008A0008091FE01813009F088C01092FE010E9403
:1008B00012016B017C018091FF018093BB0080914C
:1008C000260290912702A0912802B0912902892B3B
:1008D0008A2B8B2BA1F00E9412010091260210910D
:1008E000270220912802309129026C197D098E0976
:1008F0009F09061717072807390708F442C0809197
:10090000BC0083FDD8CF85EC8093BC000E9412010F
:100910006B017C0180912402823009F450C08091E7
:1009200022028F3F09F46FC080912202803209F4C5
:100930006CC080912202803309F469C084E026C033
:100940008091260290912702A0912802B09129025D
:10095000892B8A2B8B2B09F484CF0E941201809063
:10096000260290902702A0902802B09029026C19CC
:100970007D098E099F0986169706A806B90608F014
:1009800070CF809125020E94F80385E010922B021F
:1009900010924D0210922A02DF91CF911F910F9178
:1009A000FF90EF90DF90CF90BF90AF909F908F908F
:1009B00008959D9191938F5F69CF85EEA5CF80912A
:1009C000260290912702A0912802B0912902892B3A
:1009D0008A2B8B2B09F49ECF0E94120100912602D4
:1009E0001091270220912802309129026C197D096B
:1009F0008E099F09061717072807390708F08ACFBD
:100A0000C0CF81E0C3CF80E0C1CF82E0BFCF83E021
:100A1000BDCF1F93CF93DF93EA01122FDC01119614
:100A20008D919C91DC01ED91FC910280F381E02D90
:100A30000995C817D90729F4812F0E94190491E05C
:100A4000811190E0892FDF91CF911F910895CF936D
:100A5000DF93EC018B818823A1F0888191E0909352
:100A60002A0280934C0210922B0210924D0281E0D8
:100A70000E94190491E0811190E0892FDF91CF91BC
:100A800008950E94E10381E08B83CE010E94270537
:100A9000982F8111E2CFF1CF0895E091FD0180916F
:100AA000FC01E81730F4F0E0E852FE4F808190E05E
:100AB00008958FEF9FEF08959091FD018091FC01C3
:100AC0002FEF3FEF981748F4E92FF0E0E852FE4F80
:100AD000208130E09F5F9093FD01C90108958091CE
:100AE000FC019091FD01891B990B0895CF92DF9233
:100AF000EF92FF920F931F93CF93DF937C01CB0173
:100B00008A0120912A02222389F0EB016B01C40E95
:100B1000D51ECC15DD0569F06991D701ED91FC91E9
:100B20000190F081E02DC7010995F3CF642F0E9459
:100B30009C03C801DF91CF911F910F91FF90EF901F
:100B4000DF90CF900895CF93DF931F92CDB7DEB79C
:100B5000698320912A022223F9F020914D0220324C
:100B600058F021E030E0FC013383228390E080E004
:100B70000F90DF91CF91089580912B02E82FF0E044
:100B8000E45DFD4F998190838F5F80932B0280936A
:100B90004D0281E090E0ECCF61E0CE0101960E9431
:100BA0009C03F7CF90E080E008950F931F93CF93BD
:100BB000DF9300D0CDB7DEB76A83E091F802F09101
:100BC000F9023097F9F0898384819581029798F032
:100BD000808191E090932A0280934C0210922B0224
:100BE00010924D0221E042E050E0BE016F5F7F4F66
:100BF000CF010E9409050F900F90DF91CF911F91B7
:100C00000F9108958F7789830091FA021091FB026A
:100C1000C8010E947E026981C8010E9491026A8116
:100C2000C8010E949102C8010E947602E4CF2F926F
:100C30003F924F925F926F927F928F929F92AF926C
:100C4000BF92CF92DF92EF92FF920F931F93CF93B9
:100C5000DF93DC011496ED91FC911597EF2B09F4CD
:100C600025C169012A01EC01888191E090932A0253
:100C700080934C0210922B0210924D0220E041E032
:100C800050E0CD010E940905782E882309F40EC199
:100C9000F12CE12C332433948C819D8186010E1933
:100CA0001F098017910708F48C0128800E94120107
:100CB0004B015C0180912402811173C0602EB0E26F
:100CC000B01710F480E2682E3092240221E0C601B1
:100CD000801B910BE816F90608F420E0209323020C
:100CE000EFEFE0932202109221028FEF860D8093A6
:100CF00020023092FF018091FF01220C282A2092CD
:100D0000FF018091FE01813009F090C01092FE0138
:100D10000E9412014B015C018091FF018093BB0096
:100D20008091260290912702A0912802B091290279
:100D3000892B8A2B8B2BA1F00E9412012091260275
:100D400030912702409128025091290268197909AF
:100D50008A099B09261737074807590708F442C034
:100D60008091BC0083FDD8CFF5ECF093BC000E94CD
:100D700012014B015C0180912402813009F45AC0B8
:100D800080912102861510F460902102A0E0B2E06B
:100D9000E8EDF1E080E0861551F19D9191938F5F30
:100DA000FACF8091260290912702A0912802B0915B
:100DB0002902892B8A2B8B2B09F47CCF0E941201EC
:100DC0002091260230912702409128025091290259
:100DD000681979098A099B092617370748075907AF
:100DE00008F068CF809125020E94F803612C1092D0
:100DF000FD016092FC016016110609F057C0420126
:100E00008E0C9F1C5401C501881999098017910700
:100E100098F589819A81DC01ED91FC910284F3853A
:100E2000E02D0995F50181935F01EDCF85EE80936B
:100E3000BC009DCF8091260290912702A0912802AC
:100E4000B0912902892B8A2B8B2B09F494CF0E9415
:100E500012012091260230912702409128025091E0
:100E60002902681979098A099B0926173707480753
:100E7000590708F080CFB6CFE00EF11EEC14FD0448
:100E800008F40ACF872DDF91CF911F910F91FF902A
:100E9000EF90DF90CF90BF90AF909F908F907F901A
:100EA0006F905F904F903F902F900895712CEACFF4
:100EB000CF93DF931F92CDB7DEB7E091F802F091A8
:100EC000F902898321E030E0AE014F5F5F4FBA0144
:100ED000309741F0CF010E94170689810F90DF9172
:100EE000CF9108958091FA029091FB020E947203C3
:100EF000F4CFCF93DF9300D0CDB7DEB7E091F80207
:100F0000F091F902898322E030E0AE014F5F5F4F3C
:100F1000BA01309769F0CF010E94170689819A8142
:100F20009827892798270F900F90DF91CF910895E8
:100F30008091FA029091FB020E947203EFCF0E940F
:100F400079079827892798270895CF93DF9300D0B2
:100F50001F92CDB7DEB7E091F802F091F9028983D4
:100F600023E030E0AE014F5F5F4FBA013097A9F048
:100F7000CF010E94170629816A8170E090E080E02D
:100F8000982F872F762F6627822B2B81622B0F902D
:100F90000F900F90DF91CF9108958091FA02909178
:100FA000FB020E947203E7CF4F925F926F927F9293
:100FB0008F929F92AF92BF92CF92DF92EF92FF9269
:100FC00080913103877009F49EC08AEF0E94A507C3
:100FD0002B013C0184E075946794579447948A955B
:100FE000D1F7C0900F03D0901003C301B20128E0E5
:100FF00030E040E050E00E944115F12CE12CD70197
:10100000C601880F991FAA1FBB1F281B390B4A0B4B
:101010005B0BA0911103B09112030E946B154B0161
:101020005C01C301B20120E130E040E050E00E94E9
:101030004115CA01B9016C197D098E099F099B01EF
:10104000AC010E940F159B01AC017CE055954795C2
:10105000379527957A95D1F7A0911303B091140392
:101060000E946B152B013C01C501B40120E038E062
:1010700040E050E00E94411569017A01C301B201CC
:1010800020E030E440E050E00E9441152C0D3D1D71
:101090004E1D5F1D80910B0390910C03A0910D03D9
:1010A000B0910E03280F391F4A1F5B1F20930703BF
:1010B000309308034093090350930A03A5E0B0E07E
:1010C0000E94601560587F4F8F4F9F4F20E031E0A6
:1010D00040E050E00E944115CA01B9010E949A13F4
:1010E00020E030E048EC52E40E94F112FF90EF90D3
:1010F000DF90CF90BF90AF909F908F907F906F9038
:101100005F904F90089560E070E080EC9FE7EECF35
:10111000FC0101900020E9F73197AF01481B590B02
:10112000BC018EE492E00C9469018F929F92AF9281
:10113000BF920F931F93CF93DF93CDB7DEB7A197E5
:101140000FB6F894DEBF0FBECDBF19A2423008F42F
:101150004AE08E010F5D1F4F842E912CB12CA12CE3
:10116000A50194010E941F15E62FB901CA01EA30BA
:10117000F4F4E05DD801EE938D01232B242B252B75
:1011800079F790E080E0109719F0CD010E9488086F
:10119000A1960FB6F894DEBF0FBECDBFDF91CF9101
:1011A0001F910F91BF90AF909F908F900895E95C31
:1011B000E1CF4F925F926F927F928F929F92AF9208
:1011C000BF92CF92DF92EF92FF920F931F93CF9334
:1011D0006B017C01742EAC019B010E940A158823CF
:1011E00099F08AE291E0CF911F910F91FF90EF90DB
:1011F000DF90CF90BF90AF909F908F907F906F9037
:101200005F904F900C94880846015701E894B7F816
:101210002FEF3FEF4FE75FE7C501B4010E940A15CA
:1012200081110DC02FEF3FEF4FE75FE7C501B4011C
:101230000E94EC1218161CF48EE291E0D4CF2FEF2E
:101240003FEF4FE75FE4C701B6010E9498141816FC
:101250001CF482E391E0C7CF2FEF3FEF4FE75FEC45
:10126000C701B6010E94EC1287FDF3CF20E030E009
:10127000A901C701B6010E94EC1210E000E087FF4F
:101280000AC06DE28EE492E00E9409028C01F7FA36
:10129000F094F7F8F094C0E060E070E080E09FE345
:1012A0007C1641F020E030E040E251E40E94F1126F
:1012B000CF5FF6CFA70196010E9480122B013C015F
:1012C0000E9463134B015C014AE00E9495087C0177
:1012D000E00EF11ECC23C1F1C501B4010E949813A8
:1012E0009B01AC01C301B2010E947F124B015C0162
:1012F0006EE28EE492E00E940902E80EF91EC150EF
:1013000018F120E030E040E251E4C501B4010E9450
:101310009D142B013C010E9463134B01B12CA12CA5
:101320004AE0C501B4010E949508E80EF91EC50106
:10133000B4010E9498139B01AC01C301B2010E9449
:101340007F124B015C01DBCFC701CF911F910F9141
:10135000FF90EF90DF90CF90BF90AF909F908F90D5
:101360007F906F905F904F90089585ED8093BC00C3
:101370008091260290912702A0912802B091290223
:101380000796A11DB11D23E0B695A7959795879562
:101390002A95D1F72091BC0024FD03C010922402AD
:1013A0000895409126025091270260912802709181
:1013B0002902452B462B472B69F30097A105B10560
:1013C00041F02AE22A95F1F700C00197A109B1097D
:1013D000E1CF809125020C94F8031F920F920FB673
:1013E0000F9211242F933F938F939F93AF93BF93AB
:1013F0008091D0019091D101A091D201B091D301FF
:101400003091CF0123E0230F2D3758F50196A11D10
:10141000B11D2093CF018093D0019093D101A0936F
:10142000D201B093D3018091D4019091D501A091C4
:10143000D601B091D7010196A11DB11D8093D401B1
:101440009093D501A093D601B093D701BF91AF91EE
:101450009F918F913F912F910F900FBE0F901F90F2
:10146000189526E8230F0296A11DB11DD2CF1F9219
:101470000F920FB60F9211242F933F934F935F93C8
:101480006F937F938F939F93AF93BF93EF93FF934C
:101490008EE492E00E94E701FF91EF91BF91AF913E
:1014A0009F918F917F916F915F914F913F912F917C
:1014B0000F900FBE0F901F9018951F920F920FB6AE
:1014C0000F9211242F938F939F93EF93FF93E091AB
:1014D0005E02F0915F028081E0916402F09165020A
:1014E00082FD1BC09081809167028F5F8F73209176
:1014F0006802821741F0E0916702F0E0E25BFD4F85
:10150000958F80936702FF91EF919F918F912F911B
:101510000F900FBE0F901F9018958081F4CF1F92EF
:101520000F920FB60F9211242F933F934F935F9317
:101530006F937F938F939F93AF93BF93EF93FF939B
:101540008091B900887F803609F44AC0F0F588326E
:1015500009F4A7C018F5803109F49BC0B8F48823BA
:1015600009F4F9C0883009F494C0FF91EF91BF915C
:10157000AF919F918F917F916F915F914F913F912B
:101580002F910F900FBE0F901F901895883109F47E
:1015900088C0803251F78093220214C0803409F44D
:1015A0009DC040F48033B9F38833F9F6809322026A
:1015B00085ECB0C0803509F485C0883509F496C043
:1015C000883499F60E94B509D0CF883909F48CC0C7
:1015D00038F5883729F050F4883611F0803729F62D
:1015E00083E0809324021092CD0157C0883809F41B
:1015F0007BC0803919F0803809F0B7CF8091CD01D8
:10160000803208F071C0E091CD0181E08E0F8093AF
:10161000CD018091BB00F0E0E355FE4F80833DC0DB
:10162000803B39F0E0F4803A09F479C0883A09F057
:101630009CCF84E0809324021092AC011092AB0105
:10164000E091FA01F091FB0109958091AB018111C4
:101650000FC081E08093AB0110928B0109C0803CE8
:1016600009F4A6CF883C09F4A3CF883B09F07DCFCD
:10167000E091AC0181E08E0F8093AC01F0E0E55782
:10168000FE4F80818093BB009091AC018091AB01B3
:1016900029C08091FF018093BB0085EC8093BC0042
:1016A00064CF9091210280912002981758F5E09123
:1016B000210281E08E0F80932102F0E0E050FE4F86
:1016C0008081E9CFE091210281E08E0F8093210299
:1016D0008091BB00F0E0E050FE4F808390912102AA
:1016E000809120029817C8F285E8D8CFE0912102B6
:1016F00081E08E0F809321028091BB00F0E0E050EA
:10170000FE4F80838091230281115CCF81E0809322
:10171000FE0184EA8093BC001092240226CF85EC5F
:101720008093BC00109224028091CD01803230F46D
:10173000E091CD01F0E0E355FE4F10826091CD01C4
:1017400070E0E091F801F091F9018DEA91E00995DE
:101750001092CD010ACF1092220234CF0F931F9323
:10176000CF93DF93EEE4F2E01382128288EE93E0EF
:10177000A0E0B0E084839583A683B7832AE031E0BC
:101780003183208325EC30E03587248724EC30E05A
:101790003787268720EC30E0318B208B21EC30E03E
:1017A000338B228B22EC30E0358B248B26EC30E01F
:1017B000378B268B118E128E138E148EEBEEF2E089
:1017C0001382128284839583A683B7838CE191E090
:1017D0009183808308EF12E0F80111821082158254
:1017E00014821782168211861086138A148A158A2B
:1017F000168A8CE190E00E940B17EC018AE08B873F
:101800008FEF8E878D878C8787EF92E0998388830F
:101810001B8E82E090E00E940B1721E5FC012083E3
:1018200011829B838A8380E492E4AFE0B0E08C83F2
:101830009D83AE83BF8381E090E0998788871A8675
:10184000F801D383C283DF91CF911F910F91089547
:10185000CF93DF93CDB7DEB76B970FB6F894DEBFAB
:101860000FBECDBF789484B5826084BD84B581609D
:1018700084BD85B5826085BD85B5816085BD80915B
:101880006E00816080936E001092810080918100D3
:1018900082608093810080918100816080938100CB
:1018A000809180008160809380008091B10084608D
:1018B0008093B1008091B00081608093B0008091EE
:1018C0007A00846080937A0080917A0082608093AD
:1018D0007A0080917A00816080937A0080917A000A
:1018E000806880937A001092C100E0915E02F091CE
:1018F0005F0282E08083E0915A02F0915B021082E5
:10190000E0915C02F0915D0280E1808310926602BA
:10191000E0916202F091630286E08083E0916002D0
:10192000F0916102808180618083E0916002F0919A
:101930006102808188608083E0916002F0916102A1
:10194000808180688083E0916002F09161028081F3
:101950008F7D80832091FA023091FB023F8B2E8B8A
:10196000232B09F044C08091F8029091F90200976E
:1019700011F00E94A71786E090E00E940B179F8B42
:101980008E8B87E7EE89FF8980838BEE92E09283CE
:101990008183138280E290E095838483F093F9023F
:1019A000E093F8020E94E10381E0EE89FF898383DE
:1019B000CF010E942705811166C08AE591E00E944F
:1019C000880860910303709104038091050390914E
:1019D000060340E10E94950884E491E00E94880893
:1019E0006AE070E080E090E00E943701F9CFEE8974
:1019F000FF8983858F3F49F061E00E94D60061E056
:101A0000EE89FF8983850E948A00EE89FF898081A3
:101A10009181892B09F4F6C41FB7F8948091CE0107
:101A2000811127C0E6E8F0E08491EAE9F0E09491C2
:101A3000E82FF0E0EE0FFF1FE859FF4FA591B4919A
:101A4000EC91E92321F461E08AE00E948A0061E0E0
:101A50008AE00E94D6008CB580618CBD8CB5806414
:101A60008CBD61E08DE00E94D60061E08BE00E94B9
:101A7000D6008091CE018F5F8093CE011FBF81E0A1
:101A8000EE89FF89838F80ED0E94580790E0B0E0D7
:101A9000A0E08093030390930403A0930503B09305
:101AA000060380369105A105B10509F086CF66EBE6
:101AB00080EE0E94D5056AE070E080E090E00E9430
:101AC000370183EF0E94580780FDF5CF88E80E9418
:101AD0009F079093100380930F038AE80E949F074B
:101AE00090931203809311038CE80E949F079093B8
:101AF0001403809313038EE80E949F0790931603AC
:101B00008093150380E90E949F07909318038093A8
:101B1000170382E90E949F0790931A038093190389
:101B200084E90E949F0790931C0380931B0386E91E
:101B30000E949F0790931E0380931D0388E90E94D3
:101B40009F079093200380931F038AE90E949F07B9
:101B500090932203809321038CE90E949F07909326
:101B60002403809323038EE90E949F07909326030A
:101B70008093250381EA0E9458078093270381EE12
:101B80000E949F07909329038093280383EE0E946D
:101B9000580780932A0384EE0E945807898385EEB4
:101BA0000E945807F98140E1F402900111248F70DE
:101BB000282B30932C0320932B0386EE0E9458078A
:101BC000898385EE0E945807F98120E1F202F00135
:101BD000112490E004E0959587950A95E1F78E2B06
:101BE0009F2B90932E0380932D0387EE0E9458071E
:101BF00080932F038DEE80933103809132038F7198
:101C0000806A8093320380913003807C8F77809349
:101C1000300360E084EF0E94D50560913203629545
:101C20006695677082EF0E94D50580913003682F1A
:101C3000677030E2639FB0011124282F2695269506
:101C40002695277044E0249F90011124622B87FB86
:101C5000882780F9682B85EF0E94D5058091310394
:101C6000682F677050E2659FB0011124282F2695D8
:101C700026952695277094E0299F90011124622BC8
:101C80008295869586958370682B84EF0E94D50592
:101C900064E670E080E090E00E94370186E391E026
:101CA0000E94880884E491E00E9488080E94E10371
:101CB00081E080932A0287E780934C0210922B02E6
:101CC00010924D0287E491E00E94880881E00E9412
:101CD000190401E010E020E030E0882319F000E072
:101CE00010E098014AE0C901B8010E94950884E417
:101CF00091E00E9488088EE791E00E9488080E9487
:101D0000D40742E00E94D90881E891E00E94880847
:101D100080913103887309F49FC30E94D40787EF31
:101D20000E94A5076E8B7F8B888F998F8091070308
:101D300090910803A0910903B0910A036C017D0101
:101D4000FF0CCC08DC2C76019C01AD016C2D7C2DA8
:101D50008C2D9C2D345F4140510961097109810925
:101D600091092B8F3A8F49835A836B837C838D83B0
:101D70009E8359016A017B018C010E9473152F8398
:101D8000388749875A876B877C878D879E873091F4
:101D9000180320911703932F990F990B492F592F4F
:101DA000692F792F892F0E9473150CE00E94A216CB
:101DB00019012A013B014C0130911A0320911903AA
:101DC000932F990F990BAF80B884C984DA84EB8480
:101DD000FC840D851E85492F592F692F792F892F56
:101DE0000E947315F22E032F142FB52FF62FE72F15
:101DF000D82EE92EA0E00E94EA1684F421503F4F2D
:101E00004F4F5F4F6F4F7F4F8F4F9F4FF22E032FDC
:101E1000142FB52FF62FE72FD82EE92E2F2D302F88
:101E2000412F5B2F6F2F7E2F8D2D9E2D08E00E945E
:101E3000BB1651016201730184010E94D8167058CB
:101E40008F4F9F4F20901503309016035101C12CE6
:101E5000D12CE12CF12C00E010E00E947315F22E41
:101E6000032F142FB52FF62FE72FD82EE92EA0E041
:101E70000E94EA1684F421503109410951096E4F3C
:101E80007F4F8F4F9F4FF22E032F142FB52FF62F1A
:101E9000E72FD82EE92E2F2D302F412F5B2F6F2FBC
:101EA0007E2F8D2D9E2D01E20E94BB162F87388B31
:101EB000498B5A8B6B8B7C8B8D8B692EA0E00E949B
:101EC000EA1609F4CEC23091200320911F03932F0C
:101ED000990F990BAF80B884C984DA84EB84FC84B1
:101EE0000D851E85492F592F692F792F892F0E9423
:101EF000731519012A016F83772E4C0130911E034F
:101F000020911D03932F990F990BAB8CBA8CC9802C
:101F1000DA80EB80FC800D811E81492F592F692FBB
:101F2000792F892F0E94731501E10E94A216510199
:101F30006201EF80F72C84010E94D81659016A01D2
:101F40007B01782E192F8E899F89A88DB98D24E069
:101F5000B595A795979587952A95D1F720E030E01C
:101F600040E150E0281B390B4A0B5B0BDA01C90139
:101F700019012A01550C2208322C21019C01AD01C6
:101F8000622D722D822D922D0FE10E94A216490121
:101F90004A835983B62FA72FF82FE92F30911C03BE
:101FA00020911B03932F990F990B492F592F692FBC
:101FB000792F892F03E20E94A216072D0E94D816BE
:101FC00059016A017B018C0194014A8159816B2F6F
:101FD0007A2F8F2F9E2F0E94E116E5E3AE2EFCE0B4
:101FE000BF2EC12CD12CE12CF12C00E010E00E947E
:101FF0007315AF84B888C988DA88EB88FC880D89A6
:10200000162D0E94CD152F83232E2A013B014C0152
:10201000022F132F4983B52DF62FE72D7C01A0E069
:102020000E94EA1674F42150304E4F4F5F4F6F4FAD
:102030007F4F8F4F9F4F89014983B52FF62FE72F91
:102040007C01980149815B2F6F2F7E2FC7010DE026
:102050000E94BB16322E39834A835B836C837D8357
:102060008E8398873091260320912503932F990F13
:10207000990BA32CB9806A017B01082F1885492F81
:10208000592F692F792F892F0E9473150E9473157C
:1020900089014983B52FF62FE72F7C01A0E00E942C
:1020A000EA1674F42150310941095E4F6F4F7F4F9A
:1020B0008F4F9F4F89014983B52FF62FE72F7C0162
:1020C000980149815B2F6F2F7E2FC70109E10E9484
:1020D000BB16AF80B22C6201730184010E94D81636
:1020E000322E39834A835B836C837D838E8398870A
:1020F0003091240320912303932F990F990B492F9B
:10210000592F692F792F892F0E94731589014F83C9
:10211000B52FF62FE72F7C01A0E00E94EA1674F499
:1021200021503109484F5F4F6F4F7F4F8F4F9F4F67
:1021300089014F83B52FF62FE72F7C0198014F813E
:102140005B2F6F2F7E2FC70103E10E94BB16590141
:102150006A017B018C01232D39814A815B816C816D
:102160007D818E8198850E94D816122F3A834983EB
:10217000B52FF62FE72FF82E092FA0E00E94EA16C0
:1021800084F421503F4F4F4F5F4F6F4F7F4F8F4F22
:102190009F4F122F3A834983B52FF62FE72FF82E42
:1021A000092F212F3A8149815B2F6F2F7E2F8F2D91
:1021B000902F08E00E94BB162983F32F6A017B0150
:1021C000E82F192F8091210390912203092E000CF2
:1021D000AA0BBB0B4C015D01BB0C8808982C540169
:1021E0009C01AD01682D782D882D982D04E00E946A
:1021F000A216A980BF2E0E2F0E94D8160E949213FD
:1022000020E030E040E85BE30E949D1420E030E0F5
:1022100048EC52E40E94F11242E00E94D90885E89D
:1022200091E00E94880880913203807E09F41DC1EC
:102230000E94D4078DEF0E947907C0900703D090C9
:102240000803E0900903F0900A033CE2D31A31E05E
:10225000E30AF108B0E0A0E04C015D013EE0880C2B
:10226000991CAA1CBB1C3A95D1F740912B035091A5
:102270002C03052E000C660B770BE4E1440F551F71
:10228000661F771FEA95D1F7841A950AA60AB70A3E
:10229000A0912D03B0912E03A70196010E946B150A
:1022A000861A970AA80AB90AC501B401705C8F4F53
:1022B0009F4F20E030E840E050E00E9441152901A6
:1022C0003A01A0912A03B0E0A70196010E9460158F
:1022D00020E038E040E050E00E94411549015A01F9
:1022E00080E8980EA11CB11CA0912F030A2E000CAF
:1022F000BB0BA70196010E946B1520E034E040E083
:1023000050E00E944115CA01B901A50194010E9443
:102310000F1520E034E040E050E00E944115405E9F
:102320005F4FA0912803B09129030E946B15705E46
:102330008F4F9F4F20E030E440E050E00E94411575
:10234000C301B2010E940F156B017C0120E030E84F
:1023500040E050E00E944115CA01B9010E940F15EA
:102360009B01AC01F7E05595479537952795FA9570
:10237000D1F7A0912703B0E00E94601520E130E082
:1023800040E050E00E944115C21AD30AE40AF50A5F
:10239000F7FE03C0C12CD12C7601C701B601613014
:1023A00071058105E9E19E0724F060E070E080E0BE
:1023B00099E12CE095958795779567952A95D1F7C2
:1023C0000E94981320E030E040E85AE30E949D14F8
:1023D00042E00E94D90884E491E00E94880868ECF9
:1023E00070E080E090E00E94370120E030E0232B95
:1023F00009F481CC0E94D301882309F47CCC0E948B
:10240000000079CC61E0EE89FF8984850E94D600C6
:10241000EE89FF8982858B7F60E019F061E0EE89AB
:10242000FF8984850E948A00EE89FF8985858F3F18
:1024300049F061E00E94D60061E0EE89FF89858560
:102440000E948A00EE89FF8986858F3F09F417CBA9
:1024500060E00E94D60013CB60E070E080EC9FE764
:10246000D5CE60E070E0CB01D1CE60E070E080ECD2
:102470009FE7AECFCF93DF93C091FA02D091FB02DA
:10248000209749F08A819B81009711F00E94A7173D
:10249000CE010E94A7178091F8029091F90200974F
:1024A00011F00E94A7178091FC029091FD02009705
:1024B00039F0DC01ED91FC910280F381E02D09956A
:1024C0008091FE029091FF02009739F0DC01ED91BE
:1024D000FC910280F381E02D099580910003909199
:1024E0000103009749F0DC01ED91FC910280F3813A
:1024F000E02DDF91CF910994DF91CF91089550584D
:10250000BB27AA270E9497120C945E140E945014B5
:1025100038F00E94571420F039F49F3F19F426F444
:102520000C943D140EF4E095E7FB0C943714E92F5E
:102530000E946F1458F3BA17620773078407950750
:1025400020F079F4A6F50C9491140EF4E0950B2E7E
:10255000BA2FA02D0B01B90190010C01CA01A001F5
:102560001124FF27591B99F0593F50F4503E68F150
:102570001A16F040A22F232F342F4427585FF3CF91
:10258000469537952795A795F0405395C9F77EF462
:102590001F16BA0B620B730B840BBAF09150A1F0AB
:1025A000FF0FBB1F661F771F881FC2F70EC0BA0F31
:1025B000621F731F841F48F4879577956795B795B9
:1025C000F7959E3F08F0B0CF9395880F08F09927B4
:1025D000EE0F9795879508950E94131408F481E0F3
:1025E00008950E9405130C945E140E94571458F02D
:1025F0000E94501440F029F45F3F29F00C943714E6
:1026000051110C9492140C943D140E946F1468F3B1
:102610009923B1F3552391F3951B550BBB27AA279B
:1026200062177307840738F09F5F5F4F220F331FD5
:10263000441FAA1FA9F335D00E2E3AF0E0E832D09D
:1026400091505040E695001CCAF72BD0FE2F29D0A0
:10265000660F771F881FBB1F261737074807AB0772
:10266000B0E809F0BB0B802DBF01FF2793585F4FE7
:102670003AF09E3F510578F00C9437140C94921464
:102680005F3FE4F3983ED4F3869577956795B795C9
:10269000F7959F5FC9F7880F911D9695879597F9D4
:1026A0000895E1E0660F771F881FBB1F621773074D
:1026B0008407BA0720F0621B730B840BBA0BEE1F62
:1026C00088F7E09508950E94771488F09F5798F056
:1026D000B92F9927B751B0F0E1F0660F771F881F27
:1026E000991F1AF0BA95C9F714C0B13091F00E9441
:1026F0009114B1E008950C949114672F782F8827D6
:10270000B85F39F0B93FCCF3869577956795B39567
:10271000D9F73EF490958095709561957F4F8F4FD6
:102720009F4F089597FB16F40E9440140C94D61303
:10273000E89409C097FB3EF490958095709561955B
:102740007F4F8F4F9F4F9923A9F0F92F96E9BB2711
:102750009395F695879577956795B795F111F8CF8D
:10276000FAF4BB0F11F460FF1BC06F5F7F4F8F4FF8
:102770009F4F16C0882311F096E911C0772321F0EE
:102780009EE8872F762F05C0662371F096E8862F86
:1027900070E060E02AF09A95660F771F881FDAF7DD
:1027A000880F9695879597F90895E894F92F96EBF9
:1027B000FF2381F0121613061406440B9395F69529
:1027C00087957795679557954040FF23B9F71BC0CC
:1027D00099270895882351F49850D2F7872B762FA4
:1027E000652F542F432F322F20E0B1F3121613061A
:1027F0001406440B88233AF09A95440F551F661F20
:10280000771F881FCAF755234AF4440F551F11F448
:1028100060FF04C06F5F7F4F8F4F9F4F880F96956B
:10282000879597F90895990F0008550FAA0BE0E8CE
:10283000FEEF16161706E807F907C0F01216130682
:10284000E407F50798F0621B730B840B950B39F4C2
:102850000A2661F0232B242B252B21F408950A2628
:1028600009F4A140A6958FEF811D811D089597F968
:102870009F6780E870E060E008959FEF80EC089526
:1028800090958095709560955095409530952195DF
:102890003F4F4F4F5F4F6F4F7F4F8F4F9F4F089569
:1028A00000240A941616170618060906089500242F
:1028B0000A9412161306140605060895092E0394A9
:1028C000000C11F4882352F0BB0F40F4BF2B11F41D
:1028D00060FF04C06F5F7F4F8F4F9F4F089557FD7C
:1028E0009058440F551F59F05F3F71F04795880F7E
:1028F00097FB991F61F09F3F79F087950895121615
:1029000013061406551FF2CF4695F1DF08C01616C0
:1029100017061806991FF1CF869571056105089471
:102920000895E894BB2766277727CB0197F9089588
:102930000E94131408F48FEF08950E94B0140C94B1
:102940005E140E94501438F00E94571420F0952312
:1029500011F00C9437140C943D1411240C9492141F
:102960000E946F1470F3959FC1F3950F50E0551FAF
:10297000629FF001729FBB27F00DB11D639FAA27D4
:10298000F00DB11DAA1F649F6627B00DA11D661F23
:10299000829F2227B00DA11D621F739FB00DA11D44
:1029A000621F839FA00D611D221F749F3327A00DFE
:1029B000611D231F849F600D211D822F762F6A2F9A
:1029C00011249F5750409AF0F1F088234AF0EE0FFF
:1029D000FF1FBB1F661F771F881F91505040A9F72C
:1029E0009E3F510580F00C9437140C9492145F3F75
:1029F000E4F3983ED4F3869577956795B795F79568
:102A0000E7959F5FC1F7FE2B880F911D96958795DF
:102A100097F908950E941314880B990B0895DB0110
:102A20008F939F930E946015BF91AF91A29F800DDD
:102A3000911DA39F900DB29F900D11240895A1E2C6
:102A40001A2EAA1BBB1BFD010DC0AA1FBB1FEE1F28
:102A5000FF1FA217B307E407F50720F0A21BB30B73
:102A6000E40BF50B661F771F881F991F1A9469F7EF
:102A700060957095809590959B01AC01BD01CF014B
:102A80000895052E97FB1EF400940E94581557FDDB
:102A900007D00E941F1507FC03D04EF40C94581564
:102AA00050954095309521953F4F4F4F5F4F08957A
:102AB00090958095709561957F4F8F4F9F4F0895AA
:102AC0000E94FC16A59F900DB49F900DA49F800DB1
:102AD000911D11240895B7FF0C9460150E94601594
:102AE000821B930B0895DF93CF931F930F939A9DAF
:102AF000F02D219FF00D8B9DF00D8A9DE02DF10DA5
:102B0000039FF00D029FE00DF11D4E9DE00DF11DA4
:102B10005E9DF00D4F9DF00D7F936F93BF92AF922E
:102B20005F934F93D5010E94FC168B01AC01D70136
:102B30000E94FC16EB01E80FF91FD6010E94C21596
:102B40002F913F91D6010E94FC16C60FD71FE81F98
:102B5000F91FAF91BF910E94C2152F913F910E9422
:102B6000FC16C60FD71FE81FF91FD6010E94FC16DE
:102B7000E60FF71F9801BE01CF010F911F91CF9172
:102B8000DF9108950E94FC16460F571FC81FD91FDA
:102B900008F431960895689401C0E894F92FF12B58
:102BA00012F00C94FF15A0E0B0E0E9EDF5E10C9413
:102BB0007116092E059422F40E945B16112392F4DB
:102BC000F0E80F26FFEFE094F09400951095B09494
:102BD000C094D094A194BF0ACF0ADF0AEF0AFF0A7B
:102BE0000F0B1F0B0E940A1607FC0E945B16CDB745
:102BF000DEB7ECE00C948D16689401C0E8948F92D7
:102C00009F92CF93DF930E940A16DF91CF919F90FE
:102C10008F90089588249924F401E401B0E49F93EF
:102C2000AA279A158B049C04ED05FE05CF05D00755
:102C3000A10798F4AD2FDC2FCF2FFE2FE92D982C74
:102C4000892E982F872F762F652F542F432F322FC1
:102C50002227B85031F7BF9127C01B2EBF91BB2749
:102C6000220F331F441F551F661F771F881F991F90
:102C7000881C991CEE1FFF1FCC1FDD1FAA1FBB1F46
:102C80008A149B04EC05FD05CE05DF05A007B107FE
:102C900048F08A189B08EC09FD09CE09DF09A00B52
:102CA000B10B21601A94E1F62EF49401AF01BE013C
:102CB000CD01000C089560957095809590953095A4
:102CC0004095509521953F4F4F4F5F4F6F4F7F4F2E
:102CD0008F4F9F4F08952F923F924F925F926F9226
:102CE0007F928F929F92AF92BF92CF92DF92EF929C
:102CF000FF920F931F93CF93DF93CDB7DEB7CA1B1D
:102D0000DB0B0FB6F894DEBF0FBECDBF09942A8847
:102D1000398848885F846E847D848C849B84AA84EF
:102D2000B984C884DF80EE80FD800C811B81AA817C
:102D3000B981CE0FD11D0FB6F894DEBF0FBECDBF47
:102D4000ED010895002E083090F0982F872F762FF0
:102D5000652F542F432F322F22270850F4CF220FF4
:102D6000331F441F551F661F771F881F991F0A9521
:102D7000B2F7002D089597FD1094002E083098F0BA
:102D80000850232F342F452F562F672F782F892F48
:102D9000912DF4CF159497958795779567955795CD
:102DA0004795379527950A95AAF71124002D089580
:102DB0002A0D3B1D4C1D5D1D6E1D7F1D801F911F2B
:102DC00008952A193B094C095D096E097F09800B9A
:102DD000910B08950024A7FD00942A1730054005A3
:102DE000500560057005800590050895EE0FFF1FE2
:102DF0000590F491E02D0994A29FB001B39FC0010A
:102E0000A39F700D811D1124911DB29F700D811D16
:102E10001124911D08950F931F93CF93DF93823058
:102E2000910510F482E090E0E0913503F0913603D3
:102E300030E020E0B0E0A0E0309799F421153105B2
:102E400009F44AC0281B390B24303105D8F58A8192
:102E50009B816115710589F1FB0193838283FE01DA
:102E600011C0408151810281138148175907E0F058
:102E70004817590799F4109761F012960C9312971E
:102E800013961C933296CF01DF91CF911F910F9132
:102E900008950093350310933603F4CF21153105BF
:102EA00051F04217530738F0A901DB019A01BD0127
:102EB000DF01F801C1CFEF01F9CF90933603809382
:102EC0003503CDCFFE01E20FF31F81939193225082
:102ED000310939832883D7CF2091330330913403CC
:102EE000232B41F4209102013091030130933403EC
:102EF0002093330320910001309101012115310508
:102F000041F42DB73EB74091040150910501241BB7
:102F1000350BE0913303F0913403E217F307A0F48B
:102F20002E1B3F0B2817390778F0AC014E5F5F4F1F
:102F30002417350748F04E0F5F1F5093340340931A
:102F40003303819391939FCFF0E0E0E09CCFCF9348
:102F5000DF930097E9F0FC01329713821282A0916F
:102F60003503B0913603ED0130E020E01097A1F475
:102F700020813181820F931F2091330330913403DC
:102F80002817390709F061C0F0933403E093330345
:102F9000DF91CF910895EA01CE17DF07E8F54A8166
:102FA0005B819E0141155105B1F7E901FB83EA837D
:102FB00049915991C40FD51FEC17FD0761F4808129
:102FC00091810296840F951FE901998388838281FC
:102FD00093819B838A83F0E0E0E012968D919C912F
:102FE00013970097B9F52D913C911197CD01029659
:102FF000820F931F20913303309134032817390730
:1030000039F6309751F51092360310923503B0938C
:103010003403A0933303BCCFD383C2834081518157
:10302000840F951FC817D90761F44E5F5F4F8881E1
:103030009981480F591F518340838A819B819383D3
:1030400082832115310509F0B0CFF0933603E09368
:1030500035039ECFFD01DC01C0CF13821282D7CF92
:1030600010E0CDE5D0E004C0FE010E94F6162196E6
:0A307000CE35D107C9F7F894FFCF61
:10307A000000370380000000000009026901960180
:10308A005602C701A501B90100000000A305760593
:10309A00D2054C056F055C054D056E616E00696EC3
:1030AA0066006F766600424D4532383020535049EB
:1030BA00204F4B000D0A00693263203078373720E1
:1030CA00636F6E74657374613D00424D45323830EA
:1030DA00206E6F20656E636F6E747261646F20700C
:1030EA006F72205350492C2069643D307800543D5A
:0A30FA000020503D0020483D00007A
:00000001FF
